{
	"contracts/simplestore.sol": {
		"store": {
			"abi": [
				{
					"inputs": [
						{
							"internalType": "uint256",
							"name": "fav",
							"type": "uint256"
						},
						{
							"internalType": "string",
							"name": "naam",
							"type": "string"
						}
					],
					"name": "addPerson",
					"outputs": [],
					"stateMutability": "nonpayable",
					"type": "function"
				},
				{
					"inputs": [],
					"name": "favnum",
					"outputs": [
						{
							"internalType": "uint256",
							"name": "",
							"type": "uint256"
						}
					],
					"stateMutability": "view",
					"type": "function"
				},
				{
					"inputs": [],
					"name": "getdata",
					"outputs": [
						{
							"components": [
								{
									"internalType": "uint256",
									"name": "favnum",
									"type": "uint256"
								},
								{
									"internalType": "string",
									"name": "name",
									"type": "string"
								}
							],
							"internalType": "struct store.People[]",
							"name": "",
							"type": "tuple[]"
						}
					],
					"stateMutability": "view",
					"type": "function"
				},
				{
					"inputs": [
						{
							"internalType": "uint256",
							"name": "",
							"type": "uint256"
						}
					],
					"name": "people",
					"outputs": [
						{
							"internalType": "uint256",
							"name": "favnum",
							"type": "uint256"
						},
						{
							"internalType": "string",
							"name": "name",
							"type": "string"
						}
					],
					"stateMutability": "view",
					"type": "function"
				},
				{
					"inputs": [],
					"name": "retrive",
					"outputs": [
						{
							"internalType": "uint256",
							"name": "",
							"type": "uint256"
						}
					],
					"stateMutability": "view",
					"type": "function"
				},
				{
					"inputs": [
						{
							"internalType": "uint256",
							"name": "fav",
							"type": "uint256"
						}
					],
					"name": "storing",
					"outputs": [],
					"stateMutability": "nonpayable",
					"type": "function"
				}
			],
			"devdoc": {
				"kind": "dev",
				"methods": {},
				"version": 1
			},
			"evm": {
				"assembly": "    /* \"contracts/simplestore.sol\":25:693  contract store{... */\n  mstore(0x40, 0x80)\n  callvalue\n  dup1\n  iszero\n  tag_1\n  jumpi\n  0x00\n  dup1\n  revert\ntag_1:\n  pop\n  dataSize(sub_0)\n  dup1\n  dataOffset(sub_0)\n  0x00\n  codecopy\n  0x00\n  return\nstop\n\nsub_0: assembly {\n        /* \"contracts/simplestore.sol\":25:693  contract store{... */\n      mstore(0x40, 0x80)\n      callvalue\n      dup1\n      iszero\n      tag_1\n      jumpi\n      0x00\n      dup1\n      revert\n    tag_1:\n      pop\n      jumpi(tag_2, lt(calldatasize, 0x04))\n      shr(0xe0, calldataload(0x00))\n      dup1\n      0x19908de0\n      eq\n      tag_3\n      jumpi\n      dup1\n      0x4fa10cfc\n      eq\n      tag_4\n      jumpi\n      dup1\n      0x7b683a74\n      eq\n      tag_5\n      jumpi\n      dup1\n      0x9e7a13ad\n      eq\n      tag_6\n      jumpi\n      dup1\n      0xa6b7fc5b\n      eq\n      tag_7\n      jumpi\n      dup1\n      0xbc832d4e\n      eq\n      tag_8\n      jumpi\n    tag_2:\n      0x00\n      dup1\n      revert\n        /* \"contracts/simplestore.sol\":46:65  uint  public favnum */\n    tag_3:\n      tag_9\n      tag_10\n      jump\t// in\n    tag_9:\n      mload(0x40)\n      tag_11\n      swap2\n      swap1\n      tag_12\n      jump\t// in\n    tag_11:\n      mload(0x40)\n      dup1\n      swap2\n      sub\n      swap1\n      return\n        /* \"contracts/simplestore.sol\":530:609  function getdata() public view returns (People[] memory){... */\n    tag_4:\n      tag_13\n      tag_14\n      jump\t// in\n    tag_13:\n      mload(0x40)\n      tag_15\n      swap2\n      swap1\n      tag_16\n      jump\t// in\n    tag_15:\n      mload(0x40)\n      dup1\n      swap2\n      sub\n      swap1\n      return\n        /* \"contracts/simplestore.sol\":72:134  function storing(uint fav) public{... */\n    tag_5:\n      tag_17\n      0x04\n      dup1\n      calldatasize\n      sub\n      dup2\n      add\n      swap1\n      tag_18\n      swap2\n      swap1\n      tag_19\n      jump\t// in\n    tag_18:\n      tag_20\n      jump\t// in\n    tag_17:\n      stop\n        /* \"contracts/simplestore.sol\":280:302  People[] public people */\n    tag_6:\n      tag_21\n      0x04\n      dup1\n      calldatasize\n      sub\n      dup2\n      add\n      swap1\n      tag_22\n      swap2\n      swap1\n      tag_19\n      jump\t// in\n    tag_22:\n      tag_23\n      jump\t// in\n    tag_21:\n      mload(0x40)\n      tag_24\n      swap3\n      swap2\n      swap1\n      tag_25\n      jump\t// in\n    tag_24:\n      mload(0x40)\n      dup1\n      swap2\n      sub\n      swap1\n      return\n        /* \"contracts/simplestore.sol\":615:690  function retrive() public view returns (uint){... */\n    tag_7:\n      tag_26\n      tag_27\n      jump\t// in\n    tag_26:\n      mload(0x40)\n      tag_28\n      swap2\n      swap1\n      tag_12\n      jump\t// in\n    tag_28:\n      mload(0x40)\n      dup1\n      swap2\n      sub\n      swap1\n      return\n        /* \"contracts/simplestore.sol\":434:529  function addPerson(uint fav, string  memory naam )public {... */\n    tag_8:\n      tag_29\n      0x04\n      dup1\n      calldatasize\n      sub\n      dup2\n      add\n      swap1\n      tag_30\n      swap2\n      swap1\n      tag_31\n      jump\t// in\n    tag_30:\n      tag_32\n      jump\t// in\n    tag_29:\n      stop\n        /* \"contracts/simplestore.sol\":46:65  uint  public favnum */\n    tag_10:\n      sload(0x00)\n      dup2\n      jump\t// out\n        /* \"contracts/simplestore.sol\":530:609  function getdata() public view returns (People[] memory){... */\n    tag_14:\n        /* \"contracts/simplestore.sol\":570:585  People[] memory */\n      0x60\n        /* \"contracts/simplestore.sol\":600:606  people */\n      0x01\n        /* \"contracts/simplestore.sol\":593:606  return people */\n      dup1\n      sload\n      dup1\n      0x20\n      mul\n      0x20\n      add\n      mload(0x40)\n      swap1\n      dup2\n      add\n      0x40\n      mstore\n      dup1\n      swap3\n      swap2\n      swap1\n      dup2\n      dup2\n      mstore\n      0x20\n      add\n      0x00\n      swap1\n    tag_34:\n      dup3\n      dup3\n      lt\n      iszero\n      tag_35\n      jumpi\n      dup4\n      dup3\n      swap1\n      0x00\n      mstore\n      keccak256(0x00, 0x20)\n      swap1\n      0x02\n      mul\n      add\n      mload(0x40)\n      dup1\n      0x40\n      add\n      0x40\n      mstore\n      swap1\n      dup2\n      0x00\n      dup3\n      add\n      sload\n      dup2\n      mstore\n      0x20\n      add\n      0x01\n      dup3\n      add\n      dup1\n      sload\n      tag_37\n      swap1\n      tag_38\n      jump\t// in\n    tag_37:\n      dup1\n      0x1f\n      add\n      0x20\n      dup1\n      swap2\n      div\n      mul\n      0x20\n      add\n      mload(0x40)\n      swap1\n      dup2\n      add\n      0x40\n      mstore\n      dup1\n      swap3\n      swap2\n      swap1\n      dup2\n      dup2\n      mstore\n      0x20\n      add\n      dup3\n      dup1\n      sload\n      tag_39\n      swap1\n      tag_38\n      jump\t// in\n    tag_39:\n      dup1\n      iszero\n      tag_40\n      jumpi\n      dup1\n      0x1f\n      lt\n      tag_41\n      jumpi\n      0x0100\n      dup1\n      dup4\n      sload\n      div\n      mul\n      dup4\n      mstore\n      swap2\n      0x20\n      add\n      swap2\n      jump(tag_40)\n    tag_41:\n      dup3\n      add\n      swap2\n      swap1\n      0x00\n      mstore\n      keccak256(0x00, 0x20)\n      swap1\n    tag_42:\n      dup2\n      sload\n      dup2\n      mstore\n      swap1\n      0x01\n      add\n      swap1\n      0x20\n      add\n      dup1\n      dup4\n      gt\n      tag_42\n      jumpi\n      dup3\n      swap1\n      sub\n      0x1f\n      and\n      dup3\n      add\n      swap2\n    tag_40:\n      pop\n      pop\n      pop\n      pop\n      pop\n      dup2\n      mstore\n      pop\n      pop\n      dup2\n      mstore\n      0x20\n      add\n      swap1\n      0x01\n      add\n      swap1\n      jump(tag_34)\n    tag_35:\n      pop\n      pop\n      pop\n      pop\n      swap1\n      pop\n        /* \"contracts/simplestore.sol\":530:609  function getdata() public view returns (People[] memory){... */\n      swap1\n      jump\t// out\n        /* \"contracts/simplestore.sol\":72:134  function storing(uint fav) public{... */\n    tag_20:\n        /* \"contracts/simplestore.sol\":124:127  fav */\n      dup1\n        /* \"contracts/simplestore.sol\":115:121  favnum */\n      0x00\n        /* \"contracts/simplestore.sol\":115:127  favnum = fav */\n      dup2\n      swap1\n      sstore\n      pop\n        /* \"contracts/simplestore.sol\":72:134  function storing(uint fav) public{... */\n      pop\n      jump\t// out\n        /* \"contracts/simplestore.sol\":280:302  People[] public people */\n    tag_23:\n      0x01\n      dup2\n      dup2\n      sload\n      dup2\n      lt\n      tag_44\n      jumpi\n      0x00\n      dup1\n      revert\n    tag_44:\n      swap1\n      0x00\n      mstore\n      keccak256(0x00, 0x20)\n      swap1\n      0x02\n      mul\n      add\n      0x00\n      swap2\n      pop\n      swap1\n      pop\n      dup1\n      0x00\n      add\n      sload\n      swap1\n      dup1\n      0x01\n      add\n      dup1\n      sload\n      tag_46\n      swap1\n      tag_38\n      jump\t// in\n    tag_46:\n      dup1\n      0x1f\n      add\n      0x20\n      dup1\n      swap2\n      div\n      mul\n      0x20\n      add\n      mload(0x40)\n      swap1\n      dup2\n      add\n      0x40\n      mstore\n      dup1\n      swap3\n      swap2\n      swap1\n      dup2\n      dup2\n      mstore\n      0x20\n      add\n      dup3\n      dup1\n      sload\n      tag_47\n      swap1\n      tag_38\n      jump\t// in\n    tag_47:\n      dup1\n      iszero\n      tag_48\n      jumpi\n      dup1\n      0x1f\n      lt\n      tag_49\n      jumpi\n      0x0100\n      dup1\n      dup4\n      sload\n      div\n      mul\n      dup4\n      mstore\n      swap2\n      0x20\n      add\n      swap2\n      jump(tag_48)\n    tag_49:\n      dup3\n      add\n      swap2\n      swap1\n      0x00\n      mstore\n      keccak256(0x00, 0x20)\n      swap1\n    tag_50:\n      dup2\n      sload\n      dup2\n      mstore\n      swap1\n      0x01\n      add\n      swap1\n      0x20\n      add\n      dup1\n      dup4\n      gt\n      tag_50\n      jumpi\n      dup3\n      swap1\n      sub\n      0x1f\n      and\n      dup3\n      add\n      swap2\n    tag_48:\n      pop\n      pop\n      pop\n      pop\n      pop\n      swap1\n      pop\n      dup3\n      jump\t// out\n        /* \"contracts/simplestore.sol\":615:690  function retrive() public view returns (uint){... */\n    tag_27:\n        /* \"contracts/simplestore.sol\":655:659  uint */\n      0x00\n        /* \"contracts/simplestore.sol\":677:683  favnum */\n      dup1\n      sload\n        /* \"contracts/simplestore.sol\":670:683  return favnum */\n      swap1\n      pop\n        /* \"contracts/simplestore.sol\":615:690  function retrive() public view returns (uint){... */\n      swap1\n      jump\t// out\n        /* \"contracts/simplestore.sol\":434:529  function addPerson(uint fav, string  memory naam )public {... */\n    tag_32:\n        /* \"contracts/simplestore.sol\":497:503  people */\n      0x01\n        /* \"contracts/simplestore.sol\":509:525  People(fav,naam) */\n      mload(0x40)\n      dup1\n      0x40\n      add\n      0x40\n      mstore\n      dup1\n        /* \"contracts/simplestore.sol\":516:519  fav */\n      dup5\n        /* \"contracts/simplestore.sol\":509:525  People(fav,naam) */\n      dup2\n      mstore\n      0x20\n      add\n        /* \"contracts/simplestore.sol\":520:524  naam */\n      dup4\n        /* \"contracts/simplestore.sol\":509:525  People(fav,naam) */\n      dup2\n      mstore\n      pop\n        /* \"contracts/simplestore.sol\":497:526  people.push(People(fav,naam)) */\n      swap1\n      dup1\n      0x01\n      dup2\n      sload\n      add\n      dup1\n      dup3\n      sstore\n      dup1\n      swap2\n      pop\n      pop\n      0x01\n      swap1\n      sub\n      swap1\n      0x00\n      mstore\n      keccak256(0x00, 0x20)\n      swap1\n      0x02\n      mul\n      add\n      0x00\n      swap1\n      swap2\n      swap1\n      swap2\n      swap1\n      swap2\n      pop\n      0x00\n      dup3\n      add\n      mload\n      dup2\n      0x00\n      add\n      sstore\n      0x20\n      dup3\n      add\n      mload\n      dup2\n      0x01\n      add\n      swap1\n      dup1\n      mload\n      swap1\n      0x20\n      add\n      swap1\n      tag_54\n      swap3\n      swap2\n      swap1\n      tag_55\n      jump\t// in\n    tag_54:\n      pop\n      pop\n      pop\n        /* \"contracts/simplestore.sol\":434:529  function addPerson(uint fav, string  memory naam )public {... */\n      pop\n      pop\n      jump\t// out\n    tag_55:\n      dup3\n      dup1\n      sload\n      tag_56\n      swap1\n      tag_38\n      jump\t// in\n    tag_56:\n      swap1\n      0x00\n      mstore\n      keccak256(0x00, 0x20)\n      swap1\n      0x1f\n      add\n      0x20\n      swap1\n      div\n      dup2\n      add\n      swap3\n      dup3\n      tag_58\n      jumpi\n      0x00\n      dup6\n      sstore\n      jump(tag_57)\n    tag_58:\n      dup3\n      0x1f\n      lt\n      tag_59\n      jumpi\n      dup1\n      mload\n      not(0xff)\n      and\n      dup4\n      dup1\n      add\n      or\n      dup6\n      sstore\n      jump(tag_57)\n    tag_59:\n      dup3\n      dup1\n      add\n      0x01\n      add\n      dup6\n      sstore\n      dup3\n      iszero\n      tag_57\n      jumpi\n      swap2\n      dup3\n      add\n    tag_60:\n      dup3\n      dup2\n      gt\n      iszero\n      tag_61\n      jumpi\n      dup3\n      mload\n      dup3\n      sstore\n      swap2\n      0x20\n      add\n      swap2\n      swap1\n      0x01\n      add\n      swap1\n      jump(tag_60)\n    tag_61:\n    tag_57:\n      pop\n      swap1\n      pop\n      tag_62\n      swap2\n      swap1\n      tag_63\n      jump\t// in\n    tag_62:\n      pop\n      swap1\n      jump\t// out\n    tag_63:\n    tag_64:\n      dup1\n      dup3\n      gt\n      iszero\n      tag_65\n      jumpi\n      0x00\n      dup2\n      0x00\n      swap1\n      sstore\n      pop\n      0x01\n      add\n      jump(tag_64)\n    tag_65:\n      pop\n      swap1\n      jump\t// out\n        /* \"#utility.yul\":7:351   */\n    tag_67:\n      0x00\n        /* \"#utility.yul\":110:175   */\n      tag_69\n        /* \"#utility.yul\":125:174   */\n      tag_70\n        /* \"#utility.yul\":167:173   */\n      dup5\n        /* \"#utility.yul\":125:174   */\n      tag_71\n      jump\t// in\n    tag_70:\n        /* \"#utility.yul\":110:175   */\n      tag_72\n      jump\t// in\n    tag_69:\n        /* \"#utility.yul\":101:175   */\n      swap1\n      pop\n        /* \"#utility.yul\":198:204   */\n      dup3\n        /* \"#utility.yul\":191:196   */\n      dup2\n        /* \"#utility.yul\":184:205   */\n      mstore\n        /* \"#utility.yul\":236:240   */\n      0x20\n        /* \"#utility.yul\":229:234   */\n      dup2\n        /* \"#utility.yul\":225:241   */\n      add\n        /* \"#utility.yul\":274:277   */\n      dup5\n        /* \"#utility.yul\":265:271   */\n      dup5\n        /* \"#utility.yul\":260:263   */\n      dup5\n        /* \"#utility.yul\":256:272   */\n      add\n        /* \"#utility.yul\":253:278   */\n      gt\n        /* \"#utility.yul\":250:252   */\n      iszero\n      tag_73\n      jumpi\n        /* \"#utility.yul\":291:292   */\n      0x00\n        /* \"#utility.yul\":288:289   */\n      dup1\n        /* \"#utility.yul\":281:293   */\n      revert\n        /* \"#utility.yul\":250:252   */\n    tag_73:\n        /* \"#utility.yul\":304:345   */\n      tag_74\n        /* \"#utility.yul\":338:344   */\n      dup5\n        /* \"#utility.yul\":333:336   */\n      dup3\n        /* \"#utility.yul\":328:331   */\n      dup6\n        /* \"#utility.yul\":304:345   */\n      tag_75\n      jump\t// in\n    tag_74:\n        /* \"#utility.yul\":91:351   */\n      pop\n      swap4\n      swap3\n      pop\n      pop\n      pop\n      jump\t// out\n        /* \"#utility.yul\":371:644   */\n    tag_76:\n      0x00\n        /* \"#utility.yul\":476:479   */\n      dup3\n        /* \"#utility.yul\":469:473   */\n      0x1f\n        /* \"#utility.yul\":461:467   */\n      dup4\n        /* \"#utility.yul\":457:474   */\n      add\n        /* \"#utility.yul\":453:480   */\n      slt\n        /* \"#utility.yul\":443:445   */\n      tag_78\n      jumpi\n        /* \"#utility.yul\":494:495   */\n      0x00\n        /* \"#utility.yul\":491:492   */\n      dup1\n        /* \"#utility.yul\":484:496   */\n      revert\n        /* \"#utility.yul\":443:445   */\n    tag_78:\n        /* \"#utility.yul\":534:540   */\n      dup2\n        /* \"#utility.yul\":521:541   */\n      calldataload\n        /* \"#utility.yul\":559:638   */\n      tag_79\n        /* \"#utility.yul\":634:637   */\n      dup5\n        /* \"#utility.yul\":626:632   */\n      dup3\n        /* \"#utility.yul\":619:623   */\n      0x20\n        /* \"#utility.yul\":611:617   */\n      dup7\n        /* \"#utility.yul\":607:624   */\n      add\n        /* \"#utility.yul\":559:638   */\n      tag_67\n      jump\t// in\n    tag_79:\n        /* \"#utility.yul\":550:638   */\n      swap2\n      pop\n        /* \"#utility.yul\":433:644   */\n      pop\n      swap3\n      swap2\n      pop\n      pop\n      jump\t// out\n        /* \"#utility.yul\":650:789   */\n    tag_80:\n      0x00\n        /* \"#utility.yul\":734:740   */\n      dup2\n        /* \"#utility.yul\":721:741   */\n      calldataload\n        /* \"#utility.yul\":712:741   */\n      swap1\n      pop\n        /* \"#utility.yul\":750:783   */\n      tag_82\n        /* \"#utility.yul\":777:782   */\n      dup2\n        /* \"#utility.yul\":750:783   */\n      tag_83\n      jump\t// in\n    tag_82:\n        /* \"#utility.yul\":702:789   */\n      swap3\n      swap2\n      pop\n      pop\n      jump\t// out\n        /* \"#utility.yul\":795:1057   */\n    tag_19:\n      0x00\n        /* \"#utility.yul\":903:905   */\n      0x20\n        /* \"#utility.yul\":891:900   */\n      dup3\n        /* \"#utility.yul\":882:889   */\n      dup5\n        /* \"#utility.yul\":878:901   */\n      sub\n        /* \"#utility.yul\":874:906   */\n      slt\n        /* \"#utility.yul\":871:873   */\n      iszero\n      tag_85\n      jumpi\n        /* \"#utility.yul\":919:920   */\n      0x00\n        /* \"#utility.yul\":916:917   */\n      dup1\n        /* \"#utility.yul\":909:921   */\n      revert\n        /* \"#utility.yul\":871:873   */\n    tag_85:\n        /* \"#utility.yul\":962:963   */\n      0x00\n        /* \"#utility.yul\":987:1040   */\n      tag_86\n        /* \"#utility.yul\":1032:1039   */\n      dup5\n        /* \"#utility.yul\":1023:1029   */\n      dup3\n        /* \"#utility.yul\":1012:1021   */\n      dup6\n        /* \"#utility.yul\":1008:1030   */\n      add\n        /* \"#utility.yul\":987:1040   */\n      tag_80\n      jump\t// in\n    tag_86:\n        /* \"#utility.yul\":977:1040   */\n      swap2\n      pop\n        /* \"#utility.yul\":933:1050   */\n      pop\n        /* \"#utility.yul\":861:1057   */\n      swap3\n      swap2\n      pop\n      pop\n      jump\t// out\n        /* \"#utility.yul\":1063:1583   */\n    tag_31:\n      0x00\n      dup1\n        /* \"#utility.yul\":1198:1200   */\n      0x40\n        /* \"#utility.yul\":1186:1195   */\n      dup4\n        /* \"#utility.yul\":1177:1184   */\n      dup6\n        /* \"#utility.yul\":1173:1196   */\n      sub\n        /* \"#utility.yul\":1169:1201   */\n      slt\n        /* \"#utility.yul\":1166:1168   */\n      iszero\n      tag_88\n      jumpi\n        /* \"#utility.yul\":1214:1215   */\n      0x00\n        /* \"#utility.yul\":1211:1212   */\n      dup1\n        /* \"#utility.yul\":1204:1216   */\n      revert\n        /* \"#utility.yul\":1166:1168   */\n    tag_88:\n        /* \"#utility.yul\":1257:1258   */\n      0x00\n        /* \"#utility.yul\":1282:1335   */\n      tag_89\n        /* \"#utility.yul\":1327:1334   */\n      dup6\n        /* \"#utility.yul\":1318:1324   */\n      dup3\n        /* \"#utility.yul\":1307:1316   */\n      dup7\n        /* \"#utility.yul\":1303:1325   */\n      add\n        /* \"#utility.yul\":1282:1335   */\n      tag_80\n      jump\t// in\n    tag_89:\n        /* \"#utility.yul\":1272:1335   */\n      swap3\n      pop\n        /* \"#utility.yul\":1228:1345   */\n      pop\n        /* \"#utility.yul\":1412:1414   */\n      0x20\n        /* \"#utility.yul\":1401:1410   */\n      dup4\n        /* \"#utility.yul\":1397:1415   */\n      add\n        /* \"#utility.yul\":1384:1416   */\n      calldataload\n        /* \"#utility.yul\":1443:1461   */\n      0xffffffffffffffff\n        /* \"#utility.yul\":1435:1441   */\n      dup2\n        /* \"#utility.yul\":1432:1462   */\n      gt\n        /* \"#utility.yul\":1429:1431   */\n      iszero\n      tag_90\n      jumpi\n        /* \"#utility.yul\":1475:1476   */\n      0x00\n        /* \"#utility.yul\":1472:1473   */\n      dup1\n        /* \"#utility.yul\":1465:1477   */\n      revert\n        /* \"#utility.yul\":1429:1431   */\n    tag_90:\n        /* \"#utility.yul\":1503:1566   */\n      tag_91\n        /* \"#utility.yul\":1558:1565   */\n      dup6\n        /* \"#utility.yul\":1549:1555   */\n      dup3\n        /* \"#utility.yul\":1538:1547   */\n      dup7\n        /* \"#utility.yul\":1534:1556   */\n      add\n        /* \"#utility.yul\":1503:1566   */\n      tag_76\n      jump\t// in\n    tag_91:\n        /* \"#utility.yul\":1493:1566   */\n      swap2\n      pop\n        /* \"#utility.yul\":1355:1576   */\n      pop\n        /* \"#utility.yul\":1156:1583   */\n      swap3\n      pop\n      swap3\n      swap1\n      pop\n      jump\t// out\n        /* \"#utility.yul\":1589:1833   */\n    tag_92:\n      0x00\n        /* \"#utility.yul\":1737:1827   */\n      tag_94\n        /* \"#utility.yul\":1823:1826   */\n      dup4\n        /* \"#utility.yul\":1815:1821   */\n      dup4\n        /* \"#utility.yul\":1737:1827   */\n      tag_95\n      jump\t// in\n    tag_94:\n        /* \"#utility.yul\":1723:1827   */\n      swap1\n      pop\n        /* \"#utility.yul\":1713:1833   */\n      swap3\n      swap2\n      pop\n      pop\n      jump\t// out\n        /* \"#utility.yul\":1893:2980   */\n    tag_96:\n      0x00\n        /* \"#utility.yul\":2085:2161   */\n      tag_98\n        /* \"#utility.yul\":2155:2160   */\n      dup3\n        /* \"#utility.yul\":2085:2161   */\n      tag_99\n      jump\t// in\n    tag_98:\n        /* \"#utility.yul\":2177:2285   */\n      tag_100\n        /* \"#utility.yul\":2278:2284   */\n      dup2\n        /* \"#utility.yul\":2273:2276   */\n      dup6\n        /* \"#utility.yul\":2177:2285   */\n      tag_101\n      jump\t// in\n    tag_100:\n        /* \"#utility.yul\":2170:2285   */\n      swap4\n      pop\n        /* \"#utility.yul\":2311:2314   */\n      dup4\n        /* \"#utility.yul\":2356:2360   */\n      0x20\n        /* \"#utility.yul\":2348:2354   */\n      dup3\n        /* \"#utility.yul\":2344:2361   */\n      mul\n        /* \"#utility.yul\":2339:2342   */\n      dup6\n        /* \"#utility.yul\":2335:2362   */\n      add\n        /* \"#utility.yul\":2386:2464   */\n      tag_102\n        /* \"#utility.yul\":2458:2463   */\n      dup6\n        /* \"#utility.yul\":2386:2464   */\n      tag_103\n      jump\t// in\n    tag_102:\n        /* \"#utility.yul\":2487:2494   */\n      dup1\n        /* \"#utility.yul\":2518:2519   */\n      0x00\n        /* \"#utility.yul\":2503:2935   */\n    tag_104:\n        /* \"#utility.yul\":2528:2534   */\n      dup6\n        /* \"#utility.yul\":2525:2526   */\n      dup2\n        /* \"#utility.yul\":2522:2535   */\n      lt\n        /* \"#utility.yul\":2503:2935   */\n      iszero\n      tag_106\n      jumpi\n        /* \"#utility.yul\":2599:2608   */\n      dup5\n        /* \"#utility.yul\":2593:2597   */\n      dup5\n        /* \"#utility.yul\":2589:2609   */\n      sub\n        /* \"#utility.yul\":2584:2587   */\n      dup10\n        /* \"#utility.yul\":2577:2610   */\n      mstore\n        /* \"#utility.yul\":2650:2656   */\n      dup2\n        /* \"#utility.yul\":2644:2657   */\n      mload\n        /* \"#utility.yul\":2678:2786   */\n      tag_107\n        /* \"#utility.yul\":2781:2785   */\n      dup6\n        /* \"#utility.yul\":2766:2779   */\n      dup3\n        /* \"#utility.yul\":2678:2786   */\n      tag_92\n      jump\t// in\n    tag_107:\n        /* \"#utility.yul\":2670:2786   */\n      swap5\n      pop\n        /* \"#utility.yul\":2809:2891   */\n      tag_108\n        /* \"#utility.yul\":2884:2890   */\n      dup4\n        /* \"#utility.yul\":2809:2891   */\n      tag_109\n      jump\t// in\n    tag_108:\n        /* \"#utility.yul\":2799:2891   */\n      swap3\n      pop\n        /* \"#utility.yul\":2920:2924   */\n      0x20\n        /* \"#utility.yul\":2915:2918   */\n      dup11\n        /* \"#utility.yul\":2911:2925   */\n      add\n        /* \"#utility.yul\":2904:2925   */\n      swap10\n      pop\n        /* \"#utility.yul\":2563:2935   */\n      pop\n        /* \"#utility.yul\":2550:2551   */\n      0x01\n        /* \"#utility.yul\":2547:2548   */\n      dup2\n        /* \"#utility.yul\":2543:2552   */\n      add\n        /* \"#utility.yul\":2538:2552   */\n      swap1\n      pop\n        /* \"#utility.yul\":2503:2935   */\n      jump(tag_104)\n    tag_106:\n        /* \"#utility.yul\":2507:2521   */\n      pop\n        /* \"#utility.yul\":2951:2955   */\n      dup3\n        /* \"#utility.yul\":2944:2955   */\n      swap8\n      pop\n        /* \"#utility.yul\":2971:2974   */\n      dup8\n        /* \"#utility.yul\":2964:2974   */\n      swap6\n      pop\n        /* \"#utility.yul\":2061:2980   */\n      pop\n      pop\n      pop\n      pop\n      pop\n      swap3\n      swap2\n      pop\n      pop\n      jump\t// out\n        /* \"#utility.yul\":2986:3330   */\n    tag_110:\n      0x00\n        /* \"#utility.yul\":3092:3131   */\n      tag_112\n        /* \"#utility.yul\":3125:3130   */\n      dup3\n        /* \"#utility.yul\":3092:3131   */\n      tag_113\n      jump\t// in\n    tag_112:\n        /* \"#utility.yul\":3147:3208   */\n      tag_114\n        /* \"#utility.yul\":3201:3207   */\n      dup2\n        /* \"#utility.yul\":3196:3199   */\n      dup6\n        /* \"#utility.yul\":3147:3208   */\n      tag_115\n      jump\t// in\n    tag_114:\n        /* \"#utility.yul\":3140:3208   */\n      swap4\n      pop\n        /* \"#utility.yul\":3217:3269   */\n      tag_116\n        /* \"#utility.yul\":3262:3268   */\n      dup2\n        /* \"#utility.yul\":3257:3260   */\n      dup6\n        /* \"#utility.yul\":3250:3254   */\n      0x20\n        /* \"#utility.yul\":3243:3248   */\n      dup7\n        /* \"#utility.yul\":3239:3255   */\n      add\n        /* \"#utility.yul\":3217:3269   */\n      tag_117\n      jump\t// in\n    tag_116:\n        /* \"#utility.yul\":3294:3323   */\n      tag_118\n        /* \"#utility.yul\":3316:3322   */\n      dup2\n        /* \"#utility.yul\":3294:3323   */\n      tag_119\n      jump\t// in\n    tag_118:\n        /* \"#utility.yul\":3289:3292   */\n      dup5\n        /* \"#utility.yul\":3285:3324   */\n      add\n        /* \"#utility.yul\":3278:3324   */\n      swap2\n      pop\n        /* \"#utility.yul\":3068:3330   */\n      pop\n      swap3\n      swap2\n      pop\n      pop\n      jump\t// out\n        /* \"#utility.yul\":3336:3700   */\n    tag_120:\n      0x00\n        /* \"#utility.yul\":3452:3491   */\n      tag_122\n        /* \"#utility.yul\":3485:3490   */\n      dup3\n        /* \"#utility.yul\":3452:3491   */\n      tag_113\n      jump\t// in\n    tag_122:\n        /* \"#utility.yul\":3507:3578   */\n      tag_123\n        /* \"#utility.yul\":3571:3577   */\n      dup2\n        /* \"#utility.yul\":3566:3569   */\n      dup6\n        /* \"#utility.yul\":3507:3578   */\n      tag_124\n      jump\t// in\n    tag_123:\n        /* \"#utility.yul\":3500:3578   */\n      swap4\n      pop\n        /* \"#utility.yul\":3587:3639   */\n      tag_125\n        /* \"#utility.yul\":3632:3638   */\n      dup2\n        /* \"#utility.yul\":3627:3630   */\n      dup6\n        /* \"#utility.yul\":3620:3624   */\n      0x20\n        /* \"#utility.yul\":3613:3618   */\n      dup7\n        /* \"#utility.yul\":3609:3625   */\n      add\n        /* \"#utility.yul\":3587:3639   */\n      tag_117\n      jump\t// in\n    tag_125:\n        /* \"#utility.yul\":3664:3693   */\n      tag_126\n        /* \"#utility.yul\":3686:3692   */\n      dup2\n        /* \"#utility.yul\":3664:3693   */\n      tag_119\n      jump\t// in\n    tag_126:\n        /* \"#utility.yul\":3659:3662   */\n      dup5\n        /* \"#utility.yul\":3655:3694   */\n      add\n        /* \"#utility.yul\":3648:3694   */\n      swap2\n      pop\n        /* \"#utility.yul\":3428:3700   */\n      pop\n      swap3\n      swap2\n      pop\n      pop\n      jump\t// out\n        /* \"#utility.yul\":3756:4348   */\n    tag_95:\n      0x00\n        /* \"#utility.yul\":3895:3899   */\n      0x40\n        /* \"#utility.yul\":3890:3893   */\n      dup4\n        /* \"#utility.yul\":3886:3900   */\n      add\n        /* \"#utility.yul\":3984:3988   */\n      0x00\n        /* \"#utility.yul\":3977:3982   */\n      dup4\n        /* \"#utility.yul\":3973:3989   */\n      add\n        /* \"#utility.yul\":3967:3990   */\n      mload\n        /* \"#utility.yul\":4003:4066   */\n      tag_128\n        /* \"#utility.yul\":4060:4064   */\n      0x00\n        /* \"#utility.yul\":4055:4058   */\n      dup7\n        /* \"#utility.yul\":4051:4065   */\n      add\n        /* \"#utility.yul\":4037:4049   */\n      dup3\n        /* \"#utility.yul\":4003:4066   */\n      tag_129\n      jump\t// in\n    tag_128:\n        /* \"#utility.yul\":3910:4076   */\n      pop\n        /* \"#utility.yul\":4158:4162   */\n      0x20\n        /* \"#utility.yul\":4151:4156   */\n      dup4\n        /* \"#utility.yul\":4147:4163   */\n      add\n        /* \"#utility.yul\":4141:4164   */\n      mload\n        /* \"#utility.yul\":4211:4214   */\n      dup5\n        /* \"#utility.yul\":4205:4209   */\n      dup3\n        /* \"#utility.yul\":4201:4215   */\n      sub\n        /* \"#utility.yul\":4194:4198   */\n      0x20\n        /* \"#utility.yul\":4189:4192   */\n      dup7\n        /* \"#utility.yul\":4185:4199   */\n      add\n        /* \"#utility.yul\":4178:4216   */\n      mstore\n        /* \"#utility.yul\":4237:4310   */\n      tag_130\n        /* \"#utility.yul\":4305:4309   */\n      dup3\n        /* \"#utility.yul\":4291:4303   */\n      dup3\n        /* \"#utility.yul\":4237:4310   */\n      tag_110\n      jump\t// in\n    tag_130:\n        /* \"#utility.yul\":4229:4310   */\n      swap2\n      pop\n        /* \"#utility.yul\":4086:4321   */\n      pop\n        /* \"#utility.yul\":4338:4342   */\n      dup1\n        /* \"#utility.yul\":4331:4342   */\n      swap2\n      pop\n        /* \"#utility.yul\":3864:4348   */\n      pop\n      swap3\n      swap2\n      pop\n      pop\n      jump\t// out\n        /* \"#utility.yul\":4354:4462   */\n    tag_129:\n        /* \"#utility.yul\":4431:4455   */\n      tag_132\n        /* \"#utility.yul\":4449:4454   */\n      dup2\n        /* \"#utility.yul\":4431:4455   */\n      tag_133\n      jump\t// in\n    tag_132:\n        /* \"#utility.yul\":4426:4429   */\n      dup3\n        /* \"#utility.yul\":4419:4456   */\n      mstore\n        /* \"#utility.yul\":4409:4462   */\n      pop\n      pop\n      jump\t// out\n        /* \"#utility.yul\":4468:4586   */\n    tag_134:\n        /* \"#utility.yul\":4555:4579   */\n      tag_136\n        /* \"#utility.yul\":4573:4578   */\n      dup2\n        /* \"#utility.yul\":4555:4579   */\n      tag_133\n      jump\t// in\n    tag_136:\n        /* \"#utility.yul\":4550:4553   */\n      dup3\n        /* \"#utility.yul\":4543:4580   */\n      mstore\n        /* \"#utility.yul\":4533:4586   */\n      pop\n      pop\n      jump\t// out\n        /* \"#utility.yul\":4592:5053   */\n    tag_16:\n      0x00\n        /* \"#utility.yul\":4817:4819   */\n      0x20\n        /* \"#utility.yul\":4806:4815   */\n      dup3\n        /* \"#utility.yul\":4802:4820   */\n      add\n        /* \"#utility.yul\":4794:4820   */\n      swap1\n      pop\n        /* \"#utility.yul\":4866:4875   */\n      dup2\n        /* \"#utility.yul\":4860:4864   */\n      dup2\n        /* \"#utility.yul\":4856:4876   */\n      sub\n        /* \"#utility.yul\":4852:4853   */\n      0x00\n        /* \"#utility.yul\":4841:4850   */\n      dup4\n        /* \"#utility.yul\":4837:4854   */\n      add\n        /* \"#utility.yul\":4830:4877   */\n      mstore\n        /* \"#utility.yul\":4894:5046   */\n      tag_138\n        /* \"#utility.yul\":5041:5045   */\n      dup2\n        /* \"#utility.yul\":5032:5038   */\n      dup5\n        /* \"#utility.yul\":4894:5046   */\n      tag_96\n      jump\t// in\n    tag_138:\n        /* \"#utility.yul\":4886:5046   */\n      swap1\n      pop\n        /* \"#utility.yul\":4784:5053   */\n      swap3\n      swap2\n      pop\n      pop\n      jump\t// out\n        /* \"#utility.yul\":5059:5281   */\n    tag_12:\n      0x00\n        /* \"#utility.yul\":5190:5192   */\n      0x20\n        /* \"#utility.yul\":5179:5188   */\n      dup3\n        /* \"#utility.yul\":5175:5193   */\n      add\n        /* \"#utility.yul\":5167:5193   */\n      swap1\n      pop\n        /* \"#utility.yul\":5203:5274   */\n      tag_140\n        /* \"#utility.yul\":5271:5272   */\n      0x00\n        /* \"#utility.yul\":5260:5269   */\n      dup4\n        /* \"#utility.yul\":5256:5273   */\n      add\n        /* \"#utility.yul\":5247:5253   */\n      dup5\n        /* \"#utility.yul\":5203:5274   */\n      tag_134\n      jump\t// in\n    tag_140:\n        /* \"#utility.yul\":5157:5281   */\n      swap3\n      swap2\n      pop\n      pop\n      jump\t// out\n        /* \"#utility.yul\":5287:5710   */\n    tag_25:\n      0x00\n        /* \"#utility.yul\":5466:5468   */\n      0x40\n        /* \"#utility.yul\":5455:5464   */\n      dup3\n        /* \"#utility.yul\":5451:5469   */\n      add\n        /* \"#utility.yul\":5443:5469   */\n      swap1\n      pop\n        /* \"#utility.yul\":5479:5550   */\n      tag_142\n        /* \"#utility.yul\":5547:5548   */\n      0x00\n        /* \"#utility.yul\":5536:5545   */\n      dup4\n        /* \"#utility.yul\":5532:5549   */\n      add\n        /* \"#utility.yul\":5523:5529   */\n      dup6\n        /* \"#utility.yul\":5479:5550   */\n      tag_134\n      jump\t// in\n    tag_142:\n        /* \"#utility.yul\":5597:5606   */\n      dup2\n        /* \"#utility.yul\":5591:5595   */\n      dup2\n        /* \"#utility.yul\":5587:5607   */\n      sub\n        /* \"#utility.yul\":5582:5584   */\n      0x20\n        /* \"#utility.yul\":5571:5580   */\n      dup4\n        /* \"#utility.yul\":5567:5585   */\n      add\n        /* \"#utility.yul\":5560:5608   */\n      mstore\n        /* \"#utility.yul\":5625:5703   */\n      tag_143\n        /* \"#utility.yul\":5698:5702   */\n      dup2\n        /* \"#utility.yul\":5689:5695   */\n      dup5\n        /* \"#utility.yul\":5625:5703   */\n      tag_120\n      jump\t// in\n    tag_143:\n        /* \"#utility.yul\":5617:5703   */\n      swap1\n      pop\n        /* \"#utility.yul\":5433:5710   */\n      swap4\n      swap3\n      pop\n      pop\n      pop\n      jump\t// out\n        /* \"#utility.yul\":5716:5999   */\n    tag_72:\n      0x00\n        /* \"#utility.yul\":5782:5784   */\n      0x40\n        /* \"#utility.yul\":5776:5785   */\n      mload\n        /* \"#utility.yul\":5766:5785   */\n      swap1\n      pop\n        /* \"#utility.yul\":5824:5828   */\n      dup2\n        /* \"#utility.yul\":5816:5822   */\n      dup2\n        /* \"#utility.yul\":5812:5829   */\n      add\n        /* \"#utility.yul\":5931:5937   */\n      dup2\n        /* \"#utility.yul\":5919:5929   */\n      dup2\n        /* \"#utility.yul\":5916:5938   */\n      lt\n        /* \"#utility.yul\":5895:5913   */\n      0xffffffffffffffff\n        /* \"#utility.yul\":5883:5893   */\n      dup3\n        /* \"#utility.yul\":5880:5914   */\n      gt\n        /* \"#utility.yul\":5877:5939   */\n      or\n        /* \"#utility.yul\":5874:5876   */\n      iszero\n      tag_145\n      jumpi\n        /* \"#utility.yul\":5942:5960   */\n      tag_146\n      tag_147\n      jump\t// in\n    tag_146:\n        /* \"#utility.yul\":5874:5876   */\n    tag_145:\n        /* \"#utility.yul\":5982:5992   */\n      dup1\n        /* \"#utility.yul\":5978:5980   */\n      0x40\n        /* \"#utility.yul\":5971:5993   */\n      mstore\n        /* \"#utility.yul\":5756:5999   */\n      pop\n      swap2\n      swap1\n      pop\n      jump\t// out\n        /* \"#utility.yul\":6005:6337   */\n    tag_71:\n      0x00\n        /* \"#utility.yul\":6157:6175   */\n      0xffffffffffffffff\n        /* \"#utility.yul\":6149:6155   */\n      dup3\n        /* \"#utility.yul\":6146:6176   */\n      gt\n        /* \"#utility.yul\":6143:6145   */\n      iszero\n      tag_149\n      jumpi\n        /* \"#utility.yul\":6179:6197   */\n      tag_150\n      tag_147\n      jump\t// in\n    tag_150:\n        /* \"#utility.yul\":6143:6145   */\n    tag_149:\n        /* \"#utility.yul\":6264:6268   */\n      0x1f\n        /* \"#utility.yul\":6260:6269   */\n      not\n        /* \"#utility.yul\":6253:6257   */\n      0x1f\n        /* \"#utility.yul\":6245:6251   */\n      dup4\n        /* \"#utility.yul\":6241:6258   */\n      add\n        /* \"#utility.yul\":6237:6270   */\n      and\n        /* \"#utility.yul\":6229:6270   */\n      swap1\n      pop\n        /* \"#utility.yul\":6325:6329   */\n      0x20\n        /* \"#utility.yul\":6319:6323   */\n      dup2\n        /* \"#utility.yul\":6315:6330   */\n      add\n        /* \"#utility.yul\":6307:6330   */\n      swap1\n      pop\n        /* \"#utility.yul\":6072:6337   */\n      swap2\n      swap1\n      pop\n      jump\t// out\n        /* \"#utility.yul\":6343:6497   */\n    tag_103:\n      0x00\n        /* \"#utility.yul\":6455:6458   */\n      dup2\n        /* \"#utility.yul\":6447:6458   */\n      swap1\n      pop\n        /* \"#utility.yul\":6485:6489   */\n      0x20\n        /* \"#utility.yul\":6480:6483   */\n      dup3\n        /* \"#utility.yul\":6476:6490   */\n      add\n        /* \"#utility.yul\":6468:6490   */\n      swap1\n      pop\n        /* \"#utility.yul\":6437:6497   */\n      swap2\n      swap1\n      pop\n      jump\t// out\n        /* \"#utility.yul\":6503:6639   */\n    tag_99:\n      0x00\n        /* \"#utility.yul\":6626:6631   */\n      dup2\n        /* \"#utility.yul\":6620:6632   */\n      mload\n        /* \"#utility.yul\":6610:6632   */\n      swap1\n      pop\n        /* \"#utility.yul\":6599:6639   */\n      swap2\n      swap1\n      pop\n      jump\t// out\n        /* \"#utility.yul\":6645:6744   */\n    tag_113:\n      0x00\n        /* \"#utility.yul\":6731:6736   */\n      dup2\n        /* \"#utility.yul\":6725:6737   */\n      mload\n        /* \"#utility.yul\":6715:6737   */\n      swap1\n      pop\n        /* \"#utility.yul\":6704:6744   */\n      swap2\n      swap1\n      pop\n      jump\t// out\n        /* \"#utility.yul\":6750:6885   */\n    tag_109:\n      0x00\n        /* \"#utility.yul\":6874:6878   */\n      0x20\n        /* \"#utility.yul\":6869:6872   */\n      dup3\n        /* \"#utility.yul\":6865:6879   */\n      add\n        /* \"#utility.yul\":6857:6879   */\n      swap1\n      pop\n        /* \"#utility.yul\":6847:6885   */\n      swap2\n      swap1\n      pop\n      jump\t// out\n        /* \"#utility.yul\":6891:7097   */\n    tag_101:\n      0x00\n        /* \"#utility.yul\":7046:7052   */\n      dup3\n        /* \"#utility.yul\":7041:7044   */\n      dup3\n        /* \"#utility.yul\":7034:7053   */\n      mstore\n        /* \"#utility.yul\":7086:7090   */\n      0x20\n        /* \"#utility.yul\":7081:7084   */\n      dup3\n        /* \"#utility.yul\":7077:7091   */\n      add\n        /* \"#utility.yul\":7062:7091   */\n      swap1\n      pop\n        /* \"#utility.yul\":7024:7097   */\n      swap3\n      swap2\n      pop\n      pop\n      jump\t// out\n        /* \"#utility.yul\":7103:7262   */\n    tag_115:\n      0x00\n        /* \"#utility.yul\":7211:7217   */\n      dup3\n        /* \"#utility.yul\":7206:7209   */\n      dup3\n        /* \"#utility.yul\":7199:7218   */\n      mstore\n        /* \"#utility.yul\":7251:7255   */\n      0x20\n        /* \"#utility.yul\":7246:7249   */\n      dup3\n        /* \"#utility.yul\":7242:7256   */\n      add\n        /* \"#utility.yul\":7227:7256   */\n      swap1\n      pop\n        /* \"#utility.yul\":7189:7262   */\n      swap3\n      swap2\n      pop\n      pop\n      jump\t// out\n        /* \"#utility.yul\":7268:7437   */\n    tag_124:\n      0x00\n        /* \"#utility.yul\":7386:7392   */\n      dup3\n        /* \"#utility.yul\":7381:7384   */\n      dup3\n        /* \"#utility.yul\":7374:7393   */\n      mstore\n        /* \"#utility.yul\":7426:7430   */\n      0x20\n        /* \"#utility.yul\":7421:7424   */\n      dup3\n        /* \"#utility.yul\":7417:7431   */\n      add\n        /* \"#utility.yul\":7402:7431   */\n      swap1\n      pop\n        /* \"#utility.yul\":7364:7437   */\n      swap3\n      swap2\n      pop\n      pop\n      jump\t// out\n        /* \"#utility.yul\":7443:7520   */\n    tag_133:\n      0x00\n        /* \"#utility.yul\":7509:7514   */\n      dup2\n        /* \"#utility.yul\":7498:7514   */\n      swap1\n      pop\n        /* \"#utility.yul\":7488:7520   */\n      swap2\n      swap1\n      pop\n      jump\t// out\n        /* \"#utility.yul\":7526:7680   */\n    tag_75:\n        /* \"#utility.yul\":7610:7616   */\n      dup3\n        /* \"#utility.yul\":7605:7608   */\n      dup2\n        /* \"#utility.yul\":7600:7603   */\n      dup4\n        /* \"#utility.yul\":7587:7617   */\n      calldatacopy\n        /* \"#utility.yul\":7672:7673   */\n      0x00\n        /* \"#utility.yul\":7663:7669   */\n      dup4\n        /* \"#utility.yul\":7658:7661   */\n      dup4\n        /* \"#utility.yul\":7654:7670   */\n      add\n        /* \"#utility.yul\":7647:7674   */\n      mstore\n        /* \"#utility.yul\":7577:7680   */\n      pop\n      pop\n      pop\n      jump\t// out\n        /* \"#utility.yul\":7686:7993   */\n    tag_117:\n        /* \"#utility.yul\":7754:7755   */\n      0x00\n        /* \"#utility.yul\":7764:7877   */\n    tag_161:\n        /* \"#utility.yul\":7778:7784   */\n      dup4\n        /* \"#utility.yul\":7775:7776   */\n      dup2\n        /* \"#utility.yul\":7772:7785   */\n      lt\n        /* \"#utility.yul\":7764:7877   */\n      iszero\n      tag_163\n      jumpi\n        /* \"#utility.yul\":7863:7864   */\n      dup1\n        /* \"#utility.yul\":7858:7861   */\n      dup3\n        /* \"#utility.yul\":7854:7865   */\n      add\n        /* \"#utility.yul\":7848:7866   */\n      mload\n        /* \"#utility.yul\":7844:7845   */\n      dup2\n        /* \"#utility.yul\":7839:7842   */\n      dup5\n        /* \"#utility.yul\":7835:7846   */\n      add\n        /* \"#utility.yul\":7828:7867   */\n      mstore\n        /* \"#utility.yul\":7800:7802   */\n      0x20\n        /* \"#utility.yul\":7797:7798   */\n      dup2\n        /* \"#utility.yul\":7793:7803   */\n      add\n        /* \"#utility.yul\":7788:7803   */\n      swap1\n      pop\n        /* \"#utility.yul\":7764:7877   */\n      jump(tag_161)\n    tag_163:\n        /* \"#utility.yul\":7895:7901   */\n      dup4\n        /* \"#utility.yul\":7892:7893   */\n      dup2\n        /* \"#utility.yul\":7889:7902   */\n      gt\n        /* \"#utility.yul\":7886:7888   */\n      iszero\n      tag_164\n      jumpi\n        /* \"#utility.yul\":7975:7976   */\n      0x00\n        /* \"#utility.yul\":7966:7972   */\n      dup5\n        /* \"#utility.yul\":7961:7964   */\n      dup5\n        /* \"#utility.yul\":7957:7973   */\n      add\n        /* \"#utility.yul\":7950:7977   */\n      mstore\n        /* \"#utility.yul\":7886:7888   */\n    tag_164:\n        /* \"#utility.yul\":7735:7993   */\n      pop\n      pop\n      pop\n      pop\n      jump\t// out\n        /* \"#utility.yul\":7999:8319   */\n    tag_38:\n      0x00\n        /* \"#utility.yul\":8080:8081   */\n      0x02\n        /* \"#utility.yul\":8074:8078   */\n      dup3\n        /* \"#utility.yul\":8070:8082   */\n      div\n        /* \"#utility.yul\":8060:8082   */\n      swap1\n      pop\n        /* \"#utility.yul\":8127:8128   */\n      0x01\n        /* \"#utility.yul\":8121:8125   */\n      dup3\n        /* \"#utility.yul\":8117:8129   */\n      and\n        /* \"#utility.yul\":8148:8166   */\n      dup1\n        /* \"#utility.yul\":8138:8140   */\n      tag_166\n      jumpi\n        /* \"#utility.yul\":8204:8208   */\n      0x7f\n        /* \"#utility.yul\":8196:8202   */\n      dup3\n        /* \"#utility.yul\":8192:8209   */\n      and\n        /* \"#utility.yul\":8182:8209   */\n      swap2\n      pop\n        /* \"#utility.yul\":8138:8140   */\n    tag_166:\n        /* \"#utility.yul\":8266:8268   */\n      0x20\n        /* \"#utility.yul\":8258:8264   */\n      dup3\n        /* \"#utility.yul\":8255:8269   */\n      lt\n        /* \"#utility.yul\":8235:8253   */\n      dup2\n        /* \"#utility.yul\":8232:8270   */\n      eq\n        /* \"#utility.yul\":8229:8231   */\n      iszero\n      tag_167\n      jumpi\n        /* \"#utility.yul\":8285:8303   */\n      tag_168\n      tag_169\n      jump\t// in\n    tag_168:\n        /* \"#utility.yul\":8229:8231   */\n    tag_167:\n        /* \"#utility.yul\":8050:8319   */\n      pop\n      swap2\n      swap1\n      pop\n      jump\t// out\n        /* \"#utility.yul\":8325:8505   */\n    tag_169:\n        /* \"#utility.yul\":8373:8450   */\n      0x4e487b7100000000000000000000000000000000000000000000000000000000\n        /* \"#utility.yul\":8370:8371   */\n      0x00\n        /* \"#utility.yul\":8363:8451   */\n      mstore\n        /* \"#utility.yul\":8470:8474   */\n      0x22\n        /* \"#utility.yul\":8467:8468   */\n      0x04\n        /* \"#utility.yul\":8460:8475   */\n      mstore\n        /* \"#utility.yul\":8494:8498   */\n      0x24\n        /* \"#utility.yul\":8491:8492   */\n      0x00\n        /* \"#utility.yul\":8484:8499   */\n      revert\n        /* \"#utility.yul\":8511:8691   */\n    tag_147:\n        /* \"#utility.yul\":8559:8636   */\n      0x4e487b7100000000000000000000000000000000000000000000000000000000\n        /* \"#utility.yul\":8556:8557   */\n      0x00\n        /* \"#utility.yul\":8549:8637   */\n      mstore\n        /* \"#utility.yul\":8656:8660   */\n      0x41\n        /* \"#utility.yul\":8653:8654   */\n      0x04\n        /* \"#utility.yul\":8646:8661   */\n      mstore\n        /* \"#utility.yul\":8680:8684   */\n      0x24\n        /* \"#utility.yul\":8677:8678   */\n      0x00\n        /* \"#utility.yul\":8670:8685   */\n      revert\n        /* \"#utility.yul\":8697:8799   */\n    tag_119:\n      0x00\n        /* \"#utility.yul\":8789:8791   */\n      0x1f\n        /* \"#utility.yul\":8785:8792   */\n      not\n        /* \"#utility.yul\":8780:8782   */\n      0x1f\n        /* \"#utility.yul\":8773:8778   */\n      dup4\n        /* \"#utility.yul\":8769:8783   */\n      add\n        /* \"#utility.yul\":8765:8793   */\n      and\n        /* \"#utility.yul\":8755:8793   */\n      swap1\n      pop\n        /* \"#utility.yul\":8745:8799   */\n      swap2\n      swap1\n      pop\n      jump\t// out\n        /* \"#utility.yul\":8805:8927   */\n    tag_83:\n        /* \"#utility.yul\":8878:8902   */\n      tag_174\n        /* \"#utility.yul\":8896:8901   */\n      dup2\n        /* \"#utility.yul\":8878:8902   */\n      tag_133\n      jump\t// in\n    tag_174:\n        /* \"#utility.yul\":8871:8876   */\n      dup2\n        /* \"#utility.yul\":8868:8903   */\n      eq\n        /* \"#utility.yul\":8858:8860   */\n      tag_175\n      jumpi\n        /* \"#utility.yul\":8917:8918   */\n      0x00\n        /* \"#utility.yul\":8914:8915   */\n      dup1\n        /* \"#utility.yul\":8907:8919   */\n      revert\n        /* \"#utility.yul\":8858:8860   */\n    tag_175:\n        /* \"#utility.yul\":8848:8927   */\n      pop\n      jump\t// out\n\n    auxdata: 0xa2646970667358221220dc397f57b98473e91df1b0a0193477e951dfbc3b511635b5173249d43b9a6f5764736f6c63430008000033\n}\n",
				"bytecode": {
					"linkReferences": {},
					"object": "608060405234801561001057600080fd5b506108c8806100206000396000f3fe608060405234801561001057600080fd5b50600436106100625760003560e01c806319908de0146100675780634fa10cfc146100855780637b683a74146100a35780639e7a13ad146100bf578063a6b7fc5b146100f0578063bc832d4e1461010e575b600080fd5b61006f61012a565b60405161007c919061067c565b60405180910390f35b61008d610130565b60405161009a919061065a565b60405180910390f35b6100bd60048036038101906100b89190610487565b61022b565b005b6100d960048036038101906100d49190610487565b610235565b6040516100e7929190610697565b60405180910390f35b6100f86102f1565b604051610105919061067c565b60405180910390f35b610128600480360381019061012391906104b0565b6102fa565b005b60005481565b60606001805480602002602001604051908101604052809291908181526020016000905b82821015610222578382906000526020600020906002020160405180604001604052908160008201548152602001600182018054610191906107da565b80601f01602080910402602001604051908101604052809291908181526020018280546101bd906107da565b801561020a5780601f106101df5761010080835404028352916020019161020a565b820191906000526020600020905b8154815290600101906020018083116101ed57829003601f168201915b50505050508152505081526020019060010190610154565b50505050905090565b8060008190555050565b6001818154811061024557600080fd5b906000526020600020906002020160009150905080600001549080600101805461026e906107da565b80601f016020809104026020016040519081016040528092919081815260200182805461029a906107da565b80156102e75780601f106102bc576101008083540402835291602001916102e7565b820191906000526020600020905b8154815290600101906020018083116102ca57829003601f168201915b5050505050905082565b60008054905090565b60016040518060400160405280848152602001838152509080600181540180825580915050600190039060005260206000209060020201600090919091909150600082015181600001556020820151816001019080519060200190610360929190610367565b5050505050565b828054610373906107da565b90600052602060002090601f01602090048101928261039557600085556103dc565b82601f106103ae57805160ff19168380011785556103dc565b828001600101855582156103dc579182015b828111156103db5782518255916020019190600101906103c0565b5b5090506103e991906103ed565b5090565b5b808211156104065760008160009055506001016103ee565b5090565b600061041d610418846106f8565b6106c7565b90508281526020810184848401111561043557600080fd5b610440848285610798565b509392505050565b600082601f83011261045957600080fd5b813561046984826020860161040a565b91505092915050565b6000813590506104818161087b565b92915050565b60006020828403121561049957600080fd5b60006104a784828501610472565b91505092915050565b600080604083850312156104c357600080fd5b60006104d185828601610472565b925050602083013567ffffffffffffffff8111156104ee57600080fd5b6104fa85828601610448565b9150509250929050565b600061051083836105ff565b905092915050565b600061052382610738565b61052d818561075b565b93508360208202850161053f85610728565b8060005b8581101561057b578484038952815161055c8582610504565b94506105678361074e565b925060208a01995050600181019050610543565b50829750879550505050505092915050565b600061059882610743565b6105a2818561076c565b93506105b28185602086016107a7565b6105bb8161086a565b840191505092915050565b60006105d182610743565b6105db818561077d565b93506105eb8185602086016107a7565b6105f48161086a565b840191505092915050565b6000604083016000830151610617600086018261063c565b506020830151848203602086015261062f828261058d565b9150508091505092915050565b6106458161078e565b82525050565b6106548161078e565b82525050565b600060208201905081810360008301526106748184610518565b905092915050565b6000602082019050610691600083018461064b565b92915050565b60006040820190506106ac600083018561064b565b81810360208301526106be81846105c6565b90509392505050565b6000604051905081810181811067ffffffffffffffff821117156106ee576106ed61083b565b5b8060405250919050565b600067ffffffffffffffff8211156107135761071261083b565b5b601f19601f8301169050602081019050919050565b6000819050602082019050919050565b600081519050919050565b600081519050919050565b6000602082019050919050565b600082825260208201905092915050565b600082825260208201905092915050565b600082825260208201905092915050565b6000819050919050565b82818337600083830152505050565b60005b838110156107c55780820151818401526020810190506107aa565b838111156107d4576000848401525b50505050565b600060028204905060018216806107f257607f821691505b602082108114156108065761080561080c565b5b50919050565b7f4e487b7100000000000000000000000000000000000000000000000000000000600052602260045260246000fd5b7f4e487b7100000000000000000000000000000000000000000000000000000000600052604160045260246000fd5b6000601f19601f8301169050919050565b6108848161078e565b811461088f57600080fd5b5056fea2646970667358221220dc397f57b98473e91df1b0a0193477e951dfbc3b511635b5173249d43b9a6f5764736f6c63430008000033",
					"opcodes": "PUSH1 0x80 PUSH1 0x40 MSTORE CALLVALUE DUP1 ISZERO PUSH2 0x10 JUMPI PUSH1 0x0 DUP1 REVERT JUMPDEST POP PUSH2 0x8C8 DUP1 PUSH2 0x20 PUSH1 0x0 CODECOPY PUSH1 0x0 RETURN INVALID PUSH1 0x80 PUSH1 0x40 MSTORE CALLVALUE DUP1 ISZERO PUSH2 0x10 JUMPI PUSH1 0x0 DUP1 REVERT JUMPDEST POP PUSH1 0x4 CALLDATASIZE LT PUSH2 0x62 JUMPI PUSH1 0x0 CALLDATALOAD PUSH1 0xE0 SHR DUP1 PUSH4 0x19908DE0 EQ PUSH2 0x67 JUMPI DUP1 PUSH4 0x4FA10CFC EQ PUSH2 0x85 JUMPI DUP1 PUSH4 0x7B683A74 EQ PUSH2 0xA3 JUMPI DUP1 PUSH4 0x9E7A13AD EQ PUSH2 0xBF JUMPI DUP1 PUSH4 0xA6B7FC5B EQ PUSH2 0xF0 JUMPI DUP1 PUSH4 0xBC832D4E EQ PUSH2 0x10E JUMPI JUMPDEST PUSH1 0x0 DUP1 REVERT JUMPDEST PUSH2 0x6F PUSH2 0x12A JUMP JUMPDEST PUSH1 0x40 MLOAD PUSH2 0x7C SWAP2 SWAP1 PUSH2 0x67C JUMP JUMPDEST PUSH1 0x40 MLOAD DUP1 SWAP2 SUB SWAP1 RETURN JUMPDEST PUSH2 0x8D PUSH2 0x130 JUMP JUMPDEST PUSH1 0x40 MLOAD PUSH2 0x9A SWAP2 SWAP1 PUSH2 0x65A JUMP JUMPDEST PUSH1 0x40 MLOAD DUP1 SWAP2 SUB SWAP1 RETURN JUMPDEST PUSH2 0xBD PUSH1 0x4 DUP1 CALLDATASIZE SUB DUP2 ADD SWAP1 PUSH2 0xB8 SWAP2 SWAP1 PUSH2 0x487 JUMP JUMPDEST PUSH2 0x22B JUMP JUMPDEST STOP JUMPDEST PUSH2 0xD9 PUSH1 0x4 DUP1 CALLDATASIZE SUB DUP2 ADD SWAP1 PUSH2 0xD4 SWAP2 SWAP1 PUSH2 0x487 JUMP JUMPDEST PUSH2 0x235 JUMP JUMPDEST PUSH1 0x40 MLOAD PUSH2 0xE7 SWAP3 SWAP2 SWAP1 PUSH2 0x697 JUMP JUMPDEST PUSH1 0x40 MLOAD DUP1 SWAP2 SUB SWAP1 RETURN JUMPDEST PUSH2 0xF8 PUSH2 0x2F1 JUMP JUMPDEST PUSH1 0x40 MLOAD PUSH2 0x105 SWAP2 SWAP1 PUSH2 0x67C JUMP JUMPDEST PUSH1 0x40 MLOAD DUP1 SWAP2 SUB SWAP1 RETURN JUMPDEST PUSH2 0x128 PUSH1 0x4 DUP1 CALLDATASIZE SUB DUP2 ADD SWAP1 PUSH2 0x123 SWAP2 SWAP1 PUSH2 0x4B0 JUMP JUMPDEST PUSH2 0x2FA JUMP JUMPDEST STOP JUMPDEST PUSH1 0x0 SLOAD DUP2 JUMP JUMPDEST PUSH1 0x60 PUSH1 0x1 DUP1 SLOAD DUP1 PUSH1 0x20 MUL PUSH1 0x20 ADD PUSH1 0x40 MLOAD SWAP1 DUP2 ADD PUSH1 0x40 MSTORE DUP1 SWAP3 SWAP2 SWAP1 DUP2 DUP2 MSTORE PUSH1 0x20 ADD PUSH1 0x0 SWAP1 JUMPDEST DUP3 DUP3 LT ISZERO PUSH2 0x222 JUMPI DUP4 DUP3 SWAP1 PUSH1 0x0 MSTORE PUSH1 0x20 PUSH1 0x0 KECCAK256 SWAP1 PUSH1 0x2 MUL ADD PUSH1 0x40 MLOAD DUP1 PUSH1 0x40 ADD PUSH1 0x40 MSTORE SWAP1 DUP2 PUSH1 0x0 DUP3 ADD SLOAD DUP2 MSTORE PUSH1 0x20 ADD PUSH1 0x1 DUP3 ADD DUP1 SLOAD PUSH2 0x191 SWAP1 PUSH2 0x7DA JUMP JUMPDEST DUP1 PUSH1 0x1F ADD PUSH1 0x20 DUP1 SWAP2 DIV MUL PUSH1 0x20 ADD PUSH1 0x40 MLOAD SWAP1 DUP2 ADD PUSH1 0x40 MSTORE DUP1 SWAP3 SWAP2 SWAP1 DUP2 DUP2 MSTORE PUSH1 0x20 ADD DUP3 DUP1 SLOAD PUSH2 0x1BD SWAP1 PUSH2 0x7DA JUMP JUMPDEST DUP1 ISZERO PUSH2 0x20A JUMPI DUP1 PUSH1 0x1F LT PUSH2 0x1DF JUMPI PUSH2 0x100 DUP1 DUP4 SLOAD DIV MUL DUP4 MSTORE SWAP2 PUSH1 0x20 ADD SWAP2 PUSH2 0x20A JUMP JUMPDEST DUP3 ADD SWAP2 SWAP1 PUSH1 0x0 MSTORE PUSH1 0x20 PUSH1 0x0 KECCAK256 SWAP1 JUMPDEST DUP2 SLOAD DUP2 MSTORE SWAP1 PUSH1 0x1 ADD SWAP1 PUSH1 0x20 ADD DUP1 DUP4 GT PUSH2 0x1ED JUMPI DUP3 SWAP1 SUB PUSH1 0x1F AND DUP3 ADD SWAP2 JUMPDEST POP POP POP POP POP DUP2 MSTORE POP POP DUP2 MSTORE PUSH1 0x20 ADD SWAP1 PUSH1 0x1 ADD SWAP1 PUSH2 0x154 JUMP JUMPDEST POP POP POP POP SWAP1 POP SWAP1 JUMP JUMPDEST DUP1 PUSH1 0x0 DUP2 SWAP1 SSTORE POP POP JUMP JUMPDEST PUSH1 0x1 DUP2 DUP2 SLOAD DUP2 LT PUSH2 0x245 JUMPI PUSH1 0x0 DUP1 REVERT JUMPDEST SWAP1 PUSH1 0x0 MSTORE PUSH1 0x20 PUSH1 0x0 KECCAK256 SWAP1 PUSH1 0x2 MUL ADD PUSH1 0x0 SWAP2 POP SWAP1 POP DUP1 PUSH1 0x0 ADD SLOAD SWAP1 DUP1 PUSH1 0x1 ADD DUP1 SLOAD PUSH2 0x26E SWAP1 PUSH2 0x7DA JUMP JUMPDEST DUP1 PUSH1 0x1F ADD PUSH1 0x20 DUP1 SWAP2 DIV MUL PUSH1 0x20 ADD PUSH1 0x40 MLOAD SWAP1 DUP2 ADD PUSH1 0x40 MSTORE DUP1 SWAP3 SWAP2 SWAP1 DUP2 DUP2 MSTORE PUSH1 0x20 ADD DUP3 DUP1 SLOAD PUSH2 0x29A SWAP1 PUSH2 0x7DA JUMP JUMPDEST DUP1 ISZERO PUSH2 0x2E7 JUMPI DUP1 PUSH1 0x1F LT PUSH2 0x2BC JUMPI PUSH2 0x100 DUP1 DUP4 SLOAD DIV MUL DUP4 MSTORE SWAP2 PUSH1 0x20 ADD SWAP2 PUSH2 0x2E7 JUMP JUMPDEST DUP3 ADD SWAP2 SWAP1 PUSH1 0x0 MSTORE PUSH1 0x20 PUSH1 0x0 KECCAK256 SWAP1 JUMPDEST DUP2 SLOAD DUP2 MSTORE SWAP1 PUSH1 0x1 ADD SWAP1 PUSH1 0x20 ADD DUP1 DUP4 GT PUSH2 0x2CA JUMPI DUP3 SWAP1 SUB PUSH1 0x1F AND DUP3 ADD SWAP2 JUMPDEST POP POP POP POP POP SWAP1 POP DUP3 JUMP JUMPDEST PUSH1 0x0 DUP1 SLOAD SWAP1 POP SWAP1 JUMP JUMPDEST PUSH1 0x1 PUSH1 0x40 MLOAD DUP1 PUSH1 0x40 ADD PUSH1 0x40 MSTORE DUP1 DUP5 DUP2 MSTORE PUSH1 0x20 ADD DUP4 DUP2 MSTORE POP SWAP1 DUP1 PUSH1 0x1 DUP2 SLOAD ADD DUP1 DUP3 SSTORE DUP1 SWAP2 POP POP PUSH1 0x1 SWAP1 SUB SWAP1 PUSH1 0x0 MSTORE PUSH1 0x20 PUSH1 0x0 KECCAK256 SWAP1 PUSH1 0x2 MUL ADD PUSH1 0x0 SWAP1 SWAP2 SWAP1 SWAP2 SWAP1 SWAP2 POP PUSH1 0x0 DUP3 ADD MLOAD DUP2 PUSH1 0x0 ADD SSTORE PUSH1 0x20 DUP3 ADD MLOAD DUP2 PUSH1 0x1 ADD SWAP1 DUP1 MLOAD SWAP1 PUSH1 0x20 ADD SWAP1 PUSH2 0x360 SWAP3 SWAP2 SWAP1 PUSH2 0x367 JUMP JUMPDEST POP POP POP POP POP JUMP JUMPDEST DUP3 DUP1 SLOAD PUSH2 0x373 SWAP1 PUSH2 0x7DA JUMP JUMPDEST SWAP1 PUSH1 0x0 MSTORE PUSH1 0x20 PUSH1 0x0 KECCAK256 SWAP1 PUSH1 0x1F ADD PUSH1 0x20 SWAP1 DIV DUP2 ADD SWAP3 DUP3 PUSH2 0x395 JUMPI PUSH1 0x0 DUP6 SSTORE PUSH2 0x3DC JUMP JUMPDEST DUP3 PUSH1 0x1F LT PUSH2 0x3AE JUMPI DUP1 MLOAD PUSH1 0xFF NOT AND DUP4 DUP1 ADD OR DUP6 SSTORE PUSH2 0x3DC JUMP JUMPDEST DUP3 DUP1 ADD PUSH1 0x1 ADD DUP6 SSTORE DUP3 ISZERO PUSH2 0x3DC JUMPI SWAP2 DUP3 ADD JUMPDEST DUP3 DUP2 GT ISZERO PUSH2 0x3DB JUMPI DUP3 MLOAD DUP3 SSTORE SWAP2 PUSH1 0x20 ADD SWAP2 SWAP1 PUSH1 0x1 ADD SWAP1 PUSH2 0x3C0 JUMP JUMPDEST JUMPDEST POP SWAP1 POP PUSH2 0x3E9 SWAP2 SWAP1 PUSH2 0x3ED JUMP JUMPDEST POP SWAP1 JUMP JUMPDEST JUMPDEST DUP1 DUP3 GT ISZERO PUSH2 0x406 JUMPI PUSH1 0x0 DUP2 PUSH1 0x0 SWAP1 SSTORE POP PUSH1 0x1 ADD PUSH2 0x3EE JUMP JUMPDEST POP SWAP1 JUMP JUMPDEST PUSH1 0x0 PUSH2 0x41D PUSH2 0x418 DUP5 PUSH2 0x6F8 JUMP JUMPDEST PUSH2 0x6C7 JUMP JUMPDEST SWAP1 POP DUP3 DUP2 MSTORE PUSH1 0x20 DUP2 ADD DUP5 DUP5 DUP5 ADD GT ISZERO PUSH2 0x435 JUMPI PUSH1 0x0 DUP1 REVERT JUMPDEST PUSH2 0x440 DUP5 DUP3 DUP6 PUSH2 0x798 JUMP JUMPDEST POP SWAP4 SWAP3 POP POP POP JUMP JUMPDEST PUSH1 0x0 DUP3 PUSH1 0x1F DUP4 ADD SLT PUSH2 0x459 JUMPI PUSH1 0x0 DUP1 REVERT JUMPDEST DUP2 CALLDATALOAD PUSH2 0x469 DUP5 DUP3 PUSH1 0x20 DUP7 ADD PUSH2 0x40A JUMP JUMPDEST SWAP2 POP POP SWAP3 SWAP2 POP POP JUMP JUMPDEST PUSH1 0x0 DUP2 CALLDATALOAD SWAP1 POP PUSH2 0x481 DUP2 PUSH2 0x87B JUMP JUMPDEST SWAP3 SWAP2 POP POP JUMP JUMPDEST PUSH1 0x0 PUSH1 0x20 DUP3 DUP5 SUB SLT ISZERO PUSH2 0x499 JUMPI PUSH1 0x0 DUP1 REVERT JUMPDEST PUSH1 0x0 PUSH2 0x4A7 DUP5 DUP3 DUP6 ADD PUSH2 0x472 JUMP JUMPDEST SWAP2 POP POP SWAP3 SWAP2 POP POP JUMP JUMPDEST PUSH1 0x0 DUP1 PUSH1 0x40 DUP4 DUP6 SUB SLT ISZERO PUSH2 0x4C3 JUMPI PUSH1 0x0 DUP1 REVERT JUMPDEST PUSH1 0x0 PUSH2 0x4D1 DUP6 DUP3 DUP7 ADD PUSH2 0x472 JUMP JUMPDEST SWAP3 POP POP PUSH1 0x20 DUP4 ADD CALLDATALOAD PUSH8 0xFFFFFFFFFFFFFFFF DUP2 GT ISZERO PUSH2 0x4EE JUMPI PUSH1 0x0 DUP1 REVERT JUMPDEST PUSH2 0x4FA DUP6 DUP3 DUP7 ADD PUSH2 0x448 JUMP JUMPDEST SWAP2 POP POP SWAP3 POP SWAP3 SWAP1 POP JUMP JUMPDEST PUSH1 0x0 PUSH2 0x510 DUP4 DUP4 PUSH2 0x5FF JUMP JUMPDEST SWAP1 POP SWAP3 SWAP2 POP POP JUMP JUMPDEST PUSH1 0x0 PUSH2 0x523 DUP3 PUSH2 0x738 JUMP JUMPDEST PUSH2 0x52D DUP2 DUP6 PUSH2 0x75B JUMP JUMPDEST SWAP4 POP DUP4 PUSH1 0x20 DUP3 MUL DUP6 ADD PUSH2 0x53F DUP6 PUSH2 0x728 JUMP JUMPDEST DUP1 PUSH1 0x0 JUMPDEST DUP6 DUP2 LT ISZERO PUSH2 0x57B JUMPI DUP5 DUP5 SUB DUP10 MSTORE DUP2 MLOAD PUSH2 0x55C DUP6 DUP3 PUSH2 0x504 JUMP JUMPDEST SWAP5 POP PUSH2 0x567 DUP4 PUSH2 0x74E JUMP JUMPDEST SWAP3 POP PUSH1 0x20 DUP11 ADD SWAP10 POP POP PUSH1 0x1 DUP2 ADD SWAP1 POP PUSH2 0x543 JUMP JUMPDEST POP DUP3 SWAP8 POP DUP8 SWAP6 POP POP POP POP POP POP SWAP3 SWAP2 POP POP JUMP JUMPDEST PUSH1 0x0 PUSH2 0x598 DUP3 PUSH2 0x743 JUMP JUMPDEST PUSH2 0x5A2 DUP2 DUP6 PUSH2 0x76C JUMP JUMPDEST SWAP4 POP PUSH2 0x5B2 DUP2 DUP6 PUSH1 0x20 DUP7 ADD PUSH2 0x7A7 JUMP JUMPDEST PUSH2 0x5BB DUP2 PUSH2 0x86A JUMP JUMPDEST DUP5 ADD SWAP2 POP POP SWAP3 SWAP2 POP POP JUMP JUMPDEST PUSH1 0x0 PUSH2 0x5D1 DUP3 PUSH2 0x743 JUMP JUMPDEST PUSH2 0x5DB DUP2 DUP6 PUSH2 0x77D JUMP JUMPDEST SWAP4 POP PUSH2 0x5EB DUP2 DUP6 PUSH1 0x20 DUP7 ADD PUSH2 0x7A7 JUMP JUMPDEST PUSH2 0x5F4 DUP2 PUSH2 0x86A JUMP JUMPDEST DUP5 ADD SWAP2 POP POP SWAP3 SWAP2 POP POP JUMP JUMPDEST PUSH1 0x0 PUSH1 0x40 DUP4 ADD PUSH1 0x0 DUP4 ADD MLOAD PUSH2 0x617 PUSH1 0x0 DUP7 ADD DUP3 PUSH2 0x63C JUMP JUMPDEST POP PUSH1 0x20 DUP4 ADD MLOAD DUP5 DUP3 SUB PUSH1 0x20 DUP7 ADD MSTORE PUSH2 0x62F DUP3 DUP3 PUSH2 0x58D JUMP JUMPDEST SWAP2 POP POP DUP1 SWAP2 POP POP SWAP3 SWAP2 POP POP JUMP JUMPDEST PUSH2 0x645 DUP2 PUSH2 0x78E JUMP JUMPDEST DUP3 MSTORE POP POP JUMP JUMPDEST PUSH2 0x654 DUP2 PUSH2 0x78E JUMP JUMPDEST DUP3 MSTORE POP POP JUMP JUMPDEST PUSH1 0x0 PUSH1 0x20 DUP3 ADD SWAP1 POP DUP2 DUP2 SUB PUSH1 0x0 DUP4 ADD MSTORE PUSH2 0x674 DUP2 DUP5 PUSH2 0x518 JUMP JUMPDEST SWAP1 POP SWAP3 SWAP2 POP POP JUMP JUMPDEST PUSH1 0x0 PUSH1 0x20 DUP3 ADD SWAP1 POP PUSH2 0x691 PUSH1 0x0 DUP4 ADD DUP5 PUSH2 0x64B JUMP JUMPDEST SWAP3 SWAP2 POP POP JUMP JUMPDEST PUSH1 0x0 PUSH1 0x40 DUP3 ADD SWAP1 POP PUSH2 0x6AC PUSH1 0x0 DUP4 ADD DUP6 PUSH2 0x64B JUMP JUMPDEST DUP2 DUP2 SUB PUSH1 0x20 DUP4 ADD MSTORE PUSH2 0x6BE DUP2 DUP5 PUSH2 0x5C6 JUMP JUMPDEST SWAP1 POP SWAP4 SWAP3 POP POP POP JUMP JUMPDEST PUSH1 0x0 PUSH1 0x40 MLOAD SWAP1 POP DUP2 DUP2 ADD DUP2 DUP2 LT PUSH8 0xFFFFFFFFFFFFFFFF DUP3 GT OR ISZERO PUSH2 0x6EE JUMPI PUSH2 0x6ED PUSH2 0x83B JUMP JUMPDEST JUMPDEST DUP1 PUSH1 0x40 MSTORE POP SWAP2 SWAP1 POP JUMP JUMPDEST PUSH1 0x0 PUSH8 0xFFFFFFFFFFFFFFFF DUP3 GT ISZERO PUSH2 0x713 JUMPI PUSH2 0x712 PUSH2 0x83B JUMP JUMPDEST JUMPDEST PUSH1 0x1F NOT PUSH1 0x1F DUP4 ADD AND SWAP1 POP PUSH1 0x20 DUP2 ADD SWAP1 POP SWAP2 SWAP1 POP JUMP JUMPDEST PUSH1 0x0 DUP2 SWAP1 POP PUSH1 0x20 DUP3 ADD SWAP1 POP SWAP2 SWAP1 POP JUMP JUMPDEST PUSH1 0x0 DUP2 MLOAD SWAP1 POP SWAP2 SWAP1 POP JUMP JUMPDEST PUSH1 0x0 DUP2 MLOAD SWAP1 POP SWAP2 SWAP1 POP JUMP JUMPDEST PUSH1 0x0 PUSH1 0x20 DUP3 ADD SWAP1 POP SWAP2 SWAP1 POP JUMP JUMPDEST PUSH1 0x0 DUP3 DUP3 MSTORE PUSH1 0x20 DUP3 ADD SWAP1 POP SWAP3 SWAP2 POP POP JUMP JUMPDEST PUSH1 0x0 DUP3 DUP3 MSTORE PUSH1 0x20 DUP3 ADD SWAP1 POP SWAP3 SWAP2 POP POP JUMP JUMPDEST PUSH1 0x0 DUP3 DUP3 MSTORE PUSH1 0x20 DUP3 ADD SWAP1 POP SWAP3 SWAP2 POP POP JUMP JUMPDEST PUSH1 0x0 DUP2 SWAP1 POP SWAP2 SWAP1 POP JUMP JUMPDEST DUP3 DUP2 DUP4 CALLDATACOPY PUSH1 0x0 DUP4 DUP4 ADD MSTORE POP POP POP JUMP JUMPDEST PUSH1 0x0 JUMPDEST DUP4 DUP2 LT ISZERO PUSH2 0x7C5 JUMPI DUP1 DUP3 ADD MLOAD DUP2 DUP5 ADD MSTORE PUSH1 0x20 DUP2 ADD SWAP1 POP PUSH2 0x7AA JUMP JUMPDEST DUP4 DUP2 GT ISZERO PUSH2 0x7D4 JUMPI PUSH1 0x0 DUP5 DUP5 ADD MSTORE JUMPDEST POP POP POP POP JUMP JUMPDEST PUSH1 0x0 PUSH1 0x2 DUP3 DIV SWAP1 POP PUSH1 0x1 DUP3 AND DUP1 PUSH2 0x7F2 JUMPI PUSH1 0x7F DUP3 AND SWAP2 POP JUMPDEST PUSH1 0x20 DUP3 LT DUP2 EQ ISZERO PUSH2 0x806 JUMPI PUSH2 0x805 PUSH2 0x80C JUMP JUMPDEST JUMPDEST POP SWAP2 SWAP1 POP JUMP JUMPDEST PUSH32 0x4E487B7100000000000000000000000000000000000000000000000000000000 PUSH1 0x0 MSTORE PUSH1 0x22 PUSH1 0x4 MSTORE PUSH1 0x24 PUSH1 0x0 REVERT JUMPDEST PUSH32 0x4E487B7100000000000000000000000000000000000000000000000000000000 PUSH1 0x0 MSTORE PUSH1 0x41 PUSH1 0x4 MSTORE PUSH1 0x24 PUSH1 0x0 REVERT JUMPDEST PUSH1 0x0 PUSH1 0x1F NOT PUSH1 0x1F DUP4 ADD AND SWAP1 POP SWAP2 SWAP1 POP JUMP JUMPDEST PUSH2 0x884 DUP2 PUSH2 0x78E JUMP JUMPDEST DUP2 EQ PUSH2 0x88F JUMPI PUSH1 0x0 DUP1 REVERT JUMPDEST POP JUMP INVALID LOG2 PUSH5 0x6970667358 0x22 SLT KECCAK256 0xDC CODECOPY PUSH32 0x57B98473E91DF1B0A0193477E951DFBC3B511635B5173249D43B9A6F5764736F PUSH13 0x63430008000033000000000000 "
				},
				"gasEstimates": {
					"creation": {
						"codeDepositCost": "449600",
						"executionCost": "486",
						"totalCost": "450086"
					},
					"external": {
						"addPerson(uint256,string)": "infinite",
						"favnum()": "1107",
						"getdata()": "infinite",
						"people(uint256)": "infinite",
						"retrive()": "1203",
						"storing(uint256)": "20442"
					}
				},
				"methodIdentifiers": {
					"addPerson(uint256,string)": "bc832d4e",
					"favnum()": "19908de0",
					"getdata()": "4fa10cfc",
					"people(uint256)": "9e7a13ad",
					"retrive()": "a6b7fc5b",
					"storing(uint256)": "7b683a74"
				}
			},
			"storageLayout": {
				"storage": [
					{
						"astId": 3,
						"contract": "contracts/simplestore.sol:store",
						"label": "favnum",
						"offset": 0,
						"slot": "0",
						"type": "t_uint256"
					},
					{
						"astId": 22,
						"contract": "contracts/simplestore.sol:store",
						"label": "people",
						"offset": 0,
						"slot": "1",
						"type": "t_array(t_struct(People)18_storage)dyn_storage"
					}
				],
				"types": {
					"t_array(t_struct(People)18_storage)dyn_storage": {
						"base": "t_struct(People)18_storage",
						"encoding": "dynamic_array",
						"label": "struct store.People[]",
						"numberOfBytes": "32"
					},
					"t_string_storage": {
						"encoding": "bytes",
						"label": "string",
						"numberOfBytes": "32"
					},
					"t_struct(People)18_storage": {
						"encoding": "inplace",
						"label": "struct store.People",
						"members": [
							{
								"astId": 15,
								"contract": "contracts/simplestore.sol:store",
								"label": "favnum",
								"offset": 0,
								"slot": "0",
								"type": "t_uint256"
							},
							{
								"astId": 17,
								"contract": "contracts/simplestore.sol:store",
								"label": "name",
								"offset": 0,
								"slot": "1",
								"type": "t_string_storage"
							}
						],
						"numberOfBytes": "64"
					},
					"t_uint256": {
						"encoding": "inplace",
						"label": "uint256",
						"numberOfBytes": "32"
					}
				}
			},
			"userdoc": {
				"kind": "user",
				"methods": {},
				"version": 1
			}
		}
	}
}