{
	"contracts/simplestore.sol": {
		"store": {
			"abi": [
				{
					"inputs": [
						{
							"internalType": "uint256",
							"name": "fav",
							"type": "uint256"
						},
						{
							"internalType": "string",
							"name": "naam",
							"type": "string"
						}
					],
					"name": "addPerson",
					"outputs": [],
					"stateMutability": "nonpayable",
					"type": "function"
				},
				{
					"inputs": [],
					"name": "favnum",
					"outputs": [
						{
							"internalType": "uint256",
							"name": "",
							"type": "uint256"
						}
					],
					"stateMutability": "view",
					"type": "function"
				},
				{
					"inputs": [],
					"name": "getdata",
					"outputs": [
						{
							"components": [
								{
									"internalType": "uint256",
									"name": "favnum",
									"type": "uint256"
								},
								{
									"internalType": "string",
									"name": "name",
									"type": "string"
								}
							],
							"internalType": "struct store.People[]",
							"name": "",
							"type": "tuple[]"
						}
					],
					"stateMutability": "view",
					"type": "function"
				},
				{
					"inputs": [
						{
							"internalType": "string",
							"name": "",
							"type": "string"
						}
					],
					"name": "nameToFavNum",
					"outputs": [
						{
							"internalType": "uint256",
							"name": "",
							"type": "uint256"
						}
					],
					"stateMutability": "view",
					"type": "function"
				},
				{
					"inputs": [
						{
							"internalType": "uint256",
							"name": "",
							"type": "uint256"
						}
					],
					"name": "people",
					"outputs": [
						{
							"internalType": "uint256",
							"name": "favnum",
							"type": "uint256"
						},
						{
							"internalType": "string",
							"name": "name",
							"type": "string"
						}
					],
					"stateMutability": "view",
					"type": "function"
				},
				{
					"inputs": [],
					"name": "retrive",
					"outputs": [
						{
							"internalType": "uint256",
							"name": "",
							"type": "uint256"
						}
					],
					"stateMutability": "view",
					"type": "function"
				},
				{
					"inputs": [
						{
							"internalType": "uint256",
							"name": "fav",
							"type": "uint256"
						}
					],
					"name": "storing",
					"outputs": [],
					"stateMutability": "nonpayable",
					"type": "function"
				}
			],
			"devdoc": {
				"kind": "dev",
				"methods": {},
				"version": 1
			},
			"evm": {
				"assembly": "    /* \"contracts/simplestore.sol\":57:812  contract store{... */\n  mstore(0x40, 0x80)\n  callvalue\n  dup1\n  iszero\n  tag_1\n  jumpi\n  0x00\n  dup1\n  revert\ntag_1:\n  pop\n  dataSize(sub_0)\n  dup1\n  dataOffset(sub_0)\n  0x00\n  codecopy\n  0x00\n  return\nstop\n\nsub_0: assembly {\n        /* \"contracts/simplestore.sol\":57:812  contract store{... */\n      mstore(0x40, 0x80)\n      callvalue\n      dup1\n      iszero\n      tag_1\n      jumpi\n      0x00\n      dup1\n      revert\n    tag_1:\n      pop\n      jumpi(tag_2, lt(calldatasize, 0x04))\n      shr(0xe0, calldataload(0x00))\n      dup1\n      0x7b683a74\n      gt\n      tag_10\n      jumpi\n      dup1\n      0x7b683a74\n      eq\n      tag_6\n      jumpi\n      dup1\n      0x9e7a13ad\n      eq\n      tag_7\n      jumpi\n      dup1\n      0xa6b7fc5b\n      eq\n      tag_8\n      jumpi\n      dup1\n      0xbc832d4e\n      eq\n      tag_9\n      jumpi\n      jump(tag_2)\n    tag_10:\n      dup1\n      0x06c62c2c\n      eq\n      tag_3\n      jumpi\n      dup1\n      0x19908de0\n      eq\n      tag_4\n      jumpi\n      dup1\n      0x4fa10cfc\n      eq\n      tag_5\n      jumpi\n    tag_2:\n      0x00\n      dup1\n      revert\n        /* \"contracts/simplestore.sol\":312:353  mapping(string=>uint) public nameToFavNum */\n    tag_3:\n      tag_11\n      0x04\n      dup1\n      calldatasize\n      sub\n      dup2\n      add\n      swap1\n      tag_12\n      swap2\n      swap1\n      tag_13\n      jump\t// in\n    tag_12:\n      tag_14\n      jump\t// in\n    tag_11:\n      mload(0x40)\n      tag_15\n      swap2\n      swap1\n      tag_16\n      jump\t// in\n    tag_15:\n      mload(0x40)\n      dup1\n      swap2\n      sub\n      swap1\n      return\n        /* \"contracts/simplestore.sol\":78:97  uint  public favnum */\n    tag_4:\n      tag_17\n      tag_18\n      jump\t// in\n    tag_17:\n      mload(0x40)\n      tag_19\n      swap2\n      swap1\n      tag_16\n      jump\t// in\n    tag_19:\n      mload(0x40)\n      dup1\n      swap2\n      sub\n      swap1\n      return\n        /* \"contracts/simplestore.sol\":649:728  function getdata() public view returns (People[] memory){... */\n    tag_5:\n      tag_20\n      tag_21\n      jump\t// in\n    tag_20:\n      mload(0x40)\n      tag_22\n      swap2\n      swap1\n      tag_23\n      jump\t// in\n    tag_22:\n      mload(0x40)\n      dup1\n      swap2\n      sub\n      swap1\n      return\n        /* \"contracts/simplestore.sol\":104:166  function storing(uint fav) public{... */\n    tag_6:\n      tag_24\n      0x04\n      dup1\n      calldatasize\n      sub\n      dup2\n      add\n      swap1\n      tag_25\n      swap2\n      swap1\n      tag_26\n      jump\t// in\n    tag_25:\n      tag_27\n      jump\t// in\n    tag_24:\n      stop\n        /* \"contracts/simplestore.sol\":356:378  People[] public people */\n    tag_7:\n      tag_28\n      0x04\n      dup1\n      calldatasize\n      sub\n      dup2\n      add\n      swap1\n      tag_29\n      swap2\n      swap1\n      tag_26\n      jump\t// in\n    tag_29:\n      tag_30\n      jump\t// in\n    tag_28:\n      mload(0x40)\n      tag_31\n      swap3\n      swap2\n      swap1\n      tag_32\n      jump\t// in\n    tag_31:\n      mload(0x40)\n      dup1\n      swap2\n      sub\n      swap1\n      return\n        /* \"contracts/simplestore.sol\":734:809  function retrive() public view returns (uint){... */\n    tag_8:\n      tag_33\n      tag_34\n      jump\t// in\n    tag_33:\n      mload(0x40)\n      tag_35\n      swap2\n      swap1\n      tag_16\n      jump\t// in\n    tag_35:\n      mload(0x40)\n      dup1\n      swap2\n      sub\n      swap1\n      return\n        /* \"contracts/simplestore.sol\":510:648  function addPerson(uint fav, string  memory naam )public {... */\n    tag_9:\n      tag_36\n      0x04\n      dup1\n      calldatasize\n      sub\n      dup2\n      add\n      swap1\n      tag_37\n      swap2\n      swap1\n      tag_38\n      jump\t// in\n    tag_37:\n      tag_39\n      jump\t// in\n    tag_36:\n      stop\n        /* \"contracts/simplestore.sol\":312:353  mapping(string=>uint) public nameToFavNum */\n    tag_14:\n      0x01\n      dup2\n      dup1\n      mload\n      0x20\n      dup2\n      add\n      dup3\n      add\n      dup1\n      mload\n      dup5\n      dup3\n      mstore\n      0x20\n      dup4\n      add\n      0x20\n      dup6\n      add\n      keccak256\n      dup2\n      dup4\n      mstore\n      dup1\n      swap6\n      pop\n      pop\n      pop\n      pop\n      pop\n      pop\n      0x00\n      swap2\n      pop\n      swap1\n      pop\n      sload\n      dup2\n      jump\t// out\n        /* \"contracts/simplestore.sol\":78:97  uint  public favnum */\n    tag_18:\n      sload(0x00)\n      dup2\n      jump\t// out\n        /* \"contracts/simplestore.sol\":649:728  function getdata() public view returns (People[] memory){... */\n    tag_21:\n        /* \"contracts/simplestore.sol\":689:704  People[] memory */\n      0x60\n        /* \"contracts/simplestore.sol\":719:725  people */\n      0x02\n        /* \"contracts/simplestore.sol\":712:725  return people */\n      dup1\n      sload\n      dup1\n      0x20\n      mul\n      0x20\n      add\n      mload(0x40)\n      swap1\n      dup2\n      add\n      0x40\n      mstore\n      dup1\n      swap3\n      swap2\n      swap1\n      dup2\n      dup2\n      mstore\n      0x20\n      add\n      0x00\n      swap1\n    tag_41:\n      dup3\n      dup3\n      lt\n      iszero\n      tag_42\n      jumpi\n      dup4\n      dup3\n      swap1\n      0x00\n      mstore\n      keccak256(0x00, 0x20)\n      swap1\n      0x02\n      mul\n      add\n      mload(0x40)\n      dup1\n      0x40\n      add\n      0x40\n      mstore\n      swap1\n      dup2\n      0x00\n      dup3\n      add\n      sload\n      dup2\n      mstore\n      0x20\n      add\n      0x01\n      dup3\n      add\n      dup1\n      sload\n      tag_44\n      swap1\n      tag_45\n      jump\t// in\n    tag_44:\n      dup1\n      0x1f\n      add\n      0x20\n      dup1\n      swap2\n      div\n      mul\n      0x20\n      add\n      mload(0x40)\n      swap1\n      dup2\n      add\n      0x40\n      mstore\n      dup1\n      swap3\n      swap2\n      swap1\n      dup2\n      dup2\n      mstore\n      0x20\n      add\n      dup3\n      dup1\n      sload\n      tag_46\n      swap1\n      tag_45\n      jump\t// in\n    tag_46:\n      dup1\n      iszero\n      tag_47\n      jumpi\n      dup1\n      0x1f\n      lt\n      tag_48\n      jumpi\n      0x0100\n      dup1\n      dup4\n      sload\n      div\n      mul\n      dup4\n      mstore\n      swap2\n      0x20\n      add\n      swap2\n      jump(tag_47)\n    tag_48:\n      dup3\n      add\n      swap2\n      swap1\n      0x00\n      mstore\n      keccak256(0x00, 0x20)\n      swap1\n    tag_49:\n      dup2\n      sload\n      dup2\n      mstore\n      swap1\n      0x01\n      add\n      swap1\n      0x20\n      add\n      dup1\n      dup4\n      gt\n      tag_49\n      jumpi\n      dup3\n      swap1\n      sub\n      0x1f\n      and\n      dup3\n      add\n      swap2\n    tag_47:\n      pop\n      pop\n      pop\n      pop\n      pop\n      dup2\n      mstore\n      pop\n      pop\n      dup2\n      mstore\n      0x20\n      add\n      swap1\n      0x01\n      add\n      swap1\n      jump(tag_41)\n    tag_42:\n      pop\n      pop\n      pop\n      pop\n      swap1\n      pop\n        /* \"contracts/simplestore.sol\":649:728  function getdata() public view returns (People[] memory){... */\n      swap1\n      jump\t// out\n        /* \"contracts/simplestore.sol\":104:166  function storing(uint fav) public{... */\n    tag_27:\n        /* \"contracts/simplestore.sol\":156:159  fav */\n      dup1\n        /* \"contracts/simplestore.sol\":147:153  favnum */\n      0x00\n        /* \"contracts/simplestore.sol\":147:159  favnum = fav */\n      dup2\n      swap1\n      sstore\n      pop\n        /* \"contracts/simplestore.sol\":104:166  function storing(uint fav) public{... */\n      pop\n      jump\t// out\n        /* \"contracts/simplestore.sol\":356:378  People[] public people */\n    tag_30:\n      0x02\n      dup2\n      dup2\n      sload\n      dup2\n      lt\n      tag_51\n      jumpi\n      0x00\n      dup1\n      revert\n    tag_51:\n      swap1\n      0x00\n      mstore\n      keccak256(0x00, 0x20)\n      swap1\n      0x02\n      mul\n      add\n      0x00\n      swap2\n      pop\n      swap1\n      pop\n      dup1\n      0x00\n      add\n      sload\n      swap1\n      dup1\n      0x01\n      add\n      dup1\n      sload\n      tag_53\n      swap1\n      tag_45\n      jump\t// in\n    tag_53:\n      dup1\n      0x1f\n      add\n      0x20\n      dup1\n      swap2\n      div\n      mul\n      0x20\n      add\n      mload(0x40)\n      swap1\n      dup2\n      add\n      0x40\n      mstore\n      dup1\n      swap3\n      swap2\n      swap1\n      dup2\n      dup2\n      mstore\n      0x20\n      add\n      dup3\n      dup1\n      sload\n      tag_54\n      swap1\n      tag_45\n      jump\t// in\n    tag_54:\n      dup1\n      iszero\n      tag_55\n      jumpi\n      dup1\n      0x1f\n      lt\n      tag_56\n      jumpi\n      0x0100\n      dup1\n      dup4\n      sload\n      div\n      mul\n      dup4\n      mstore\n      swap2\n      0x20\n      add\n      swap2\n      jump(tag_55)\n    tag_56:\n      dup3\n      add\n      swap2\n      swap1\n      0x00\n      mstore\n      keccak256(0x00, 0x20)\n      swap1\n    tag_57:\n      dup2\n      sload\n      dup2\n      mstore\n      swap1\n      0x01\n      add\n      swap1\n      0x20\n      add\n      dup1\n      dup4\n      gt\n      tag_57\n      jumpi\n      dup3\n      swap1\n      sub\n      0x1f\n      and\n      dup3\n      add\n      swap2\n    tag_55:\n      pop\n      pop\n      pop\n      pop\n      pop\n      swap1\n      pop\n      dup3\n      jump\t// out\n        /* \"contracts/simplestore.sol\":734:809  function retrive() public view returns (uint){... */\n    tag_34:\n        /* \"contracts/simplestore.sol\":774:778  uint */\n      0x00\n        /* \"contracts/simplestore.sol\":796:802  favnum */\n      dup1\n      sload\n        /* \"contracts/simplestore.sol\":789:802  return favnum */\n      swap1\n      pop\n        /* \"contracts/simplestore.sol\":734:809  function retrive() public view returns (uint){... */\n      swap1\n      jump\t// out\n        /* \"contracts/simplestore.sol\":510:648  function addPerson(uint fav, string  memory naam )public {... */\n    tag_39:\n        /* \"contracts/simplestore.sol\":573:579  people */\n      0x02\n        /* \"contracts/simplestore.sol\":585:601  People(fav,naam) */\n      mload(0x40)\n      dup1\n      0x40\n      add\n      0x40\n      mstore\n      dup1\n        /* \"contracts/simplestore.sol\":592:595  fav */\n      dup5\n        /* \"contracts/simplestore.sol\":585:601  People(fav,naam) */\n      dup2\n      mstore\n      0x20\n      add\n        /* \"contracts/simplestore.sol\":596:600  naam */\n      dup4\n        /* \"contracts/simplestore.sol\":585:601  People(fav,naam) */\n      dup2\n      mstore\n      pop\n        /* \"contracts/simplestore.sol\":573:602  people.push(People(fav,naam)) */\n      swap1\n      dup1\n      0x01\n      dup2\n      sload\n      add\n      dup1\n      dup3\n      sstore\n      dup1\n      swap2\n      pop\n      pop\n      0x01\n      swap1\n      sub\n      swap1\n      0x00\n      mstore\n      keccak256(0x00, 0x20)\n      swap1\n      0x02\n      mul\n      add\n      0x00\n      swap1\n      swap2\n      swap1\n      swap2\n      swap1\n      swap2\n      pop\n      0x00\n      dup3\n      add\n      mload\n      dup2\n      0x00\n      add\n      sstore\n      0x20\n      dup3\n      add\n      mload\n      dup2\n      0x01\n      add\n      swap1\n      dup1\n      mload\n      swap1\n      0x20\n      add\n      swap1\n      tag_61\n      swap3\n      swap2\n      swap1\n      tag_62\n      jump\t// in\n    tag_61:\n      pop\n      pop\n      pop\n        /* \"contracts/simplestore.sol\":642:645  fav */\n      dup2\n        /* \"contracts/simplestore.sol\":623:635  nameToFavNum */\n      0x01\n        /* \"contracts/simplestore.sol\":636:640  naam */\n      dup3\n        /* \"contracts/simplestore.sol\":623:641  nameToFavNum[naam] */\n      mload(0x40)\n      tag_63\n      swap2\n      swap1\n      tag_64\n      jump\t// in\n    tag_63:\n      swap1\n      dup2\n      mstore\n      0x20\n      add\n      mload(0x40)\n      dup1\n      swap2\n      sub\n      swap1\n      keccak256\n        /* \"contracts/simplestore.sol\":623:645  nameToFavNum[naam]=fav */\n      dup2\n      swap1\n      sstore\n      pop\n        /* \"contracts/simplestore.sol\":510:648  function addPerson(uint fav, string  memory naam )public {... */\n      pop\n      pop\n      jump\t// out\n    tag_62:\n      dup3\n      dup1\n      sload\n      tag_65\n      swap1\n      tag_45\n      jump\t// in\n    tag_65:\n      swap1\n      0x00\n      mstore\n      keccak256(0x00, 0x20)\n      swap1\n      0x1f\n      add\n      0x20\n      swap1\n      div\n      dup2\n      add\n      swap3\n      dup3\n      tag_67\n      jumpi\n      0x00\n      dup6\n      sstore\n      jump(tag_66)\n    tag_67:\n      dup3\n      0x1f\n      lt\n      tag_68\n      jumpi\n      dup1\n      mload\n      not(0xff)\n      and\n      dup4\n      dup1\n      add\n      or\n      dup6\n      sstore\n      jump(tag_66)\n    tag_68:\n      dup3\n      dup1\n      add\n      0x01\n      add\n      dup6\n      sstore\n      dup3\n      iszero\n      tag_66\n      jumpi\n      swap2\n      dup3\n      add\n    tag_69:\n      dup3\n      dup2\n      gt\n      iszero\n      tag_70\n      jumpi\n      dup3\n      mload\n      dup3\n      sstore\n      swap2\n      0x20\n      add\n      swap2\n      swap1\n      0x01\n      add\n      swap1\n      jump(tag_69)\n    tag_70:\n    tag_66:\n      pop\n      swap1\n      pop\n      tag_71\n      swap2\n      swap1\n      tag_72\n      jump\t// in\n    tag_71:\n      pop\n      swap1\n      jump\t// out\n    tag_72:\n    tag_73:\n      dup1\n      dup3\n      gt\n      iszero\n      tag_74\n      jumpi\n      0x00\n      dup2\n      0x00\n      swap1\n      sstore\n      pop\n      0x01\n      add\n      jump(tag_73)\n    tag_74:\n      pop\n      swap1\n      jump\t// out\n        /* \"#utility.yul\":7:351   */\n    tag_76:\n      0x00\n        /* \"#utility.yul\":110:175   */\n      tag_78\n        /* \"#utility.yul\":125:174   */\n      tag_79\n        /* \"#utility.yul\":167:173   */\n      dup5\n        /* \"#utility.yul\":125:174   */\n      tag_80\n      jump\t// in\n    tag_79:\n        /* \"#utility.yul\":110:175   */\n      tag_81\n      jump\t// in\n    tag_78:\n        /* \"#utility.yul\":101:175   */\n      swap1\n      pop\n        /* \"#utility.yul\":198:204   */\n      dup3\n        /* \"#utility.yul\":191:196   */\n      dup2\n        /* \"#utility.yul\":184:205   */\n      mstore\n        /* \"#utility.yul\":236:240   */\n      0x20\n        /* \"#utility.yul\":229:234   */\n      dup2\n        /* \"#utility.yul\":225:241   */\n      add\n        /* \"#utility.yul\":274:277   */\n      dup5\n        /* \"#utility.yul\":265:271   */\n      dup5\n        /* \"#utility.yul\":260:263   */\n      dup5\n        /* \"#utility.yul\":256:272   */\n      add\n        /* \"#utility.yul\":253:278   */\n      gt\n        /* \"#utility.yul\":250:252   */\n      iszero\n      tag_82\n      jumpi\n        /* \"#utility.yul\":291:292   */\n      0x00\n        /* \"#utility.yul\":288:289   */\n      dup1\n        /* \"#utility.yul\":281:293   */\n      revert\n        /* \"#utility.yul\":250:252   */\n    tag_82:\n        /* \"#utility.yul\":304:345   */\n      tag_83\n        /* \"#utility.yul\":338:344   */\n      dup5\n        /* \"#utility.yul\":333:336   */\n      dup3\n        /* \"#utility.yul\":328:331   */\n      dup6\n        /* \"#utility.yul\":304:345   */\n      tag_84\n      jump\t// in\n    tag_83:\n        /* \"#utility.yul\":91:351   */\n      pop\n      swap4\n      swap3\n      pop\n      pop\n      pop\n      jump\t// out\n        /* \"#utility.yul\":371:644   */\n    tag_85:\n      0x00\n        /* \"#utility.yul\":476:479   */\n      dup3\n        /* \"#utility.yul\":469:473   */\n      0x1f\n        /* \"#utility.yul\":461:467   */\n      dup4\n        /* \"#utility.yul\":457:474   */\n      add\n        /* \"#utility.yul\":453:480   */\n      slt\n        /* \"#utility.yul\":443:445   */\n      tag_87\n      jumpi\n        /* \"#utility.yul\":494:495   */\n      0x00\n        /* \"#utility.yul\":491:492   */\n      dup1\n        /* \"#utility.yul\":484:496   */\n      revert\n        /* \"#utility.yul\":443:445   */\n    tag_87:\n        /* \"#utility.yul\":534:540   */\n      dup2\n        /* \"#utility.yul\":521:541   */\n      calldataload\n        /* \"#utility.yul\":559:638   */\n      tag_88\n        /* \"#utility.yul\":634:637   */\n      dup5\n        /* \"#utility.yul\":626:632   */\n      dup3\n        /* \"#utility.yul\":619:623   */\n      0x20\n        /* \"#utility.yul\":611:617   */\n      dup7\n        /* \"#utility.yul\":607:624   */\n      add\n        /* \"#utility.yul\":559:638   */\n      tag_76\n      jump\t// in\n    tag_88:\n        /* \"#utility.yul\":550:638   */\n      swap2\n      pop\n        /* \"#utility.yul\":433:644   */\n      pop\n      swap3\n      swap2\n      pop\n      pop\n      jump\t// out\n        /* \"#utility.yul\":650:789   */\n    tag_89:\n      0x00\n        /* \"#utility.yul\":734:740   */\n      dup2\n        /* \"#utility.yul\":721:741   */\n      calldataload\n        /* \"#utility.yul\":712:741   */\n      swap1\n      pop\n        /* \"#utility.yul\":750:783   */\n      tag_91\n        /* \"#utility.yul\":777:782   */\n      dup2\n        /* \"#utility.yul\":750:783   */\n      tag_92\n      jump\t// in\n    tag_91:\n        /* \"#utility.yul\":702:789   */\n      swap3\n      swap2\n      pop\n      pop\n      jump\t// out\n        /* \"#utility.yul\":795:1170   */\n    tag_13:\n      0x00\n        /* \"#utility.yul\":913:915   */\n      0x20\n        /* \"#utility.yul\":901:910   */\n      dup3\n        /* \"#utility.yul\":892:899   */\n      dup5\n        /* \"#utility.yul\":888:911   */\n      sub\n        /* \"#utility.yul\":884:916   */\n      slt\n        /* \"#utility.yul\":881:883   */\n      iszero\n      tag_94\n      jumpi\n        /* \"#utility.yul\":929:930   */\n      0x00\n        /* \"#utility.yul\":926:927   */\n      dup1\n        /* \"#utility.yul\":919:931   */\n      revert\n        /* \"#utility.yul\":881:883   */\n    tag_94:\n        /* \"#utility.yul\":1000:1001   */\n      0x00\n        /* \"#utility.yul\":989:998   */\n      dup3\n        /* \"#utility.yul\":985:1002   */\n      add\n        /* \"#utility.yul\":972:1003   */\n      calldataload\n        /* \"#utility.yul\":1030:1048   */\n      0xffffffffffffffff\n        /* \"#utility.yul\":1022:1028   */\n      dup2\n        /* \"#utility.yul\":1019:1049   */\n      gt\n        /* \"#utility.yul\":1016:1018   */\n      iszero\n      tag_95\n      jumpi\n        /* \"#utility.yul\":1062:1063   */\n      0x00\n        /* \"#utility.yul\":1059:1060   */\n      dup1\n        /* \"#utility.yul\":1052:1064   */\n      revert\n        /* \"#utility.yul\":1016:1018   */\n    tag_95:\n        /* \"#utility.yul\":1090:1153   */\n      tag_96\n        /* \"#utility.yul\":1145:1152   */\n      dup5\n        /* \"#utility.yul\":1136:1142   */\n      dup3\n        /* \"#utility.yul\":1125:1134   */\n      dup6\n        /* \"#utility.yul\":1121:1143   */\n      add\n        /* \"#utility.yul\":1090:1153   */\n      tag_85\n      jump\t// in\n    tag_96:\n        /* \"#utility.yul\":1080:1153   */\n      swap2\n      pop\n        /* \"#utility.yul\":943:1163   */\n      pop\n        /* \"#utility.yul\":871:1170   */\n      swap3\n      swap2\n      pop\n      pop\n      jump\t// out\n        /* \"#utility.yul\":1176:1438   */\n    tag_26:\n      0x00\n        /* \"#utility.yul\":1284:1286   */\n      0x20\n        /* \"#utility.yul\":1272:1281   */\n      dup3\n        /* \"#utility.yul\":1263:1270   */\n      dup5\n        /* \"#utility.yul\":1259:1282   */\n      sub\n        /* \"#utility.yul\":1255:1287   */\n      slt\n        /* \"#utility.yul\":1252:1254   */\n      iszero\n      tag_98\n      jumpi\n        /* \"#utility.yul\":1300:1301   */\n      0x00\n        /* \"#utility.yul\":1297:1298   */\n      dup1\n        /* \"#utility.yul\":1290:1302   */\n      revert\n        /* \"#utility.yul\":1252:1254   */\n    tag_98:\n        /* \"#utility.yul\":1343:1344   */\n      0x00\n        /* \"#utility.yul\":1368:1421   */\n      tag_99\n        /* \"#utility.yul\":1413:1420   */\n      dup5\n        /* \"#utility.yul\":1404:1410   */\n      dup3\n        /* \"#utility.yul\":1393:1402   */\n      dup6\n        /* \"#utility.yul\":1389:1411   */\n      add\n        /* \"#utility.yul\":1368:1421   */\n      tag_89\n      jump\t// in\n    tag_99:\n        /* \"#utility.yul\":1358:1421   */\n      swap2\n      pop\n        /* \"#utility.yul\":1314:1431   */\n      pop\n        /* \"#utility.yul\":1242:1438   */\n      swap3\n      swap2\n      pop\n      pop\n      jump\t// out\n        /* \"#utility.yul\":1444:1964   */\n    tag_38:\n      0x00\n      dup1\n        /* \"#utility.yul\":1579:1581   */\n      0x40\n        /* \"#utility.yul\":1567:1576   */\n      dup4\n        /* \"#utility.yul\":1558:1565   */\n      dup6\n        /* \"#utility.yul\":1554:1577   */\n      sub\n        /* \"#utility.yul\":1550:1582   */\n      slt\n        /* \"#utility.yul\":1547:1549   */\n      iszero\n      tag_101\n      jumpi\n        /* \"#utility.yul\":1595:1596   */\n      0x00\n        /* \"#utility.yul\":1592:1593   */\n      dup1\n        /* \"#utility.yul\":1585:1597   */\n      revert\n        /* \"#utility.yul\":1547:1549   */\n    tag_101:\n        /* \"#utility.yul\":1638:1639   */\n      0x00\n        /* \"#utility.yul\":1663:1716   */\n      tag_102\n        /* \"#utility.yul\":1708:1715   */\n      dup6\n        /* \"#utility.yul\":1699:1705   */\n      dup3\n        /* \"#utility.yul\":1688:1697   */\n      dup7\n        /* \"#utility.yul\":1684:1706   */\n      add\n        /* \"#utility.yul\":1663:1716   */\n      tag_89\n      jump\t// in\n    tag_102:\n        /* \"#utility.yul\":1653:1716   */\n      swap3\n      pop\n        /* \"#utility.yul\":1609:1726   */\n      pop\n        /* \"#utility.yul\":1793:1795   */\n      0x20\n        /* \"#utility.yul\":1782:1791   */\n      dup4\n        /* \"#utility.yul\":1778:1796   */\n      add\n        /* \"#utility.yul\":1765:1797   */\n      calldataload\n        /* \"#utility.yul\":1824:1842   */\n      0xffffffffffffffff\n        /* \"#utility.yul\":1816:1822   */\n      dup2\n        /* \"#utility.yul\":1813:1843   */\n      gt\n        /* \"#utility.yul\":1810:1812   */\n      iszero\n      tag_103\n      jumpi\n        /* \"#utility.yul\":1856:1857   */\n      0x00\n        /* \"#utility.yul\":1853:1854   */\n      dup1\n        /* \"#utility.yul\":1846:1858   */\n      revert\n        /* \"#utility.yul\":1810:1812   */\n    tag_103:\n        /* \"#utility.yul\":1884:1947   */\n      tag_104\n        /* \"#utility.yul\":1939:1946   */\n      dup6\n        /* \"#utility.yul\":1930:1936   */\n      dup3\n        /* \"#utility.yul\":1919:1928   */\n      dup7\n        /* \"#utility.yul\":1915:1937   */\n      add\n        /* \"#utility.yul\":1884:1947   */\n      tag_85\n      jump\t// in\n    tag_104:\n        /* \"#utility.yul\":1874:1947   */\n      swap2\n      pop\n        /* \"#utility.yul\":1736:1957   */\n      pop\n        /* \"#utility.yul\":1537:1964   */\n      swap3\n      pop\n      swap3\n      swap1\n      pop\n      jump\t// out\n        /* \"#utility.yul\":1970:2214   */\n    tag_105:\n      0x00\n        /* \"#utility.yul\":2118:2208   */\n      tag_107\n        /* \"#utility.yul\":2204:2207   */\n      dup4\n        /* \"#utility.yul\":2196:2202   */\n      dup4\n        /* \"#utility.yul\":2118:2208   */\n      tag_108\n      jump\t// in\n    tag_107:\n        /* \"#utility.yul\":2104:2208   */\n      swap1\n      pop\n        /* \"#utility.yul\":2094:2214   */\n      swap3\n      swap2\n      pop\n      pop\n      jump\t// out\n        /* \"#utility.yul\":2274:3361   */\n    tag_109:\n      0x00\n        /* \"#utility.yul\":2466:2542   */\n      tag_111\n        /* \"#utility.yul\":2536:2541   */\n      dup3\n        /* \"#utility.yul\":2466:2542   */\n      tag_112\n      jump\t// in\n    tag_111:\n        /* \"#utility.yul\":2558:2666   */\n      tag_113\n        /* \"#utility.yul\":2659:2665   */\n      dup2\n        /* \"#utility.yul\":2654:2657   */\n      dup6\n        /* \"#utility.yul\":2558:2666   */\n      tag_114\n      jump\t// in\n    tag_113:\n        /* \"#utility.yul\":2551:2666   */\n      swap4\n      pop\n        /* \"#utility.yul\":2692:2695   */\n      dup4\n        /* \"#utility.yul\":2737:2741   */\n      0x20\n        /* \"#utility.yul\":2729:2735   */\n      dup3\n        /* \"#utility.yul\":2725:2742   */\n      mul\n        /* \"#utility.yul\":2720:2723   */\n      dup6\n        /* \"#utility.yul\":2716:2743   */\n      add\n        /* \"#utility.yul\":2767:2845   */\n      tag_115\n        /* \"#utility.yul\":2839:2844   */\n      dup6\n        /* \"#utility.yul\":2767:2845   */\n      tag_116\n      jump\t// in\n    tag_115:\n        /* \"#utility.yul\":2868:2875   */\n      dup1\n        /* \"#utility.yul\":2899:2900   */\n      0x00\n        /* \"#utility.yul\":2884:3316   */\n    tag_117:\n        /* \"#utility.yul\":2909:2915   */\n      dup6\n        /* \"#utility.yul\":2906:2907   */\n      dup2\n        /* \"#utility.yul\":2903:2916   */\n      lt\n        /* \"#utility.yul\":2884:3316   */\n      iszero\n      tag_119\n      jumpi\n        /* \"#utility.yul\":2980:2989   */\n      dup5\n        /* \"#utility.yul\":2974:2978   */\n      dup5\n        /* \"#utility.yul\":2970:2990   */\n      sub\n        /* \"#utility.yul\":2965:2968   */\n      dup10\n        /* \"#utility.yul\":2958:2991   */\n      mstore\n        /* \"#utility.yul\":3031:3037   */\n      dup2\n        /* \"#utility.yul\":3025:3038   */\n      mload\n        /* \"#utility.yul\":3059:3167   */\n      tag_120\n        /* \"#utility.yul\":3162:3166   */\n      dup6\n        /* \"#utility.yul\":3147:3160   */\n      dup3\n        /* \"#utility.yul\":3059:3167   */\n      tag_105\n      jump\t// in\n    tag_120:\n        /* \"#utility.yul\":3051:3167   */\n      swap5\n      pop\n        /* \"#utility.yul\":3190:3272   */\n      tag_121\n        /* \"#utility.yul\":3265:3271   */\n      dup4\n        /* \"#utility.yul\":3190:3272   */\n      tag_122\n      jump\t// in\n    tag_121:\n        /* \"#utility.yul\":3180:3272   */\n      swap3\n      pop\n        /* \"#utility.yul\":3301:3305   */\n      0x20\n        /* \"#utility.yul\":3296:3299   */\n      dup11\n        /* \"#utility.yul\":3292:3306   */\n      add\n        /* \"#utility.yul\":3285:3306   */\n      swap10\n      pop\n        /* \"#utility.yul\":2944:3316   */\n      pop\n        /* \"#utility.yul\":2931:2932   */\n      0x01\n        /* \"#utility.yul\":2928:2929   */\n      dup2\n        /* \"#utility.yul\":2924:2933   */\n      add\n        /* \"#utility.yul\":2919:2933   */\n      swap1\n      pop\n        /* \"#utility.yul\":2884:3316   */\n      jump(tag_117)\n    tag_119:\n        /* \"#utility.yul\":2888:2902   */\n      pop\n        /* \"#utility.yul\":3332:3336   */\n      dup3\n        /* \"#utility.yul\":3325:3336   */\n      swap8\n      pop\n        /* \"#utility.yul\":3352:3355   */\n      dup8\n        /* \"#utility.yul\":3345:3355   */\n      swap6\n      pop\n        /* \"#utility.yul\":2442:3361   */\n      pop\n      pop\n      pop\n      pop\n      pop\n      swap3\n      swap2\n      pop\n      pop\n      jump\t// out\n        /* \"#utility.yul\":3367:3711   */\n    tag_123:\n      0x00\n        /* \"#utility.yul\":3473:3512   */\n      tag_125\n        /* \"#utility.yul\":3506:3511   */\n      dup3\n        /* \"#utility.yul\":3473:3512   */\n      tag_126\n      jump\t// in\n    tag_125:\n        /* \"#utility.yul\":3528:3589   */\n      tag_127\n        /* \"#utility.yul\":3582:3588   */\n      dup2\n        /* \"#utility.yul\":3577:3580   */\n      dup6\n        /* \"#utility.yul\":3528:3589   */\n      tag_128\n      jump\t// in\n    tag_127:\n        /* \"#utility.yul\":3521:3589   */\n      swap4\n      pop\n        /* \"#utility.yul\":3598:3650   */\n      tag_129\n        /* \"#utility.yul\":3643:3649   */\n      dup2\n        /* \"#utility.yul\":3638:3641   */\n      dup6\n        /* \"#utility.yul\":3631:3635   */\n      0x20\n        /* \"#utility.yul\":3624:3629   */\n      dup7\n        /* \"#utility.yul\":3620:3636   */\n      add\n        /* \"#utility.yul\":3598:3650   */\n      tag_130\n      jump\t// in\n    tag_129:\n        /* \"#utility.yul\":3675:3704   */\n      tag_131\n        /* \"#utility.yul\":3697:3703   */\n      dup2\n        /* \"#utility.yul\":3675:3704   */\n      tag_132\n      jump\t// in\n    tag_131:\n        /* \"#utility.yul\":3670:3673   */\n      dup5\n        /* \"#utility.yul\":3666:3705   */\n      add\n        /* \"#utility.yul\":3659:3705   */\n      swap2\n      pop\n        /* \"#utility.yul\":3449:3711   */\n      pop\n      swap3\n      swap2\n      pop\n      pop\n      jump\t// out\n        /* \"#utility.yul\":3717:4081   */\n    tag_133:\n      0x00\n        /* \"#utility.yul\":3833:3872   */\n      tag_135\n        /* \"#utility.yul\":3866:3871   */\n      dup3\n        /* \"#utility.yul\":3833:3872   */\n      tag_126\n      jump\t// in\n    tag_135:\n        /* \"#utility.yul\":3888:3959   */\n      tag_136\n        /* \"#utility.yul\":3952:3958   */\n      dup2\n        /* \"#utility.yul\":3947:3950   */\n      dup6\n        /* \"#utility.yul\":3888:3959   */\n      tag_137\n      jump\t// in\n    tag_136:\n        /* \"#utility.yul\":3881:3959   */\n      swap4\n      pop\n        /* \"#utility.yul\":3968:4020   */\n      tag_138\n        /* \"#utility.yul\":4013:4019   */\n      dup2\n        /* \"#utility.yul\":4008:4011   */\n      dup6\n        /* \"#utility.yul\":4001:4005   */\n      0x20\n        /* \"#utility.yul\":3994:3999   */\n      dup7\n        /* \"#utility.yul\":3990:4006   */\n      add\n        /* \"#utility.yul\":3968:4020   */\n      tag_130\n      jump\t// in\n    tag_138:\n        /* \"#utility.yul\":4045:4074   */\n      tag_139\n        /* \"#utility.yul\":4067:4073   */\n      dup2\n        /* \"#utility.yul\":4045:4074   */\n      tag_132\n      jump\t// in\n    tag_139:\n        /* \"#utility.yul\":4040:4043   */\n      dup5\n        /* \"#utility.yul\":4036:4075   */\n      add\n        /* \"#utility.yul\":4029:4075   */\n      swap2\n      pop\n        /* \"#utility.yul\":3809:4081   */\n      pop\n      swap3\n      swap2\n      pop\n      pop\n      jump\t// out\n        /* \"#utility.yul\":4087:4464   */\n    tag_140:\n      0x00\n        /* \"#utility.yul\":4221:4260   */\n      tag_142\n        /* \"#utility.yul\":4254:4259   */\n      dup3\n        /* \"#utility.yul\":4221:4260   */\n      tag_126\n      jump\t// in\n    tag_142:\n        /* \"#utility.yul\":4276:4365   */\n      tag_143\n        /* \"#utility.yul\":4358:4364   */\n      dup2\n        /* \"#utility.yul\":4353:4356   */\n      dup6\n        /* \"#utility.yul\":4276:4365   */\n      tag_144\n      jump\t// in\n    tag_143:\n        /* \"#utility.yul\":4269:4365   */\n      swap4\n      pop\n        /* \"#utility.yul\":4374:4426   */\n      tag_145\n        /* \"#utility.yul\":4419:4425   */\n      dup2\n        /* \"#utility.yul\":4414:4417   */\n      dup6\n        /* \"#utility.yul\":4407:4411   */\n      0x20\n        /* \"#utility.yul\":4400:4405   */\n      dup7\n        /* \"#utility.yul\":4396:4412   */\n      add\n        /* \"#utility.yul\":4374:4426   */\n      tag_130\n      jump\t// in\n    tag_145:\n        /* \"#utility.yul\":4451:4457   */\n      dup1\n        /* \"#utility.yul\":4446:4449   */\n      dup5\n        /* \"#utility.yul\":4442:4458   */\n      add\n        /* \"#utility.yul\":4435:4458   */\n      swap2\n      pop\n        /* \"#utility.yul\":4197:4464   */\n      pop\n      swap3\n      swap2\n      pop\n      pop\n      jump\t// out\n        /* \"#utility.yul\":4520:5112   */\n    tag_108:\n      0x00\n        /* \"#utility.yul\":4659:4663   */\n      0x40\n        /* \"#utility.yul\":4654:4657   */\n      dup4\n        /* \"#utility.yul\":4650:4664   */\n      add\n        /* \"#utility.yul\":4748:4752   */\n      0x00\n        /* \"#utility.yul\":4741:4746   */\n      dup4\n        /* \"#utility.yul\":4737:4753   */\n      add\n        /* \"#utility.yul\":4731:4754   */\n      mload\n        /* \"#utility.yul\":4767:4830   */\n      tag_147\n        /* \"#utility.yul\":4824:4828   */\n      0x00\n        /* \"#utility.yul\":4819:4822   */\n      dup7\n        /* \"#utility.yul\":4815:4829   */\n      add\n        /* \"#utility.yul\":4801:4813   */\n      dup3\n        /* \"#utility.yul\":4767:4830   */\n      tag_148\n      jump\t// in\n    tag_147:\n        /* \"#utility.yul\":4674:4840   */\n      pop\n        /* \"#utility.yul\":4922:4926   */\n      0x20\n        /* \"#utility.yul\":4915:4920   */\n      dup4\n        /* \"#utility.yul\":4911:4927   */\n      add\n        /* \"#utility.yul\":4905:4928   */\n      mload\n        /* \"#utility.yul\":4975:4978   */\n      dup5\n        /* \"#utility.yul\":4969:4973   */\n      dup3\n        /* \"#utility.yul\":4965:4979   */\n      sub\n        /* \"#utility.yul\":4958:4962   */\n      0x20\n        /* \"#utility.yul\":4953:4956   */\n      dup7\n        /* \"#utility.yul\":4949:4963   */\n      add\n        /* \"#utility.yul\":4942:4980   */\n      mstore\n        /* \"#utility.yul\":5001:5074   */\n      tag_149\n        /* \"#utility.yul\":5069:5073   */\n      dup3\n        /* \"#utility.yul\":5055:5067   */\n      dup3\n        /* \"#utility.yul\":5001:5074   */\n      tag_123\n      jump\t// in\n    tag_149:\n        /* \"#utility.yul\":4993:5074   */\n      swap2\n      pop\n        /* \"#utility.yul\":4850:5085   */\n      pop\n        /* \"#utility.yul\":5102:5106   */\n      dup1\n        /* \"#utility.yul\":5095:5106   */\n      swap2\n      pop\n        /* \"#utility.yul\":4628:5112   */\n      pop\n      swap3\n      swap2\n      pop\n      pop\n      jump\t// out\n        /* \"#utility.yul\":5118:5226   */\n    tag_148:\n        /* \"#utility.yul\":5195:5219   */\n      tag_151\n        /* \"#utility.yul\":5213:5218   */\n      dup2\n        /* \"#utility.yul\":5195:5219   */\n      tag_152\n      jump\t// in\n    tag_151:\n        /* \"#utility.yul\":5190:5193   */\n      dup3\n        /* \"#utility.yul\":5183:5220   */\n      mstore\n        /* \"#utility.yul\":5173:5226   */\n      pop\n      pop\n      jump\t// out\n        /* \"#utility.yul\":5232:5350   */\n    tag_153:\n        /* \"#utility.yul\":5319:5343   */\n      tag_155\n        /* \"#utility.yul\":5337:5342   */\n      dup2\n        /* \"#utility.yul\":5319:5343   */\n      tag_152\n      jump\t// in\n    tag_155:\n        /* \"#utility.yul\":5314:5317   */\n      dup3\n        /* \"#utility.yul\":5307:5344   */\n      mstore\n        /* \"#utility.yul\":5297:5350   */\n      pop\n      pop\n      jump\t// out\n        /* \"#utility.yul\":5356:5631   */\n    tag_64:\n      0x00\n        /* \"#utility.yul\":5510:5605   */\n      tag_157\n        /* \"#utility.yul\":5601:5604   */\n      dup3\n        /* \"#utility.yul\":5592:5598   */\n      dup5\n        /* \"#utility.yul\":5510:5605   */\n      tag_140\n      jump\t// in\n    tag_157:\n        /* \"#utility.yul\":5503:5605   */\n      swap2\n      pop\n        /* \"#utility.yul\":5622:5625   */\n      dup2\n        /* \"#utility.yul\":5615:5625   */\n      swap1\n      pop\n        /* \"#utility.yul\":5492:5631   */\n      swap3\n      swap2\n      pop\n      pop\n      jump\t// out\n        /* \"#utility.yul\":5637:6098   */\n    tag_23:\n      0x00\n        /* \"#utility.yul\":5862:5864   */\n      0x20\n        /* \"#utility.yul\":5851:5860   */\n      dup3\n        /* \"#utility.yul\":5847:5865   */\n      add\n        /* \"#utility.yul\":5839:5865   */\n      swap1\n      pop\n        /* \"#utility.yul\":5911:5920   */\n      dup2\n        /* \"#utility.yul\":5905:5909   */\n      dup2\n        /* \"#utility.yul\":5901:5921   */\n      sub\n        /* \"#utility.yul\":5897:5898   */\n      0x00\n        /* \"#utility.yul\":5886:5895   */\n      dup4\n        /* \"#utility.yul\":5882:5899   */\n      add\n        /* \"#utility.yul\":5875:5922   */\n      mstore\n        /* \"#utility.yul\":5939:6091   */\n      tag_159\n        /* \"#utility.yul\":6086:6090   */\n      dup2\n        /* \"#utility.yul\":6077:6083   */\n      dup5\n        /* \"#utility.yul\":5939:6091   */\n      tag_109\n      jump\t// in\n    tag_159:\n        /* \"#utility.yul\":5931:6091   */\n      swap1\n      pop\n        /* \"#utility.yul\":5829:6098   */\n      swap3\n      swap2\n      pop\n      pop\n      jump\t// out\n        /* \"#utility.yul\":6104:6326   */\n    tag_16:\n      0x00\n        /* \"#utility.yul\":6235:6237   */\n      0x20\n        /* \"#utility.yul\":6224:6233   */\n      dup3\n        /* \"#utility.yul\":6220:6238   */\n      add\n        /* \"#utility.yul\":6212:6238   */\n      swap1\n      pop\n        /* \"#utility.yul\":6248:6319   */\n      tag_161\n        /* \"#utility.yul\":6316:6317   */\n      0x00\n        /* \"#utility.yul\":6305:6314   */\n      dup4\n        /* \"#utility.yul\":6301:6318   */\n      add\n        /* \"#utility.yul\":6292:6298   */\n      dup5\n        /* \"#utility.yul\":6248:6319   */\n      tag_153\n      jump\t// in\n    tag_161:\n        /* \"#utility.yul\":6202:6326   */\n      swap3\n      swap2\n      pop\n      pop\n      jump\t// out\n        /* \"#utility.yul\":6332:6755   */\n    tag_32:\n      0x00\n        /* \"#utility.yul\":6511:6513   */\n      0x40\n        /* \"#utility.yul\":6500:6509   */\n      dup3\n        /* \"#utility.yul\":6496:6514   */\n      add\n        /* \"#utility.yul\":6488:6514   */\n      swap1\n      pop\n        /* \"#utility.yul\":6524:6595   */\n      tag_163\n        /* \"#utility.yul\":6592:6593   */\n      0x00\n        /* \"#utility.yul\":6581:6590   */\n      dup4\n        /* \"#utility.yul\":6577:6594   */\n      add\n        /* \"#utility.yul\":6568:6574   */\n      dup6\n        /* \"#utility.yul\":6524:6595   */\n      tag_153\n      jump\t// in\n    tag_163:\n        /* \"#utility.yul\":6642:6651   */\n      dup2\n        /* \"#utility.yul\":6636:6640   */\n      dup2\n        /* \"#utility.yul\":6632:6652   */\n      sub\n        /* \"#utility.yul\":6627:6629   */\n      0x20\n        /* \"#utility.yul\":6616:6625   */\n      dup4\n        /* \"#utility.yul\":6612:6630   */\n      add\n        /* \"#utility.yul\":6605:6653   */\n      mstore\n        /* \"#utility.yul\":6670:6748   */\n      tag_164\n        /* \"#utility.yul\":6743:6747   */\n      dup2\n        /* \"#utility.yul\":6734:6740   */\n      dup5\n        /* \"#utility.yul\":6670:6748   */\n      tag_133\n      jump\t// in\n    tag_164:\n        /* \"#utility.yul\":6662:6748   */\n      swap1\n      pop\n        /* \"#utility.yul\":6478:6755   */\n      swap4\n      swap3\n      pop\n      pop\n      pop\n      jump\t// out\n        /* \"#utility.yul\":6761:7044   */\n    tag_81:\n      0x00\n        /* \"#utility.yul\":6827:6829   */\n      0x40\n        /* \"#utility.yul\":6821:6830   */\n      mload\n        /* \"#utility.yul\":6811:6830   */\n      swap1\n      pop\n        /* \"#utility.yul\":6869:6873   */\n      dup2\n        /* \"#utility.yul\":6861:6867   */\n      dup2\n        /* \"#utility.yul\":6857:6874   */\n      add\n        /* \"#utility.yul\":6976:6982   */\n      dup2\n        /* \"#utility.yul\":6964:6974   */\n      dup2\n        /* \"#utility.yul\":6961:6983   */\n      lt\n        /* \"#utility.yul\":6940:6958   */\n      0xffffffffffffffff\n        /* \"#utility.yul\":6928:6938   */\n      dup3\n        /* \"#utility.yul\":6925:6959   */\n      gt\n        /* \"#utility.yul\":6922:6984   */\n      or\n        /* \"#utility.yul\":6919:6921   */\n      iszero\n      tag_166\n      jumpi\n        /* \"#utility.yul\":6987:7005   */\n      tag_167\n      tag_168\n      jump\t// in\n    tag_167:\n        /* \"#utility.yul\":6919:6921   */\n    tag_166:\n        /* \"#utility.yul\":7027:7037   */\n      dup1\n        /* \"#utility.yul\":7023:7025   */\n      0x40\n        /* \"#utility.yul\":7016:7038   */\n      mstore\n        /* \"#utility.yul\":6801:7044   */\n      pop\n      swap2\n      swap1\n      pop\n      jump\t// out\n        /* \"#utility.yul\":7050:7382   */\n    tag_80:\n      0x00\n        /* \"#utility.yul\":7202:7220   */\n      0xffffffffffffffff\n        /* \"#utility.yul\":7194:7200   */\n      dup3\n        /* \"#utility.yul\":7191:7221   */\n      gt\n        /* \"#utility.yul\":7188:7190   */\n      iszero\n      tag_170\n      jumpi\n        /* \"#utility.yul\":7224:7242   */\n      tag_171\n      tag_168\n      jump\t// in\n    tag_171:\n        /* \"#utility.yul\":7188:7190   */\n    tag_170:\n        /* \"#utility.yul\":7309:7313   */\n      0x1f\n        /* \"#utility.yul\":7305:7314   */\n      not\n        /* \"#utility.yul\":7298:7302   */\n      0x1f\n        /* \"#utility.yul\":7290:7296   */\n      dup4\n        /* \"#utility.yul\":7286:7303   */\n      add\n        /* \"#utility.yul\":7282:7315   */\n      and\n        /* \"#utility.yul\":7274:7315   */\n      swap1\n      pop\n        /* \"#utility.yul\":7370:7374   */\n      0x20\n        /* \"#utility.yul\":7364:7368   */\n      dup2\n        /* \"#utility.yul\":7360:7375   */\n      add\n        /* \"#utility.yul\":7352:7375   */\n      swap1\n      pop\n        /* \"#utility.yul\":7117:7382   */\n      swap2\n      swap1\n      pop\n      jump\t// out\n        /* \"#utility.yul\":7388:7542   */\n    tag_116:\n      0x00\n        /* \"#utility.yul\":7500:7503   */\n      dup2\n        /* \"#utility.yul\":7492:7503   */\n      swap1\n      pop\n        /* \"#utility.yul\":7530:7534   */\n      0x20\n        /* \"#utility.yul\":7525:7528   */\n      dup3\n        /* \"#utility.yul\":7521:7535   */\n      add\n        /* \"#utility.yul\":7513:7535   */\n      swap1\n      pop\n        /* \"#utility.yul\":7482:7542   */\n      swap2\n      swap1\n      pop\n      jump\t// out\n        /* \"#utility.yul\":7548:7684   */\n    tag_112:\n      0x00\n        /* \"#utility.yul\":7671:7676   */\n      dup2\n        /* \"#utility.yul\":7665:7677   */\n      mload\n        /* \"#utility.yul\":7655:7677   */\n      swap1\n      pop\n        /* \"#utility.yul\":7644:7684   */\n      swap2\n      swap1\n      pop\n      jump\t// out\n        /* \"#utility.yul\":7690:7789   */\n    tag_126:\n      0x00\n        /* \"#utility.yul\":7776:7781   */\n      dup2\n        /* \"#utility.yul\":7770:7782   */\n      mload\n        /* \"#utility.yul\":7760:7782   */\n      swap1\n      pop\n        /* \"#utility.yul\":7749:7789   */\n      swap2\n      swap1\n      pop\n      jump\t// out\n        /* \"#utility.yul\":7795:7930   */\n    tag_122:\n      0x00\n        /* \"#utility.yul\":7919:7923   */\n      0x20\n        /* \"#utility.yul\":7914:7917   */\n      dup3\n        /* \"#utility.yul\":7910:7924   */\n      add\n        /* \"#utility.yul\":7902:7924   */\n      swap1\n      pop\n        /* \"#utility.yul\":7892:7930   */\n      swap2\n      swap1\n      pop\n      jump\t// out\n        /* \"#utility.yul\":7936:8142   */\n    tag_114:\n      0x00\n        /* \"#utility.yul\":8091:8097   */\n      dup3\n        /* \"#utility.yul\":8086:8089   */\n      dup3\n        /* \"#utility.yul\":8079:8098   */\n      mstore\n        /* \"#utility.yul\":8131:8135   */\n      0x20\n        /* \"#utility.yul\":8126:8129   */\n      dup3\n        /* \"#utility.yul\":8122:8136   */\n      add\n        /* \"#utility.yul\":8107:8136   */\n      swap1\n      pop\n        /* \"#utility.yul\":8069:8142   */\n      swap3\n      swap2\n      pop\n      pop\n      jump\t// out\n        /* \"#utility.yul\":8148:8307   */\n    tag_128:\n      0x00\n        /* \"#utility.yul\":8256:8262   */\n      dup3\n        /* \"#utility.yul\":8251:8254   */\n      dup3\n        /* \"#utility.yul\":8244:8263   */\n      mstore\n        /* \"#utility.yul\":8296:8300   */\n      0x20\n        /* \"#utility.yul\":8291:8294   */\n      dup3\n        /* \"#utility.yul\":8287:8301   */\n      add\n        /* \"#utility.yul\":8272:8301   */\n      swap1\n      pop\n        /* \"#utility.yul\":8234:8307   */\n      swap3\n      swap2\n      pop\n      pop\n      jump\t// out\n        /* \"#utility.yul\":8313:8482   */\n    tag_137:\n      0x00\n        /* \"#utility.yul\":8431:8437   */\n      dup3\n        /* \"#utility.yul\":8426:8429   */\n      dup3\n        /* \"#utility.yul\":8419:8438   */\n      mstore\n        /* \"#utility.yul\":8471:8475   */\n      0x20\n        /* \"#utility.yul\":8466:8469   */\n      dup3\n        /* \"#utility.yul\":8462:8476   */\n      add\n        /* \"#utility.yul\":8447:8476   */\n      swap1\n      pop\n        /* \"#utility.yul\":8409:8482   */\n      swap3\n      swap2\n      pop\n      pop\n      jump\t// out\n        /* \"#utility.yul\":8488:8636   */\n    tag_144:\n      0x00\n        /* \"#utility.yul\":8627:8630   */\n      dup2\n        /* \"#utility.yul\":8612:8630   */\n      swap1\n      pop\n        /* \"#utility.yul\":8602:8636   */\n      swap3\n      swap2\n      pop\n      pop\n      jump\t// out\n        /* \"#utility.yul\":8642:8719   */\n    tag_152:\n      0x00\n        /* \"#utility.yul\":8708:8713   */\n      dup2\n        /* \"#utility.yul\":8697:8713   */\n      swap1\n      pop\n        /* \"#utility.yul\":8687:8719   */\n      swap2\n      swap1\n      pop\n      jump\t// out\n        /* \"#utility.yul\":8725:8879   */\n    tag_84:\n        /* \"#utility.yul\":8809:8815   */\n      dup3\n        /* \"#utility.yul\":8804:8807   */\n      dup2\n        /* \"#utility.yul\":8799:8802   */\n      dup4\n        /* \"#utility.yul\":8786:8816   */\n      calldatacopy\n        /* \"#utility.yul\":8871:8872   */\n      0x00\n        /* \"#utility.yul\":8862:8868   */\n      dup4\n        /* \"#utility.yul\":8857:8860   */\n      dup4\n        /* \"#utility.yul\":8853:8869   */\n      add\n        /* \"#utility.yul\":8846:8873   */\n      mstore\n        /* \"#utility.yul\":8776:8879   */\n      pop\n      pop\n      pop\n      jump\t// out\n        /* \"#utility.yul\":8885:9192   */\n    tag_130:\n        /* \"#utility.yul\":8953:8954   */\n      0x00\n        /* \"#utility.yul\":8963:9076   */\n    tag_183:\n        /* \"#utility.yul\":8977:8983   */\n      dup4\n        /* \"#utility.yul\":8974:8975   */\n      dup2\n        /* \"#utility.yul\":8971:8984   */\n      lt\n        /* \"#utility.yul\":8963:9076   */\n      iszero\n      tag_185\n      jumpi\n        /* \"#utility.yul\":9062:9063   */\n      dup1\n        /* \"#utility.yul\":9057:9060   */\n      dup3\n        /* \"#utility.yul\":9053:9064   */\n      add\n        /* \"#utility.yul\":9047:9065   */\n      mload\n        /* \"#utility.yul\":9043:9044   */\n      dup2\n        /* \"#utility.yul\":9038:9041   */\n      dup5\n        /* \"#utility.yul\":9034:9045   */\n      add\n        /* \"#utility.yul\":9027:9066   */\n      mstore\n        /* \"#utility.yul\":8999:9001   */\n      0x20\n        /* \"#utility.yul\":8996:8997   */\n      dup2\n        /* \"#utility.yul\":8992:9002   */\n      add\n        /* \"#utility.yul\":8987:9002   */\n      swap1\n      pop\n        /* \"#utility.yul\":8963:9076   */\n      jump(tag_183)\n    tag_185:\n        /* \"#utility.yul\":9094:9100   */\n      dup4\n        /* \"#utility.yul\":9091:9092   */\n      dup2\n        /* \"#utility.yul\":9088:9101   */\n      gt\n        /* \"#utility.yul\":9085:9087   */\n      iszero\n      tag_186\n      jumpi\n        /* \"#utility.yul\":9174:9175   */\n      0x00\n        /* \"#utility.yul\":9165:9171   */\n      dup5\n        /* \"#utility.yul\":9160:9163   */\n      dup5\n        /* \"#utility.yul\":9156:9172   */\n      add\n        /* \"#utility.yul\":9149:9176   */\n      mstore\n        /* \"#utility.yul\":9085:9087   */\n    tag_186:\n        /* \"#utility.yul\":8934:9192   */\n      pop\n      pop\n      pop\n      pop\n      jump\t// out\n        /* \"#utility.yul\":9198:9518   */\n    tag_45:\n      0x00\n        /* \"#utility.yul\":9279:9280   */\n      0x02\n        /* \"#utility.yul\":9273:9277   */\n      dup3\n        /* \"#utility.yul\":9269:9281   */\n      div\n        /* \"#utility.yul\":9259:9281   */\n      swap1\n      pop\n        /* \"#utility.yul\":9326:9327   */\n      0x01\n        /* \"#utility.yul\":9320:9324   */\n      dup3\n        /* \"#utility.yul\":9316:9328   */\n      and\n        /* \"#utility.yul\":9347:9365   */\n      dup1\n        /* \"#utility.yul\":9337:9339   */\n      tag_188\n      jumpi\n        /* \"#utility.yul\":9403:9407   */\n      0x7f\n        /* \"#utility.yul\":9395:9401   */\n      dup3\n        /* \"#utility.yul\":9391:9408   */\n      and\n        /* \"#utility.yul\":9381:9408   */\n      swap2\n      pop\n        /* \"#utility.yul\":9337:9339   */\n    tag_188:\n        /* \"#utility.yul\":9465:9467   */\n      0x20\n        /* \"#utility.yul\":9457:9463   */\n      dup3\n        /* \"#utility.yul\":9454:9468   */\n      lt\n        /* \"#utility.yul\":9434:9452   */\n      dup2\n        /* \"#utility.yul\":9431:9469   */\n      eq\n        /* \"#utility.yul\":9428:9430   */\n      iszero\n      tag_189\n      jumpi\n        /* \"#utility.yul\":9484:9502   */\n      tag_190\n      tag_191\n      jump\t// in\n    tag_190:\n        /* \"#utility.yul\":9428:9430   */\n    tag_189:\n        /* \"#utility.yul\":9249:9518   */\n      pop\n      swap2\n      swap1\n      pop\n      jump\t// out\n        /* \"#utility.yul\":9524:9704   */\n    tag_191:\n        /* \"#utility.yul\":9572:9649   */\n      0x4e487b7100000000000000000000000000000000000000000000000000000000\n        /* \"#utility.yul\":9569:9570   */\n      0x00\n        /* \"#utility.yul\":9562:9650   */\n      mstore\n        /* \"#utility.yul\":9669:9673   */\n      0x22\n        /* \"#utility.yul\":9666:9667   */\n      0x04\n        /* \"#utility.yul\":9659:9674   */\n      mstore\n        /* \"#utility.yul\":9693:9697   */\n      0x24\n        /* \"#utility.yul\":9690:9691   */\n      0x00\n        /* \"#utility.yul\":9683:9698   */\n      revert\n        /* \"#utility.yul\":9710:9890   */\n    tag_168:\n        /* \"#utility.yul\":9758:9835   */\n      0x4e487b7100000000000000000000000000000000000000000000000000000000\n        /* \"#utility.yul\":9755:9756   */\n      0x00\n        /* \"#utility.yul\":9748:9836   */\n      mstore\n        /* \"#utility.yul\":9855:9859   */\n      0x41\n        /* \"#utility.yul\":9852:9853   */\n      0x04\n        /* \"#utility.yul\":9845:9860   */\n      mstore\n        /* \"#utility.yul\":9879:9883   */\n      0x24\n        /* \"#utility.yul\":9876:9877   */\n      0x00\n        /* \"#utility.yul\":9869:9884   */\n      revert\n        /* \"#utility.yul\":9896:9998   */\n    tag_132:\n      0x00\n        /* \"#utility.yul\":9988:9990   */\n      0x1f\n        /* \"#utility.yul\":9984:9991   */\n      not\n        /* \"#utility.yul\":9979:9981   */\n      0x1f\n        /* \"#utility.yul\":9972:9977   */\n      dup4\n        /* \"#utility.yul\":9968:9982   */\n      add\n        /* \"#utility.yul\":9964:9992   */\n      and\n        /* \"#utility.yul\":9954:9992   */\n      swap1\n      pop\n        /* \"#utility.yul\":9944:9998   */\n      swap2\n      swap1\n      pop\n      jump\t// out\n        /* \"#utility.yul\":10004:10126   */\n    tag_92:\n        /* \"#utility.yul\":10077:10101   */\n      tag_196\n        /* \"#utility.yul\":10095:10100   */\n      dup2\n        /* \"#utility.yul\":10077:10101   */\n      tag_152\n      jump\t// in\n    tag_196:\n        /* \"#utility.yul\":10070:10075   */\n      dup2\n        /* \"#utility.yul\":10067:10102   */\n      eq\n        /* \"#utility.yul\":10057:10059   */\n      tag_197\n      jumpi\n        /* \"#utility.yul\":10116:10117   */\n      0x00\n        /* \"#utility.yul\":10113:10114   */\n      dup1\n        /* \"#utility.yul\":10106:10118   */\n      revert\n        /* \"#utility.yul\":10057:10059   */\n    tag_197:\n        /* \"#utility.yul\":10047:10126   */\n      pop\n      jump\t// out\n\n    auxdata: 0xa26469706673582212202dd427d8f7b3ee6b9d7f613c5d23f80e092b65e751ceb275d36146472af55daf64736f6c63430008000033\n}\n",
				"bytecode": {
					"linkReferences": {},
					"object": "608060405234801561001057600080fd5b506109f8806100206000396000f3fe608060405234801561001057600080fd5b506004361061007d5760003560e01c80637b683a741161005b5780637b683a74146100ee5780639e7a13ad1461010a578063a6b7fc5b1461013b578063bc832d4e146101595761007d565b806306c62c2c1461008257806319908de0146100b25780634fa10cfc146100d0575b600080fd5b61009c60048036038101906100979190610523565b610175565b6040516100a991906107a1565b60405180910390f35b6100ba6101a3565b6040516100c791906107a1565b60405180910390f35b6100d86101a9565b6040516100e5919061077f565b60405180910390f35b61010860048036038101906101039190610564565b6102a4565b005b610124600480360381019061011f9190610564565b6102ae565b6040516101329291906107bc565b60405180910390f35b61014361036a565b60405161015091906107a1565b60405180910390f35b610173600480360381019061016e919061058d565b610373565b005b6001818051602081018201805184825260208301602085012081835280955050505050506000915090505481565b60005481565b60606002805480602002602001604051908101604052809291908181526020016000905b8282101561029b57838290600052602060002090600202016040518060400160405290816000820154815260200160018201805461020a9061090a565b80601f01602080910402602001604051908101604052809291908181526020018280546102369061090a565b80156102835780601f1061025857610100808354040283529160200191610283565b820191906000526020600020905b81548152906001019060200180831161026657829003601f168201915b505050505081525050815260200190600101906101cd565b50505050905090565b8060008190555050565b600281815481106102be57600080fd5b90600052602060002090600202016000915090508060000154908060010180546102e79061090a565b80601f01602080910402602001604051908101604052809291908181526020018280546103139061090a565b80156103605780601f1061033557610100808354040283529160200191610360565b820191906000526020600020905b81548152906001019060200180831161034357829003601f168201915b5050505050905082565b60008054905090565b600260405180604001604052808481526020018381525090806001815401808255809150506001900390600052602060002090600202016000909190919091506000820151816000015560208201518160010190805190602001906103d9929190610403565b505050816001826040516103ed9190610768565b9081526020016040518091039020819055505050565b82805461040f9061090a565b90600052602060002090601f0160209004810192826104315760008555610478565b82601f1061044a57805160ff1916838001178555610478565b82800160010185558215610478579182015b8281111561047757825182559160200191906001019061045c565b5b5090506104859190610489565b5090565b5b808211156104a257600081600090555060010161048a565b5090565b60006104b96104b48461081d565b6107ec565b9050828152602081018484840111156104d157600080fd5b6104dc8482856108c8565b509392505050565b600082601f8301126104f557600080fd5b81356105058482602086016104a6565b91505092915050565b60008135905061051d816109ab565b92915050565b60006020828403121561053557600080fd5b600082013567ffffffffffffffff81111561054f57600080fd5b61055b848285016104e4565b91505092915050565b60006020828403121561057657600080fd5b60006105848482850161050e565b91505092915050565b600080604083850312156105a057600080fd5b60006105ae8582860161050e565b925050602083013567ffffffffffffffff8111156105cb57600080fd5b6105d7858286016104e4565b9150509250929050565b60006105ed838361070d565b905092915050565b60006106008261085d565b61060a8185610880565b93508360208202850161061c8561084d565b8060005b85811015610658578484038952815161063985826105e1565b945061064483610873565b925060208a01995050600181019050610620565b50829750879550505050505092915050565b600061067582610868565b61067f8185610891565b935061068f8185602086016108d7565b6106988161099a565b840191505092915050565b60006106ae82610868565b6106b881856108a2565b93506106c88185602086016108d7565b6106d18161099a565b840191505092915050565b60006106e782610868565b6106f181856108b3565b93506107018185602086016108d7565b80840191505092915050565b6000604083016000830151610725600086018261074a565b506020830151848203602086015261073d828261066a565b9150508091505092915050565b610753816108be565b82525050565b610762816108be565b82525050565b600061077482846106dc565b915081905092915050565b6000602082019050818103600083015261079981846105f5565b905092915050565b60006020820190506107b66000830184610759565b92915050565b60006040820190506107d16000830185610759565b81810360208301526107e381846106a3565b90509392505050565b6000604051905081810181811067ffffffffffffffff821117156108135761081261096b565b5b8060405250919050565b600067ffffffffffffffff8211156108385761083761096b565b5b601f19601f8301169050602081019050919050565b6000819050602082019050919050565b600081519050919050565b600081519050919050565b6000602082019050919050565b600082825260208201905092915050565b600082825260208201905092915050565b600082825260208201905092915050565b600081905092915050565b6000819050919050565b82818337600083830152505050565b60005b838110156108f55780820151818401526020810190506108da565b83811115610904576000848401525b50505050565b6000600282049050600182168061092257607f821691505b602082108114156109365761093561093c565b5b50919050565b7f4e487b7100000000000000000000000000000000000000000000000000000000600052602260045260246000fd5b7f4e487b7100000000000000000000000000000000000000000000000000000000600052604160045260246000fd5b6000601f19601f8301169050919050565b6109b4816108be565b81146109bf57600080fd5b5056fea26469706673582212202dd427d8f7b3ee6b9d7f613c5d23f80e092b65e751ceb275d36146472af55daf64736f6c63430008000033",
					"opcodes": "PUSH1 0x80 PUSH1 0x40 MSTORE CALLVALUE DUP1 ISZERO PUSH2 0x10 JUMPI PUSH1 0x0 DUP1 REVERT JUMPDEST POP PUSH2 0x9F8 DUP1 PUSH2 0x20 PUSH1 0x0 CODECOPY PUSH1 0x0 RETURN INVALID PUSH1 0x80 PUSH1 0x40 MSTORE CALLVALUE DUP1 ISZERO PUSH2 0x10 JUMPI PUSH1 0x0 DUP1 REVERT JUMPDEST POP PUSH1 0x4 CALLDATASIZE LT PUSH2 0x7D JUMPI PUSH1 0x0 CALLDATALOAD PUSH1 0xE0 SHR DUP1 PUSH4 0x7B683A74 GT PUSH2 0x5B JUMPI DUP1 PUSH4 0x7B683A74 EQ PUSH2 0xEE JUMPI DUP1 PUSH4 0x9E7A13AD EQ PUSH2 0x10A JUMPI DUP1 PUSH4 0xA6B7FC5B EQ PUSH2 0x13B JUMPI DUP1 PUSH4 0xBC832D4E EQ PUSH2 0x159 JUMPI PUSH2 0x7D JUMP JUMPDEST DUP1 PUSH4 0x6C62C2C EQ PUSH2 0x82 JUMPI DUP1 PUSH4 0x19908DE0 EQ PUSH2 0xB2 JUMPI DUP1 PUSH4 0x4FA10CFC EQ PUSH2 0xD0 JUMPI JUMPDEST PUSH1 0x0 DUP1 REVERT JUMPDEST PUSH2 0x9C PUSH1 0x4 DUP1 CALLDATASIZE SUB DUP2 ADD SWAP1 PUSH2 0x97 SWAP2 SWAP1 PUSH2 0x523 JUMP JUMPDEST PUSH2 0x175 JUMP JUMPDEST PUSH1 0x40 MLOAD PUSH2 0xA9 SWAP2 SWAP1 PUSH2 0x7A1 JUMP JUMPDEST PUSH1 0x40 MLOAD DUP1 SWAP2 SUB SWAP1 RETURN JUMPDEST PUSH2 0xBA PUSH2 0x1A3 JUMP JUMPDEST PUSH1 0x40 MLOAD PUSH2 0xC7 SWAP2 SWAP1 PUSH2 0x7A1 JUMP JUMPDEST PUSH1 0x40 MLOAD DUP1 SWAP2 SUB SWAP1 RETURN JUMPDEST PUSH2 0xD8 PUSH2 0x1A9 JUMP JUMPDEST PUSH1 0x40 MLOAD PUSH2 0xE5 SWAP2 SWAP1 PUSH2 0x77F JUMP JUMPDEST PUSH1 0x40 MLOAD DUP1 SWAP2 SUB SWAP1 RETURN JUMPDEST PUSH2 0x108 PUSH1 0x4 DUP1 CALLDATASIZE SUB DUP2 ADD SWAP1 PUSH2 0x103 SWAP2 SWAP1 PUSH2 0x564 JUMP JUMPDEST PUSH2 0x2A4 JUMP JUMPDEST STOP JUMPDEST PUSH2 0x124 PUSH1 0x4 DUP1 CALLDATASIZE SUB DUP2 ADD SWAP1 PUSH2 0x11F SWAP2 SWAP1 PUSH2 0x564 JUMP JUMPDEST PUSH2 0x2AE JUMP JUMPDEST PUSH1 0x40 MLOAD PUSH2 0x132 SWAP3 SWAP2 SWAP1 PUSH2 0x7BC JUMP JUMPDEST PUSH1 0x40 MLOAD DUP1 SWAP2 SUB SWAP1 RETURN JUMPDEST PUSH2 0x143 PUSH2 0x36A JUMP JUMPDEST PUSH1 0x40 MLOAD PUSH2 0x150 SWAP2 SWAP1 PUSH2 0x7A1 JUMP JUMPDEST PUSH1 0x40 MLOAD DUP1 SWAP2 SUB SWAP1 RETURN JUMPDEST PUSH2 0x173 PUSH1 0x4 DUP1 CALLDATASIZE SUB DUP2 ADD SWAP1 PUSH2 0x16E SWAP2 SWAP1 PUSH2 0x58D JUMP JUMPDEST PUSH2 0x373 JUMP JUMPDEST STOP JUMPDEST PUSH1 0x1 DUP2 DUP1 MLOAD PUSH1 0x20 DUP2 ADD DUP3 ADD DUP1 MLOAD DUP5 DUP3 MSTORE PUSH1 0x20 DUP4 ADD PUSH1 0x20 DUP6 ADD KECCAK256 DUP2 DUP4 MSTORE DUP1 SWAP6 POP POP POP POP POP POP PUSH1 0x0 SWAP2 POP SWAP1 POP SLOAD DUP2 JUMP JUMPDEST PUSH1 0x0 SLOAD DUP2 JUMP JUMPDEST PUSH1 0x60 PUSH1 0x2 DUP1 SLOAD DUP1 PUSH1 0x20 MUL PUSH1 0x20 ADD PUSH1 0x40 MLOAD SWAP1 DUP2 ADD PUSH1 0x40 MSTORE DUP1 SWAP3 SWAP2 SWAP1 DUP2 DUP2 MSTORE PUSH1 0x20 ADD PUSH1 0x0 SWAP1 JUMPDEST DUP3 DUP3 LT ISZERO PUSH2 0x29B JUMPI DUP4 DUP3 SWAP1 PUSH1 0x0 MSTORE PUSH1 0x20 PUSH1 0x0 KECCAK256 SWAP1 PUSH1 0x2 MUL ADD PUSH1 0x40 MLOAD DUP1 PUSH1 0x40 ADD PUSH1 0x40 MSTORE SWAP1 DUP2 PUSH1 0x0 DUP3 ADD SLOAD DUP2 MSTORE PUSH1 0x20 ADD PUSH1 0x1 DUP3 ADD DUP1 SLOAD PUSH2 0x20A SWAP1 PUSH2 0x90A JUMP JUMPDEST DUP1 PUSH1 0x1F ADD PUSH1 0x20 DUP1 SWAP2 DIV MUL PUSH1 0x20 ADD PUSH1 0x40 MLOAD SWAP1 DUP2 ADD PUSH1 0x40 MSTORE DUP1 SWAP3 SWAP2 SWAP1 DUP2 DUP2 MSTORE PUSH1 0x20 ADD DUP3 DUP1 SLOAD PUSH2 0x236 SWAP1 PUSH2 0x90A JUMP JUMPDEST DUP1 ISZERO PUSH2 0x283 JUMPI DUP1 PUSH1 0x1F LT PUSH2 0x258 JUMPI PUSH2 0x100 DUP1 DUP4 SLOAD DIV MUL DUP4 MSTORE SWAP2 PUSH1 0x20 ADD SWAP2 PUSH2 0x283 JUMP JUMPDEST DUP3 ADD SWAP2 SWAP1 PUSH1 0x0 MSTORE PUSH1 0x20 PUSH1 0x0 KECCAK256 SWAP1 JUMPDEST DUP2 SLOAD DUP2 MSTORE SWAP1 PUSH1 0x1 ADD SWAP1 PUSH1 0x20 ADD DUP1 DUP4 GT PUSH2 0x266 JUMPI DUP3 SWAP1 SUB PUSH1 0x1F AND DUP3 ADD SWAP2 JUMPDEST POP POP POP POP POP DUP2 MSTORE POP POP DUP2 MSTORE PUSH1 0x20 ADD SWAP1 PUSH1 0x1 ADD SWAP1 PUSH2 0x1CD JUMP JUMPDEST POP POP POP POP SWAP1 POP SWAP1 JUMP JUMPDEST DUP1 PUSH1 0x0 DUP2 SWAP1 SSTORE POP POP JUMP JUMPDEST PUSH1 0x2 DUP2 DUP2 SLOAD DUP2 LT PUSH2 0x2BE JUMPI PUSH1 0x0 DUP1 REVERT JUMPDEST SWAP1 PUSH1 0x0 MSTORE PUSH1 0x20 PUSH1 0x0 KECCAK256 SWAP1 PUSH1 0x2 MUL ADD PUSH1 0x0 SWAP2 POP SWAP1 POP DUP1 PUSH1 0x0 ADD SLOAD SWAP1 DUP1 PUSH1 0x1 ADD DUP1 SLOAD PUSH2 0x2E7 SWAP1 PUSH2 0x90A JUMP JUMPDEST DUP1 PUSH1 0x1F ADD PUSH1 0x20 DUP1 SWAP2 DIV MUL PUSH1 0x20 ADD PUSH1 0x40 MLOAD SWAP1 DUP2 ADD PUSH1 0x40 MSTORE DUP1 SWAP3 SWAP2 SWAP1 DUP2 DUP2 MSTORE PUSH1 0x20 ADD DUP3 DUP1 SLOAD PUSH2 0x313 SWAP1 PUSH2 0x90A JUMP JUMPDEST DUP1 ISZERO PUSH2 0x360 JUMPI DUP1 PUSH1 0x1F LT PUSH2 0x335 JUMPI PUSH2 0x100 DUP1 DUP4 SLOAD DIV MUL DUP4 MSTORE SWAP2 PUSH1 0x20 ADD SWAP2 PUSH2 0x360 JUMP JUMPDEST DUP3 ADD SWAP2 SWAP1 PUSH1 0x0 MSTORE PUSH1 0x20 PUSH1 0x0 KECCAK256 SWAP1 JUMPDEST DUP2 SLOAD DUP2 MSTORE SWAP1 PUSH1 0x1 ADD SWAP1 PUSH1 0x20 ADD DUP1 DUP4 GT PUSH2 0x343 JUMPI DUP3 SWAP1 SUB PUSH1 0x1F AND DUP3 ADD SWAP2 JUMPDEST POP POP POP POP POP SWAP1 POP DUP3 JUMP JUMPDEST PUSH1 0x0 DUP1 SLOAD SWAP1 POP SWAP1 JUMP JUMPDEST PUSH1 0x2 PUSH1 0x40 MLOAD DUP1 PUSH1 0x40 ADD PUSH1 0x40 MSTORE DUP1 DUP5 DUP2 MSTORE PUSH1 0x20 ADD DUP4 DUP2 MSTORE POP SWAP1 DUP1 PUSH1 0x1 DUP2 SLOAD ADD DUP1 DUP3 SSTORE DUP1 SWAP2 POP POP PUSH1 0x1 SWAP1 SUB SWAP1 PUSH1 0x0 MSTORE PUSH1 0x20 PUSH1 0x0 KECCAK256 SWAP1 PUSH1 0x2 MUL ADD PUSH1 0x0 SWAP1 SWAP2 SWAP1 SWAP2 SWAP1 SWAP2 POP PUSH1 0x0 DUP3 ADD MLOAD DUP2 PUSH1 0x0 ADD SSTORE PUSH1 0x20 DUP3 ADD MLOAD DUP2 PUSH1 0x1 ADD SWAP1 DUP1 MLOAD SWAP1 PUSH1 0x20 ADD SWAP1 PUSH2 0x3D9 SWAP3 SWAP2 SWAP1 PUSH2 0x403 JUMP JUMPDEST POP POP POP DUP2 PUSH1 0x1 DUP3 PUSH1 0x40 MLOAD PUSH2 0x3ED SWAP2 SWAP1 PUSH2 0x768 JUMP JUMPDEST SWAP1 DUP2 MSTORE PUSH1 0x20 ADD PUSH1 0x40 MLOAD DUP1 SWAP2 SUB SWAP1 KECCAK256 DUP2 SWAP1 SSTORE POP POP POP JUMP JUMPDEST DUP3 DUP1 SLOAD PUSH2 0x40F SWAP1 PUSH2 0x90A JUMP JUMPDEST SWAP1 PUSH1 0x0 MSTORE PUSH1 0x20 PUSH1 0x0 KECCAK256 SWAP1 PUSH1 0x1F ADD PUSH1 0x20 SWAP1 DIV DUP2 ADD SWAP3 DUP3 PUSH2 0x431 JUMPI PUSH1 0x0 DUP6 SSTORE PUSH2 0x478 JUMP JUMPDEST DUP3 PUSH1 0x1F LT PUSH2 0x44A JUMPI DUP1 MLOAD PUSH1 0xFF NOT AND DUP4 DUP1 ADD OR DUP6 SSTORE PUSH2 0x478 JUMP JUMPDEST DUP3 DUP1 ADD PUSH1 0x1 ADD DUP6 SSTORE DUP3 ISZERO PUSH2 0x478 JUMPI SWAP2 DUP3 ADD JUMPDEST DUP3 DUP2 GT ISZERO PUSH2 0x477 JUMPI DUP3 MLOAD DUP3 SSTORE SWAP2 PUSH1 0x20 ADD SWAP2 SWAP1 PUSH1 0x1 ADD SWAP1 PUSH2 0x45C JUMP JUMPDEST JUMPDEST POP SWAP1 POP PUSH2 0x485 SWAP2 SWAP1 PUSH2 0x489 JUMP JUMPDEST POP SWAP1 JUMP JUMPDEST JUMPDEST DUP1 DUP3 GT ISZERO PUSH2 0x4A2 JUMPI PUSH1 0x0 DUP2 PUSH1 0x0 SWAP1 SSTORE POP PUSH1 0x1 ADD PUSH2 0x48A JUMP JUMPDEST POP SWAP1 JUMP JUMPDEST PUSH1 0x0 PUSH2 0x4B9 PUSH2 0x4B4 DUP5 PUSH2 0x81D JUMP JUMPDEST PUSH2 0x7EC JUMP JUMPDEST SWAP1 POP DUP3 DUP2 MSTORE PUSH1 0x20 DUP2 ADD DUP5 DUP5 DUP5 ADD GT ISZERO PUSH2 0x4D1 JUMPI PUSH1 0x0 DUP1 REVERT JUMPDEST PUSH2 0x4DC DUP5 DUP3 DUP6 PUSH2 0x8C8 JUMP JUMPDEST POP SWAP4 SWAP3 POP POP POP JUMP JUMPDEST PUSH1 0x0 DUP3 PUSH1 0x1F DUP4 ADD SLT PUSH2 0x4F5 JUMPI PUSH1 0x0 DUP1 REVERT JUMPDEST DUP2 CALLDATALOAD PUSH2 0x505 DUP5 DUP3 PUSH1 0x20 DUP7 ADD PUSH2 0x4A6 JUMP JUMPDEST SWAP2 POP POP SWAP3 SWAP2 POP POP JUMP JUMPDEST PUSH1 0x0 DUP2 CALLDATALOAD SWAP1 POP PUSH2 0x51D DUP2 PUSH2 0x9AB JUMP JUMPDEST SWAP3 SWAP2 POP POP JUMP JUMPDEST PUSH1 0x0 PUSH1 0x20 DUP3 DUP5 SUB SLT ISZERO PUSH2 0x535 JUMPI PUSH1 0x0 DUP1 REVERT JUMPDEST PUSH1 0x0 DUP3 ADD CALLDATALOAD PUSH8 0xFFFFFFFFFFFFFFFF DUP2 GT ISZERO PUSH2 0x54F JUMPI PUSH1 0x0 DUP1 REVERT JUMPDEST PUSH2 0x55B DUP5 DUP3 DUP6 ADD PUSH2 0x4E4 JUMP JUMPDEST SWAP2 POP POP SWAP3 SWAP2 POP POP JUMP JUMPDEST PUSH1 0x0 PUSH1 0x20 DUP3 DUP5 SUB SLT ISZERO PUSH2 0x576 JUMPI PUSH1 0x0 DUP1 REVERT JUMPDEST PUSH1 0x0 PUSH2 0x584 DUP5 DUP3 DUP6 ADD PUSH2 0x50E JUMP JUMPDEST SWAP2 POP POP SWAP3 SWAP2 POP POP JUMP JUMPDEST PUSH1 0x0 DUP1 PUSH1 0x40 DUP4 DUP6 SUB SLT ISZERO PUSH2 0x5A0 JUMPI PUSH1 0x0 DUP1 REVERT JUMPDEST PUSH1 0x0 PUSH2 0x5AE DUP6 DUP3 DUP7 ADD PUSH2 0x50E JUMP JUMPDEST SWAP3 POP POP PUSH1 0x20 DUP4 ADD CALLDATALOAD PUSH8 0xFFFFFFFFFFFFFFFF DUP2 GT ISZERO PUSH2 0x5CB JUMPI PUSH1 0x0 DUP1 REVERT JUMPDEST PUSH2 0x5D7 DUP6 DUP3 DUP7 ADD PUSH2 0x4E4 JUMP JUMPDEST SWAP2 POP POP SWAP3 POP SWAP3 SWAP1 POP JUMP JUMPDEST PUSH1 0x0 PUSH2 0x5ED DUP4 DUP4 PUSH2 0x70D JUMP JUMPDEST SWAP1 POP SWAP3 SWAP2 POP POP JUMP JUMPDEST PUSH1 0x0 PUSH2 0x600 DUP3 PUSH2 0x85D JUMP JUMPDEST PUSH2 0x60A DUP2 DUP6 PUSH2 0x880 JUMP JUMPDEST SWAP4 POP DUP4 PUSH1 0x20 DUP3 MUL DUP6 ADD PUSH2 0x61C DUP6 PUSH2 0x84D JUMP JUMPDEST DUP1 PUSH1 0x0 JUMPDEST DUP6 DUP2 LT ISZERO PUSH2 0x658 JUMPI DUP5 DUP5 SUB DUP10 MSTORE DUP2 MLOAD PUSH2 0x639 DUP6 DUP3 PUSH2 0x5E1 JUMP JUMPDEST SWAP5 POP PUSH2 0x644 DUP4 PUSH2 0x873 JUMP JUMPDEST SWAP3 POP PUSH1 0x20 DUP11 ADD SWAP10 POP POP PUSH1 0x1 DUP2 ADD SWAP1 POP PUSH2 0x620 JUMP JUMPDEST POP DUP3 SWAP8 POP DUP8 SWAP6 POP POP POP POP POP POP SWAP3 SWAP2 POP POP JUMP JUMPDEST PUSH1 0x0 PUSH2 0x675 DUP3 PUSH2 0x868 JUMP JUMPDEST PUSH2 0x67F DUP2 DUP6 PUSH2 0x891 JUMP JUMPDEST SWAP4 POP PUSH2 0x68F DUP2 DUP6 PUSH1 0x20 DUP7 ADD PUSH2 0x8D7 JUMP JUMPDEST PUSH2 0x698 DUP2 PUSH2 0x99A JUMP JUMPDEST DUP5 ADD SWAP2 POP POP SWAP3 SWAP2 POP POP JUMP JUMPDEST PUSH1 0x0 PUSH2 0x6AE DUP3 PUSH2 0x868 JUMP JUMPDEST PUSH2 0x6B8 DUP2 DUP6 PUSH2 0x8A2 JUMP JUMPDEST SWAP4 POP PUSH2 0x6C8 DUP2 DUP6 PUSH1 0x20 DUP7 ADD PUSH2 0x8D7 JUMP JUMPDEST PUSH2 0x6D1 DUP2 PUSH2 0x99A JUMP JUMPDEST DUP5 ADD SWAP2 POP POP SWAP3 SWAP2 POP POP JUMP JUMPDEST PUSH1 0x0 PUSH2 0x6E7 DUP3 PUSH2 0x868 JUMP JUMPDEST PUSH2 0x6F1 DUP2 DUP6 PUSH2 0x8B3 JUMP JUMPDEST SWAP4 POP PUSH2 0x701 DUP2 DUP6 PUSH1 0x20 DUP7 ADD PUSH2 0x8D7 JUMP JUMPDEST DUP1 DUP5 ADD SWAP2 POP POP SWAP3 SWAP2 POP POP JUMP JUMPDEST PUSH1 0x0 PUSH1 0x40 DUP4 ADD PUSH1 0x0 DUP4 ADD MLOAD PUSH2 0x725 PUSH1 0x0 DUP7 ADD DUP3 PUSH2 0x74A JUMP JUMPDEST POP PUSH1 0x20 DUP4 ADD MLOAD DUP5 DUP3 SUB PUSH1 0x20 DUP7 ADD MSTORE PUSH2 0x73D DUP3 DUP3 PUSH2 0x66A JUMP JUMPDEST SWAP2 POP POP DUP1 SWAP2 POP POP SWAP3 SWAP2 POP POP JUMP JUMPDEST PUSH2 0x753 DUP2 PUSH2 0x8BE JUMP JUMPDEST DUP3 MSTORE POP POP JUMP JUMPDEST PUSH2 0x762 DUP2 PUSH2 0x8BE JUMP JUMPDEST DUP3 MSTORE POP POP JUMP JUMPDEST PUSH1 0x0 PUSH2 0x774 DUP3 DUP5 PUSH2 0x6DC JUMP JUMPDEST SWAP2 POP DUP2 SWAP1 POP SWAP3 SWAP2 POP POP JUMP JUMPDEST PUSH1 0x0 PUSH1 0x20 DUP3 ADD SWAP1 POP DUP2 DUP2 SUB PUSH1 0x0 DUP4 ADD MSTORE PUSH2 0x799 DUP2 DUP5 PUSH2 0x5F5 JUMP JUMPDEST SWAP1 POP SWAP3 SWAP2 POP POP JUMP JUMPDEST PUSH1 0x0 PUSH1 0x20 DUP3 ADD SWAP1 POP PUSH2 0x7B6 PUSH1 0x0 DUP4 ADD DUP5 PUSH2 0x759 JUMP JUMPDEST SWAP3 SWAP2 POP POP JUMP JUMPDEST PUSH1 0x0 PUSH1 0x40 DUP3 ADD SWAP1 POP PUSH2 0x7D1 PUSH1 0x0 DUP4 ADD DUP6 PUSH2 0x759 JUMP JUMPDEST DUP2 DUP2 SUB PUSH1 0x20 DUP4 ADD MSTORE PUSH2 0x7E3 DUP2 DUP5 PUSH2 0x6A3 JUMP JUMPDEST SWAP1 POP SWAP4 SWAP3 POP POP POP JUMP JUMPDEST PUSH1 0x0 PUSH1 0x40 MLOAD SWAP1 POP DUP2 DUP2 ADD DUP2 DUP2 LT PUSH8 0xFFFFFFFFFFFFFFFF DUP3 GT OR ISZERO PUSH2 0x813 JUMPI PUSH2 0x812 PUSH2 0x96B JUMP JUMPDEST JUMPDEST DUP1 PUSH1 0x40 MSTORE POP SWAP2 SWAP1 POP JUMP JUMPDEST PUSH1 0x0 PUSH8 0xFFFFFFFFFFFFFFFF DUP3 GT ISZERO PUSH2 0x838 JUMPI PUSH2 0x837 PUSH2 0x96B JUMP JUMPDEST JUMPDEST PUSH1 0x1F NOT PUSH1 0x1F DUP4 ADD AND SWAP1 POP PUSH1 0x20 DUP2 ADD SWAP1 POP SWAP2 SWAP1 POP JUMP JUMPDEST PUSH1 0x0 DUP2 SWAP1 POP PUSH1 0x20 DUP3 ADD SWAP1 POP SWAP2 SWAP1 POP JUMP JUMPDEST PUSH1 0x0 DUP2 MLOAD SWAP1 POP SWAP2 SWAP1 POP JUMP JUMPDEST PUSH1 0x0 DUP2 MLOAD SWAP1 POP SWAP2 SWAP1 POP JUMP JUMPDEST PUSH1 0x0 PUSH1 0x20 DUP3 ADD SWAP1 POP SWAP2 SWAP1 POP JUMP JUMPDEST PUSH1 0x0 DUP3 DUP3 MSTORE PUSH1 0x20 DUP3 ADD SWAP1 POP SWAP3 SWAP2 POP POP JUMP JUMPDEST PUSH1 0x0 DUP3 DUP3 MSTORE PUSH1 0x20 DUP3 ADD SWAP1 POP SWAP3 SWAP2 POP POP JUMP JUMPDEST PUSH1 0x0 DUP3 DUP3 MSTORE PUSH1 0x20 DUP3 ADD SWAP1 POP SWAP3 SWAP2 POP POP JUMP JUMPDEST PUSH1 0x0 DUP2 SWAP1 POP SWAP3 SWAP2 POP POP JUMP JUMPDEST PUSH1 0x0 DUP2 SWAP1 POP SWAP2 SWAP1 POP JUMP JUMPDEST DUP3 DUP2 DUP4 CALLDATACOPY PUSH1 0x0 DUP4 DUP4 ADD MSTORE POP POP POP JUMP JUMPDEST PUSH1 0x0 JUMPDEST DUP4 DUP2 LT ISZERO PUSH2 0x8F5 JUMPI DUP1 DUP3 ADD MLOAD DUP2 DUP5 ADD MSTORE PUSH1 0x20 DUP2 ADD SWAP1 POP PUSH2 0x8DA JUMP JUMPDEST DUP4 DUP2 GT ISZERO PUSH2 0x904 JUMPI PUSH1 0x0 DUP5 DUP5 ADD MSTORE JUMPDEST POP POP POP POP JUMP JUMPDEST PUSH1 0x0 PUSH1 0x2 DUP3 DIV SWAP1 POP PUSH1 0x1 DUP3 AND DUP1 PUSH2 0x922 JUMPI PUSH1 0x7F DUP3 AND SWAP2 POP JUMPDEST PUSH1 0x20 DUP3 LT DUP2 EQ ISZERO PUSH2 0x936 JUMPI PUSH2 0x935 PUSH2 0x93C JUMP JUMPDEST JUMPDEST POP SWAP2 SWAP1 POP JUMP JUMPDEST PUSH32 0x4E487B7100000000000000000000000000000000000000000000000000000000 PUSH1 0x0 MSTORE PUSH1 0x22 PUSH1 0x4 MSTORE PUSH1 0x24 PUSH1 0x0 REVERT JUMPDEST PUSH32 0x4E487B7100000000000000000000000000000000000000000000000000000000 PUSH1 0x0 MSTORE PUSH1 0x41 PUSH1 0x4 MSTORE PUSH1 0x24 PUSH1 0x0 REVERT JUMPDEST PUSH1 0x0 PUSH1 0x1F NOT PUSH1 0x1F DUP4 ADD AND SWAP1 POP SWAP2 SWAP1 POP JUMP JUMPDEST PUSH2 0x9B4 DUP2 PUSH2 0x8BE JUMP JUMPDEST DUP2 EQ PUSH2 0x9BF JUMPI PUSH1 0x0 DUP1 REVERT JUMPDEST POP JUMP INVALID LOG2 PUSH5 0x6970667358 0x22 SLT KECCAK256 0x2D 0xD4 0x27 0xD8 0xF7 0xB3 0xEE PUSH12 0x9D7F613C5D23F80E092B65E7 MLOAD 0xCE 0xB2 PUSH22 0xD36146472AF55DAF64736F6C63430008000033000000 "
				},
				"gasEstimates": {
					"creation": {
						"codeDepositCost": "510400",
						"executionCost": "543",
						"totalCost": "510943"
					},
					"external": {
						"addPerson(uint256,string)": "infinite",
						"favnum()": "1152",
						"getdata()": "infinite",
						"nameToFavNum(string)": "infinite",
						"people(uint256)": "infinite",
						"retrive()": "1181",
						"storing(uint256)": "20420"
					}
				},
				"methodIdentifiers": {
					"addPerson(uint256,string)": "bc832d4e",
					"favnum()": "19908de0",
					"getdata()": "4fa10cfc",
					"nameToFavNum(string)": "06c62c2c",
					"people(uint256)": "9e7a13ad",
					"retrive()": "a6b7fc5b",
					"storing(uint256)": "7b683a74"
				}
			},
			"storageLayout": {
				"storage": [
					{
						"astId": 3,
						"contract": "contracts/simplestore.sol:store",
						"label": "favnum",
						"offset": 0,
						"slot": "0",
						"type": "t_uint256"
					},
					{
						"astId": 22,
						"contract": "contracts/simplestore.sol:store",
						"label": "nameToFavNum",
						"offset": 0,
						"slot": "1",
						"type": "t_mapping(t_string_memory_ptr,t_uint256)"
					},
					{
						"astId": 26,
						"contract": "contracts/simplestore.sol:store",
						"label": "people",
						"offset": 0,
						"slot": "2",
						"type": "t_array(t_struct(People)18_storage)dyn_storage"
					}
				],
				"types": {
					"t_array(t_struct(People)18_storage)dyn_storage": {
						"base": "t_struct(People)18_storage",
						"encoding": "dynamic_array",
						"label": "struct store.People[]",
						"numberOfBytes": "32"
					},
					"t_mapping(t_string_memory_ptr,t_uint256)": {
						"encoding": "mapping",
						"key": "t_string_memory_ptr",
						"label": "mapping(string => uint256)",
						"numberOfBytes": "32",
						"value": "t_uint256"
					},
					"t_string_memory_ptr": {
						"encoding": "bytes",
						"label": "string",
						"numberOfBytes": "32"
					},
					"t_string_storage": {
						"encoding": "bytes",
						"label": "string",
						"numberOfBytes": "32"
					},
					"t_struct(People)18_storage": {
						"encoding": "inplace",
						"label": "struct store.People",
						"members": [
							{
								"astId": 15,
								"contract": "contracts/simplestore.sol:store",
								"label": "favnum",
								"offset": 0,
								"slot": "0",
								"type": "t_uint256"
							},
							{
								"astId": 17,
								"contract": "contracts/simplestore.sol:store",
								"label": "name",
								"offset": 0,
								"slot": "1",
								"type": "t_string_storage"
							}
						],
						"numberOfBytes": "64"
					},
					"t_uint256": {
						"encoding": "inplace",
						"label": "uint256",
						"numberOfBytes": "32"
					}
				}
			},
			"userdoc": {
				"kind": "user",
				"methods": {},
				"version": 1
			}
		}
	}
}