{
	"contracts/Simplestorage.sol": {
		"SimpleBank": {
			"abi": [
				{
					"inputs": [
						{
							"internalType": "address",
							"name": "",
							"type": "address"
						}
					],
					"name": "balances",
					"outputs": [
						{
							"internalType": "uint256",
							"name": "",
							"type": "uint256"
						}
					],
					"stateMutability": "view",
					"type": "function"
				},
				{
					"inputs": [],
					"name": "deposit",
					"outputs": [],
					"stateMutability": "payable",
					"type": "function"
				},
				{
					"inputs": [
						{
							"internalType": "uint256",
							"name": "amount",
							"type": "uint256"
						}
					],
					"name": "withdraw",
					"outputs": [],
					"stateMutability": "nonpayable",
					"type": "function"
				}
			],
			"devdoc": {
				"kind": "dev",
				"methods": {},
				"version": 1
			},
			"evm": {
				"assembly": "    /* \"contracts/Simplestorage.sol\":57:425  contract SimpleBank {... */\n  mstore(0x40, 0x80)\n  callvalue\n  dup1\n  iszero\n  tag_1\n  jumpi\n  0x00\n  dup1\n  revert\ntag_1:\n  pop\n  dataSize(sub_0)\n  dup1\n  dataOffset(sub_0)\n  0x00\n  codecopy\n  0x00\n  return\nstop\n\nsub_0: assembly {\n        /* \"contracts/Simplestorage.sol\":57:425  contract SimpleBank {... */\n      mstore(0x40, 0x80)\n      jumpi(tag_1, lt(calldatasize, 0x04))\n      shr(0xe0, calldataload(0x00))\n      dup1\n      0x27e235e3\n      eq\n      tag_2\n      jumpi\n      dup1\n      0x2e1a7d4d\n      eq\n      tag_3\n      jumpi\n      dup1\n      0xd0e30db0\n      eq\n      tag_4\n      jumpi\n    tag_1:\n      0x00\n      dup1\n      revert\n        /* \"contracts/Simplestorage.sol\":84:124  mapping(address => uint) public balances */\n    tag_2:\n      callvalue\n      dup1\n      iszero\n      tag_5\n      jumpi\n      0x00\n      dup1\n      revert\n    tag_5:\n      pop\n      tag_6\n      0x04\n      dup1\n      calldatasize\n      sub\n      dup2\n      add\n      swap1\n      tag_7\n      swap2\n      swap1\n      tag_8\n      jump\t// in\n    tag_7:\n      tag_9\n      jump\t// in\n    tag_6:\n      mload(0x40)\n      tag_10\n      swap2\n      swap1\n      tag_11\n      jump\t// in\n    tag_10:\n      mload(0x40)\n      dup1\n      swap2\n      sub\n      swap1\n      return\n        /* \"contracts/Simplestorage.sol\":221:423  function withdraw(uint amount) public {... */\n    tag_3:\n      callvalue\n      dup1\n      iszero\n      tag_12\n      jumpi\n      0x00\n      dup1\n      revert\n    tag_12:\n      pop\n      tag_13\n      0x04\n      dup1\n      calldatasize\n      sub\n      dup2\n      add\n      swap1\n      tag_14\n      swap2\n      swap1\n      tag_15\n      jump\t// in\n    tag_14:\n      tag_16\n      jump\t// in\n    tag_13:\n      stop\n        /* \"contracts/Simplestorage.sol\":131:215  function deposit() public payable {... */\n    tag_4:\n      tag_17\n      tag_18\n      jump\t// in\n    tag_17:\n      stop\n        /* \"contracts/Simplestorage.sol\":84:124  mapping(address => uint) public balances */\n    tag_9:\n      mstore(0x20, 0x00)\n      dup1\n      0x00\n      mstore\n      keccak256(0x00, 0x40)\n      0x00\n      swap2\n      pop\n      swap1\n      pop\n      sload\n      dup2\n      jump\t// out\n        /* \"contracts/Simplestorage.sol\":221:423  function withdraw(uint amount) public {... */\n    tag_16:\n        /* \"contracts/Simplestorage.sol\":301:307  amount */\n      dup1\n        /* \"contracts/Simplestorage.sol\":277:285  balances */\n      0x00\n        /* \"contracts/Simplestorage.sol\":277:297  balances[msg.sender] */\n      dup1\n        /* \"contracts/Simplestorage.sol\":286:296  msg.sender */\n      caller\n        /* \"contracts/Simplestorage.sol\":277:297  balances[msg.sender] */\n      0xffffffffffffffffffffffffffffffffffffffff\n      and\n      0xffffffffffffffffffffffffffffffffffffffff\n      and\n      dup2\n      mstore\n      0x20\n      add\n      swap1\n      dup2\n      mstore\n      0x20\n      add\n      0x00\n      keccak256\n      sload\n        /* \"contracts/Simplestorage.sol\":277:307  balances[msg.sender] >= amount */\n      lt\n      iszero\n        /* \"contracts/Simplestorage.sol\":269:330  require(balances[msg.sender] >= amount, \"Not enough balance\") */\n      tag_20\n      jumpi\n      mload(0x40)\n      0x08c379a000000000000000000000000000000000000000000000000000000000\n      dup2\n      mstore\n      0x04\n      add\n      tag_21\n      swap1\n      tag_22\n      jump\t// in\n    tag_21:\n      mload(0x40)\n      dup1\n      swap2\n      sub\n      swap1\n      revert\n    tag_20:\n        /* \"contracts/Simplestorage.sol\":364:370  amount */\n      dup1\n        /* \"contracts/Simplestorage.sol\":340:348  balances */\n      0x00\n        /* \"contracts/Simplestorage.sol\":340:360  balances[msg.sender] */\n      dup1\n        /* \"contracts/Simplestorage.sol\":349:359  msg.sender */\n      caller\n        /* \"contracts/Simplestorage.sol\":340:360  balances[msg.sender] */\n      0xffffffffffffffffffffffffffffffffffffffff\n      and\n      0xffffffffffffffffffffffffffffffffffffffff\n      and\n      dup2\n      mstore\n      0x20\n      add\n      swap1\n      dup2\n      mstore\n      0x20\n      add\n      0x00\n      keccak256\n      0x00\n        /* \"contracts/Simplestorage.sol\":340:370  balances[msg.sender] -= amount */\n      dup3\n      dup3\n      sload\n      tag_23\n      swap2\n      swap1\n      tag_24\n      jump\t// in\n    tag_23:\n      swap3\n      pop\n      pop\n      dup2\n      swap1\n      sstore\n      pop\n        /* \"contracts/Simplestorage.sol\":388:398  msg.sender */\n      caller\n        /* \"contracts/Simplestorage.sol\":380:408  payable(msg.sender).transfer */\n      0xffffffffffffffffffffffffffffffffffffffff\n      and\n        /* \"contracts/Simplestorage.sol\":380:416  payable(msg.sender).transfer(amount) */\n      0x08fc\n        /* \"contracts/Simplestorage.sol\":409:415  amount */\n      dup3\n        /* \"contracts/Simplestorage.sol\":380:416  payable(msg.sender).transfer(amount) */\n      swap1\n      dup2\n      iszero\n      mul\n      swap1\n      mload(0x40)\n      0x00\n      mload(0x40)\n      dup1\n      dup4\n      sub\n      dup2\n      dup6\n      dup9\n      dup9\n      call\n      swap4\n      pop\n      pop\n      pop\n      pop\n      iszero\n      dup1\n      iszero\n      tag_26\n      jumpi\n      returndatasize\n      0x00\n      dup1\n      returndatacopy\n      revert(0x00, returndatasize)\n    tag_26:\n      pop\n        /* \"contracts/Simplestorage.sol\":221:423  function withdraw(uint amount) public {... */\n      pop\n      jump\t// out\n        /* \"contracts/Simplestorage.sol\":131:215  function deposit() public payable {... */\n    tag_18:\n        /* \"contracts/Simplestorage.sol\":199:208  msg.value */\n      callvalue\n        /* \"contracts/Simplestorage.sol\":175:183  balances */\n      0x00\n        /* \"contracts/Simplestorage.sol\":175:195  balances[msg.sender] */\n      dup1\n        /* \"contracts/Simplestorage.sol\":184:194  msg.sender */\n      caller\n        /* \"contracts/Simplestorage.sol\":175:195  balances[msg.sender] */\n      0xffffffffffffffffffffffffffffffffffffffff\n      and\n      0xffffffffffffffffffffffffffffffffffffffff\n      and\n      dup2\n      mstore\n      0x20\n      add\n      swap1\n      dup2\n      mstore\n      0x20\n      add\n      0x00\n      keccak256\n      0x00\n        /* \"contracts/Simplestorage.sol\":175:208  balances[msg.sender] += msg.value */\n      dup3\n      dup3\n      sload\n      tag_28\n      swap2\n      swap1\n      tag_29\n      jump\t// in\n    tag_28:\n      swap3\n      pop\n      pop\n      dup2\n      swap1\n      sstore\n      pop\n        /* \"contracts/Simplestorage.sol\":131:215  function deposit() public payable {... */\n      jump\t// out\n        /* \"#utility.yul\":7:146   */\n    tag_31:\n      0x00\n        /* \"#utility.yul\":91:97   */\n      dup2\n        /* \"#utility.yul\":78:98   */\n      calldataload\n        /* \"#utility.yul\":69:98   */\n      swap1\n      pop\n        /* \"#utility.yul\":107:140   */\n      tag_33\n        /* \"#utility.yul\":134:139   */\n      dup2\n        /* \"#utility.yul\":107:140   */\n      tag_34\n      jump\t// in\n    tag_33:\n        /* \"#utility.yul\":59:146   */\n      swap3\n      swap2\n      pop\n      pop\n      jump\t// out\n        /* \"#utility.yul\":152:291   */\n    tag_35:\n      0x00\n        /* \"#utility.yul\":236:242   */\n      dup2\n        /* \"#utility.yul\":223:243   */\n      calldataload\n        /* \"#utility.yul\":214:243   */\n      swap1\n      pop\n        /* \"#utility.yul\":252:285   */\n      tag_37\n        /* \"#utility.yul\":279:284   */\n      dup2\n        /* \"#utility.yul\":252:285   */\n      tag_38\n      jump\t// in\n    tag_37:\n        /* \"#utility.yul\":204:291   */\n      swap3\n      swap2\n      pop\n      pop\n      jump\t// out\n        /* \"#utility.yul\":297:559   */\n    tag_8:\n      0x00\n        /* \"#utility.yul\":405:407   */\n      0x20\n        /* \"#utility.yul\":393:402   */\n      dup3\n        /* \"#utility.yul\":384:391   */\n      dup5\n        /* \"#utility.yul\":380:403   */\n      sub\n        /* \"#utility.yul\":376:408   */\n      slt\n        /* \"#utility.yul\":373:375   */\n      iszero\n      tag_40\n      jumpi\n        /* \"#utility.yul\":421:422   */\n      0x00\n        /* \"#utility.yul\":418:419   */\n      dup1\n        /* \"#utility.yul\":411:423   */\n      revert\n        /* \"#utility.yul\":373:375   */\n    tag_40:\n        /* \"#utility.yul\":464:465   */\n      0x00\n        /* \"#utility.yul\":489:542   */\n      tag_41\n        /* \"#utility.yul\":534:541   */\n      dup5\n        /* \"#utility.yul\":525:531   */\n      dup3\n        /* \"#utility.yul\":514:523   */\n      dup6\n        /* \"#utility.yul\":510:532   */\n      add\n        /* \"#utility.yul\":489:542   */\n      tag_31\n      jump\t// in\n    tag_41:\n        /* \"#utility.yul\":479:542   */\n      swap2\n      pop\n        /* \"#utility.yul\":435:552   */\n      pop\n        /* \"#utility.yul\":363:559   */\n      swap3\n      swap2\n      pop\n      pop\n      jump\t// out\n        /* \"#utility.yul\":565:827   */\n    tag_15:\n      0x00\n        /* \"#utility.yul\":673:675   */\n      0x20\n        /* \"#utility.yul\":661:670   */\n      dup3\n        /* \"#utility.yul\":652:659   */\n      dup5\n        /* \"#utility.yul\":648:671   */\n      sub\n        /* \"#utility.yul\":644:676   */\n      slt\n        /* \"#utility.yul\":641:643   */\n      iszero\n      tag_43\n      jumpi\n        /* \"#utility.yul\":689:690   */\n      0x00\n        /* \"#utility.yul\":686:687   */\n      dup1\n        /* \"#utility.yul\":679:691   */\n      revert\n        /* \"#utility.yul\":641:643   */\n    tag_43:\n        /* \"#utility.yul\":732:733   */\n      0x00\n        /* \"#utility.yul\":757:810   */\n      tag_44\n        /* \"#utility.yul\":802:809   */\n      dup5\n        /* \"#utility.yul\":793:799   */\n      dup3\n        /* \"#utility.yul\":782:791   */\n      dup6\n        /* \"#utility.yul\":778:800   */\n      add\n        /* \"#utility.yul\":757:810   */\n      tag_35\n      jump\t// in\n    tag_44:\n        /* \"#utility.yul\":747:810   */\n      swap2\n      pop\n        /* \"#utility.yul\":703:820   */\n      pop\n        /* \"#utility.yul\":631:827   */\n      swap3\n      swap2\n      pop\n      pop\n      jump\t// out\n        /* \"#utility.yul\":833:1149   */\n    tag_45:\n      0x00\n        /* \"#utility.yul\":996:1063   */\n      tag_47\n        /* \"#utility.yul\":1060:1062   */\n      0x12\n        /* \"#utility.yul\":1055:1058   */\n      dup4\n        /* \"#utility.yul\":996:1063   */\n      tag_48\n      jump\t// in\n    tag_47:\n        /* \"#utility.yul\":989:1063   */\n      swap2\n      pop\n        /* \"#utility.yul\":1093:1113   */\n      0x4e6f7420656e6f7567682062616c616e63650000000000000000000000000000\n        /* \"#utility.yul\":1089:1090   */\n      0x00\n        /* \"#utility.yul\":1084:1087   */\n      dup4\n        /* \"#utility.yul\":1080:1091   */\n      add\n        /* \"#utility.yul\":1073:1114   */\n      mstore\n        /* \"#utility.yul\":1140:1142   */\n      0x20\n        /* \"#utility.yul\":1135:1138   */\n      dup3\n        /* \"#utility.yul\":1131:1143   */\n      add\n        /* \"#utility.yul\":1124:1143   */\n      swap1\n      pop\n        /* \"#utility.yul\":979:1149   */\n      swap2\n      swap1\n      pop\n      jump\t// out\n        /* \"#utility.yul\":1155:1273   */\n    tag_49:\n        /* \"#utility.yul\":1242:1266   */\n      tag_51\n        /* \"#utility.yul\":1260:1265   */\n      dup2\n        /* \"#utility.yul\":1242:1266   */\n      tag_52\n      jump\t// in\n    tag_51:\n        /* \"#utility.yul\":1237:1240   */\n      dup3\n        /* \"#utility.yul\":1230:1267   */\n      mstore\n        /* \"#utility.yul\":1220:1273   */\n      pop\n      pop\n      jump\t// out\n        /* \"#utility.yul\":1279:1698   */\n    tag_22:\n      0x00\n        /* \"#utility.yul\":1483:1485   */\n      0x20\n        /* \"#utility.yul\":1472:1481   */\n      dup3\n        /* \"#utility.yul\":1468:1486   */\n      add\n        /* \"#utility.yul\":1460:1486   */\n      swap1\n      pop\n        /* \"#utility.yul\":1532:1541   */\n      dup2\n        /* \"#utility.yul\":1526:1530   */\n      dup2\n        /* \"#utility.yul\":1522:1542   */\n      sub\n        /* \"#utility.yul\":1518:1519   */\n      0x00\n        /* \"#utility.yul\":1507:1516   */\n      dup4\n        /* \"#utility.yul\":1503:1520   */\n      add\n        /* \"#utility.yul\":1496:1543   */\n      mstore\n        /* \"#utility.yul\":1560:1691   */\n      tag_54\n        /* \"#utility.yul\":1686:1690   */\n      dup2\n        /* \"#utility.yul\":1560:1691   */\n      tag_45\n      jump\t// in\n    tag_54:\n        /* \"#utility.yul\":1552:1691   */\n      swap1\n      pop\n        /* \"#utility.yul\":1450:1698   */\n      swap2\n      swap1\n      pop\n      jump\t// out\n        /* \"#utility.yul\":1704:1926   */\n    tag_11:\n      0x00\n        /* \"#utility.yul\":1835:1837   */\n      0x20\n        /* \"#utility.yul\":1824:1833   */\n      dup3\n        /* \"#utility.yul\":1820:1838   */\n      add\n        /* \"#utility.yul\":1812:1838   */\n      swap1\n      pop\n        /* \"#utility.yul\":1848:1919   */\n      tag_56\n        /* \"#utility.yul\":1916:1917   */\n      0x00\n        /* \"#utility.yul\":1905:1914   */\n      dup4\n        /* \"#utility.yul\":1901:1918   */\n      add\n        /* \"#utility.yul\":1892:1898   */\n      dup5\n        /* \"#utility.yul\":1848:1919   */\n      tag_49\n      jump\t// in\n    tag_56:\n        /* \"#utility.yul\":1802:1926   */\n      swap3\n      swap2\n      pop\n      pop\n      jump\t// out\n        /* \"#utility.yul\":1932:2101   */\n    tag_48:\n      0x00\n        /* \"#utility.yul\":2050:2056   */\n      dup3\n        /* \"#utility.yul\":2045:2048   */\n      dup3\n        /* \"#utility.yul\":2038:2057   */\n      mstore\n        /* \"#utility.yul\":2090:2094   */\n      0x20\n        /* \"#utility.yul\":2085:2088   */\n      dup3\n        /* \"#utility.yul\":2081:2095   */\n      add\n        /* \"#utility.yul\":2066:2095   */\n      swap1\n      pop\n        /* \"#utility.yul\":2028:2101   */\n      swap3\n      swap2\n      pop\n      pop\n      jump\t// out\n        /* \"#utility.yul\":2107:2412   */\n    tag_29:\n      0x00\n        /* \"#utility.yul\":2166:2186   */\n      tag_59\n        /* \"#utility.yul\":2184:2185   */\n      dup3\n        /* \"#utility.yul\":2166:2186   */\n      tag_52\n      jump\t// in\n    tag_59:\n        /* \"#utility.yul\":2161:2186   */\n      swap2\n      pop\n        /* \"#utility.yul\":2200:2220   */\n      tag_60\n        /* \"#utility.yul\":2218:2219   */\n      dup4\n        /* \"#utility.yul\":2200:2220   */\n      tag_52\n      jump\t// in\n    tag_60:\n        /* \"#utility.yul\":2195:2220   */\n      swap3\n      pop\n        /* \"#utility.yul\":2354:2355   */\n      dup3\n        /* \"#utility.yul\":2286:2352   */\n      0xffffffffffffffffffffffffffffffffffffffffffffffffffffffffffffffff\n        /* \"#utility.yul\":2282:2356   */\n      sub\n        /* \"#utility.yul\":2279:2280   */\n      dup3\n        /* \"#utility.yul\":2276:2357   */\n      gt\n        /* \"#utility.yul\":2273:2275   */\n      iszero\n      tag_61\n      jumpi\n        /* \"#utility.yul\":2360:2378   */\n      tag_62\n      tag_63\n      jump\t// in\n    tag_62:\n        /* \"#utility.yul\":2273:2275   */\n    tag_61:\n        /* \"#utility.yul\":2404:2405   */\n      dup3\n        /* \"#utility.yul\":2401:2402   */\n      dup3\n        /* \"#utility.yul\":2397:2406   */\n      add\n        /* \"#utility.yul\":2390:2406   */\n      swap1\n      pop\n        /* \"#utility.yul\":2151:2412   */\n      swap3\n      swap2\n      pop\n      pop\n      jump\t// out\n        /* \"#utility.yul\":2418:2609   */\n    tag_24:\n      0x00\n        /* \"#utility.yul\":2478:2498   */\n      tag_65\n        /* \"#utility.yul\":2496:2497   */\n      dup3\n        /* \"#utility.yul\":2478:2498   */\n      tag_52\n      jump\t// in\n    tag_65:\n        /* \"#utility.yul\":2473:2498   */\n      swap2\n      pop\n        /* \"#utility.yul\":2512:2532   */\n      tag_66\n        /* \"#utility.yul\":2530:2531   */\n      dup4\n        /* \"#utility.yul\":2512:2532   */\n      tag_52\n      jump\t// in\n    tag_66:\n        /* \"#utility.yul\":2507:2532   */\n      swap3\n      pop\n        /* \"#utility.yul\":2551:2552   */\n      dup3\n        /* \"#utility.yul\":2548:2549   */\n      dup3\n        /* \"#utility.yul\":2545:2553   */\n      lt\n        /* \"#utility.yul\":2542:2544   */\n      iszero\n      tag_67\n      jumpi\n        /* \"#utility.yul\":2556:2574   */\n      tag_68\n      tag_63\n      jump\t// in\n    tag_68:\n        /* \"#utility.yul\":2542:2544   */\n    tag_67:\n        /* \"#utility.yul\":2601:2602   */\n      dup3\n        /* \"#utility.yul\":2598:2599   */\n      dup3\n        /* \"#utility.yul\":2594:2603   */\n      sub\n        /* \"#utility.yul\":2586:2603   */\n      swap1\n      pop\n        /* \"#utility.yul\":2463:2609   */\n      swap3\n      swap2\n      pop\n      pop\n      jump\t// out\n        /* \"#utility.yul\":2615:2711   */\n    tag_69:\n      0x00\n        /* \"#utility.yul\":2681:2705   */\n      tag_71\n        /* \"#utility.yul\":2699:2704   */\n      dup3\n        /* \"#utility.yul\":2681:2705   */\n      tag_72\n      jump\t// in\n    tag_71:\n        /* \"#utility.yul\":2670:2705   */\n      swap1\n      pop\n        /* \"#utility.yul\":2660:2711   */\n      swap2\n      swap1\n      pop\n      jump\t// out\n        /* \"#utility.yul\":2717:2843   */\n    tag_72:\n      0x00\n        /* \"#utility.yul\":2794:2836   */\n      0xffffffffffffffffffffffffffffffffffffffff\n        /* \"#utility.yul\":2787:2792   */\n      dup3\n        /* \"#utility.yul\":2783:2837   */\n      and\n        /* \"#utility.yul\":2772:2837   */\n      swap1\n      pop\n        /* \"#utility.yul\":2762:2843   */\n      swap2\n      swap1\n      pop\n      jump\t// out\n        /* \"#utility.yul\":2849:2926   */\n    tag_52:\n      0x00\n        /* \"#utility.yul\":2915:2920   */\n      dup2\n        /* \"#utility.yul\":2904:2920   */\n      swap1\n      pop\n        /* \"#utility.yul\":2894:2926   */\n      swap2\n      swap1\n      pop\n      jump\t// out\n        /* \"#utility.yul\":2932:3112   */\n    tag_63:\n        /* \"#utility.yul\":2980:3057   */\n      0x4e487b7100000000000000000000000000000000000000000000000000000000\n        /* \"#utility.yul\":2977:2978   */\n      0x00\n        /* \"#utility.yul\":2970:3058   */\n      mstore\n        /* \"#utility.yul\":3077:3081   */\n      0x11\n        /* \"#utility.yul\":3074:3075   */\n      0x04\n        /* \"#utility.yul\":3067:3082   */\n      mstore\n        /* \"#utility.yul\":3101:3105   */\n      0x24\n        /* \"#utility.yul\":3098:3099   */\n      0x00\n        /* \"#utility.yul\":3091:3106   */\n      revert\n        /* \"#utility.yul\":3118:3240   */\n    tag_34:\n        /* \"#utility.yul\":3191:3215   */\n      tag_77\n        /* \"#utility.yul\":3209:3214   */\n      dup2\n        /* \"#utility.yul\":3191:3215   */\n      tag_69\n      jump\t// in\n    tag_77:\n        /* \"#utility.yul\":3184:3189   */\n      dup2\n        /* \"#utility.yul\":3181:3216   */\n      eq\n        /* \"#utility.yul\":3171:3173   */\n      tag_78\n      jumpi\n        /* \"#utility.yul\":3230:3231   */\n      0x00\n        /* \"#utility.yul\":3227:3228   */\n      dup1\n        /* \"#utility.yul\":3220:3232   */\n      revert\n        /* \"#utility.yul\":3171:3173   */\n    tag_78:\n        /* \"#utility.yul\":3161:3240   */\n      pop\n      jump\t// out\n        /* \"#utility.yul\":3246:3368   */\n    tag_38:\n        /* \"#utility.yul\":3319:3343   */\n      tag_80\n        /* \"#utility.yul\":3337:3342   */\n      dup2\n        /* \"#utility.yul\":3319:3343   */\n      tag_52\n      jump\t// in\n    tag_80:\n        /* \"#utility.yul\":3312:3317   */\n      dup2\n        /* \"#utility.yul\":3309:3344   */\n      eq\n        /* \"#utility.yul\":3299:3301   */\n      tag_81\n      jumpi\n        /* \"#utility.yul\":3358:3359   */\n      0x00\n        /* \"#utility.yul\":3355:3356   */\n      dup1\n        /* \"#utility.yul\":3348:3360   */\n      revert\n        /* \"#utility.yul\":3299:3301   */\n    tag_81:\n        /* \"#utility.yul\":3289:3368   */\n      pop\n      jump\t// out\n\n    auxdata: 0xa26469706673582212209f8d3cd561d092b3c5ca889c7187fb4d360e15b51d99872e91663cf1fd6868a064736f6c63430008000033\n}\n",
				"bytecode": {
					"linkReferences": {},
					"object": "608060405234801561001057600080fd5b506104a8806100206000396000f3fe6080604052600436106100345760003560e01c806327e235e3146100395780632e1a7d4d14610076578063d0e30db01461009f575b600080fd5b34801561004557600080fd5b50610060600480360381019061005b9190610262565b6100a9565b60405161006d9190610323565b60405180910390f35b34801561008257600080fd5b5061009d6004803603810190610098919061028b565b6100c1565b005b6100a76101e1565b005b60006020528060005260406000206000915090505481565b806000803373ffffffffffffffffffffffffffffffffffffffff1673ffffffffffffffffffffffffffffffffffffffff168152602001908152602001600020541015610142576040517f08c379a000000000000000000000000000000000000000000000000000000000815260040161013990610303565b60405180910390fd5b806000803373ffffffffffffffffffffffffffffffffffffffff1673ffffffffffffffffffffffffffffffffffffffff168152602001908152602001600020600082825461019091906103a5565b925050819055503373ffffffffffffffffffffffffffffffffffffffff166108fc829081150290604051600060405180830381858888f193505050501580156101dd573d6000803e3d6000fd5b5050565b346000803373ffffffffffffffffffffffffffffffffffffffff1673ffffffffffffffffffffffffffffffffffffffff168152602001908152602001600020600082825461022f919061034f565b92505081905550565b60008135905061024781610444565b92915050565b60008135905061025c8161045b565b92915050565b60006020828403121561027457600080fd5b600061028284828501610238565b91505092915050565b60006020828403121561029d57600080fd5b60006102ab8482850161024d565b91505092915050565b60006102c160128361033e565b91507f4e6f7420656e6f7567682062616c616e636500000000000000000000000000006000830152602082019050919050565b6102fd8161040b565b82525050565b6000602082019050818103600083015261031c816102b4565b9050919050565b600060208201905061033860008301846102f4565b92915050565b600082825260208201905092915050565b600061035a8261040b565b91506103658361040b565b9250827fffffffffffffffffffffffffffffffffffffffffffffffffffffffffffffffff0382111561039a57610399610415565b5b828201905092915050565b60006103b08261040b565b91506103bb8361040b565b9250828210156103ce576103cd610415565b5b828203905092915050565b60006103e4826103eb565b9050919050565b600073ffffffffffffffffffffffffffffffffffffffff82169050919050565b6000819050919050565b7f4e487b7100000000000000000000000000000000000000000000000000000000600052601160045260246000fd5b61044d816103d9565b811461045857600080fd5b50565b6104648161040b565b811461046f57600080fd5b5056fea26469706673582212209f8d3cd561d092b3c5ca889c7187fb4d360e15b51d99872e91663cf1fd6868a064736f6c63430008000033",
					"opcodes": "PUSH1 0x80 PUSH1 0x40 MSTORE CALLVALUE DUP1 ISZERO PUSH2 0x10 JUMPI PUSH1 0x0 DUP1 REVERT JUMPDEST POP PUSH2 0x4A8 DUP1 PUSH2 0x20 PUSH1 0x0 CODECOPY PUSH1 0x0 RETURN INVALID PUSH1 0x80 PUSH1 0x40 MSTORE PUSH1 0x4 CALLDATASIZE LT PUSH2 0x34 JUMPI PUSH1 0x0 CALLDATALOAD PUSH1 0xE0 SHR DUP1 PUSH4 0x27E235E3 EQ PUSH2 0x39 JUMPI DUP1 PUSH4 0x2E1A7D4D EQ PUSH2 0x76 JUMPI DUP1 PUSH4 0xD0E30DB0 EQ PUSH2 0x9F JUMPI JUMPDEST PUSH1 0x0 DUP1 REVERT JUMPDEST CALLVALUE DUP1 ISZERO PUSH2 0x45 JUMPI PUSH1 0x0 DUP1 REVERT JUMPDEST POP PUSH2 0x60 PUSH1 0x4 DUP1 CALLDATASIZE SUB DUP2 ADD SWAP1 PUSH2 0x5B SWAP2 SWAP1 PUSH2 0x262 JUMP JUMPDEST PUSH2 0xA9 JUMP JUMPDEST PUSH1 0x40 MLOAD PUSH2 0x6D SWAP2 SWAP1 PUSH2 0x323 JUMP JUMPDEST PUSH1 0x40 MLOAD DUP1 SWAP2 SUB SWAP1 RETURN JUMPDEST CALLVALUE DUP1 ISZERO PUSH2 0x82 JUMPI PUSH1 0x0 DUP1 REVERT JUMPDEST POP PUSH2 0x9D PUSH1 0x4 DUP1 CALLDATASIZE SUB DUP2 ADD SWAP1 PUSH2 0x98 SWAP2 SWAP1 PUSH2 0x28B JUMP JUMPDEST PUSH2 0xC1 JUMP JUMPDEST STOP JUMPDEST PUSH2 0xA7 PUSH2 0x1E1 JUMP JUMPDEST STOP JUMPDEST PUSH1 0x0 PUSH1 0x20 MSTORE DUP1 PUSH1 0x0 MSTORE PUSH1 0x40 PUSH1 0x0 KECCAK256 PUSH1 0x0 SWAP2 POP SWAP1 POP SLOAD DUP2 JUMP JUMPDEST DUP1 PUSH1 0x0 DUP1 CALLER PUSH20 0xFFFFFFFFFFFFFFFFFFFFFFFFFFFFFFFFFFFFFFFF AND PUSH20 0xFFFFFFFFFFFFFFFFFFFFFFFFFFFFFFFFFFFFFFFF AND DUP2 MSTORE PUSH1 0x20 ADD SWAP1 DUP2 MSTORE PUSH1 0x20 ADD PUSH1 0x0 KECCAK256 SLOAD LT ISZERO PUSH2 0x142 JUMPI PUSH1 0x40 MLOAD PUSH32 0x8C379A000000000000000000000000000000000000000000000000000000000 DUP2 MSTORE PUSH1 0x4 ADD PUSH2 0x139 SWAP1 PUSH2 0x303 JUMP JUMPDEST PUSH1 0x40 MLOAD DUP1 SWAP2 SUB SWAP1 REVERT JUMPDEST DUP1 PUSH1 0x0 DUP1 CALLER PUSH20 0xFFFFFFFFFFFFFFFFFFFFFFFFFFFFFFFFFFFFFFFF AND PUSH20 0xFFFFFFFFFFFFFFFFFFFFFFFFFFFFFFFFFFFFFFFF AND DUP2 MSTORE PUSH1 0x20 ADD SWAP1 DUP2 MSTORE PUSH1 0x20 ADD PUSH1 0x0 KECCAK256 PUSH1 0x0 DUP3 DUP3 SLOAD PUSH2 0x190 SWAP2 SWAP1 PUSH2 0x3A5 JUMP JUMPDEST SWAP3 POP POP DUP2 SWAP1 SSTORE POP CALLER PUSH20 0xFFFFFFFFFFFFFFFFFFFFFFFFFFFFFFFFFFFFFFFF AND PUSH2 0x8FC DUP3 SWAP1 DUP2 ISZERO MUL SWAP1 PUSH1 0x40 MLOAD PUSH1 0x0 PUSH1 0x40 MLOAD DUP1 DUP4 SUB DUP2 DUP6 DUP9 DUP9 CALL SWAP4 POP POP POP POP ISZERO DUP1 ISZERO PUSH2 0x1DD JUMPI RETURNDATASIZE PUSH1 0x0 DUP1 RETURNDATACOPY RETURNDATASIZE PUSH1 0x0 REVERT JUMPDEST POP POP JUMP JUMPDEST CALLVALUE PUSH1 0x0 DUP1 CALLER PUSH20 0xFFFFFFFFFFFFFFFFFFFFFFFFFFFFFFFFFFFFFFFF AND PUSH20 0xFFFFFFFFFFFFFFFFFFFFFFFFFFFFFFFFFFFFFFFF AND DUP2 MSTORE PUSH1 0x20 ADD SWAP1 DUP2 MSTORE PUSH1 0x20 ADD PUSH1 0x0 KECCAK256 PUSH1 0x0 DUP3 DUP3 SLOAD PUSH2 0x22F SWAP2 SWAP1 PUSH2 0x34F JUMP JUMPDEST SWAP3 POP POP DUP2 SWAP1 SSTORE POP JUMP JUMPDEST PUSH1 0x0 DUP2 CALLDATALOAD SWAP1 POP PUSH2 0x247 DUP2 PUSH2 0x444 JUMP JUMPDEST SWAP3 SWAP2 POP POP JUMP JUMPDEST PUSH1 0x0 DUP2 CALLDATALOAD SWAP1 POP PUSH2 0x25C DUP2 PUSH2 0x45B JUMP JUMPDEST SWAP3 SWAP2 POP POP JUMP JUMPDEST PUSH1 0x0 PUSH1 0x20 DUP3 DUP5 SUB SLT ISZERO PUSH2 0x274 JUMPI PUSH1 0x0 DUP1 REVERT JUMPDEST PUSH1 0x0 PUSH2 0x282 DUP5 DUP3 DUP6 ADD PUSH2 0x238 JUMP JUMPDEST SWAP2 POP POP SWAP3 SWAP2 POP POP JUMP JUMPDEST PUSH1 0x0 PUSH1 0x20 DUP3 DUP5 SUB SLT ISZERO PUSH2 0x29D JUMPI PUSH1 0x0 DUP1 REVERT JUMPDEST PUSH1 0x0 PUSH2 0x2AB DUP5 DUP3 DUP6 ADD PUSH2 0x24D JUMP JUMPDEST SWAP2 POP POP SWAP3 SWAP2 POP POP JUMP JUMPDEST PUSH1 0x0 PUSH2 0x2C1 PUSH1 0x12 DUP4 PUSH2 0x33E JUMP JUMPDEST SWAP2 POP PUSH32 0x4E6F7420656E6F7567682062616C616E63650000000000000000000000000000 PUSH1 0x0 DUP4 ADD MSTORE PUSH1 0x20 DUP3 ADD SWAP1 POP SWAP2 SWAP1 POP JUMP JUMPDEST PUSH2 0x2FD DUP2 PUSH2 0x40B JUMP JUMPDEST DUP3 MSTORE POP POP JUMP JUMPDEST PUSH1 0x0 PUSH1 0x20 DUP3 ADD SWAP1 POP DUP2 DUP2 SUB PUSH1 0x0 DUP4 ADD MSTORE PUSH2 0x31C DUP2 PUSH2 0x2B4 JUMP JUMPDEST SWAP1 POP SWAP2 SWAP1 POP JUMP JUMPDEST PUSH1 0x0 PUSH1 0x20 DUP3 ADD SWAP1 POP PUSH2 0x338 PUSH1 0x0 DUP4 ADD DUP5 PUSH2 0x2F4 JUMP JUMPDEST SWAP3 SWAP2 POP POP JUMP JUMPDEST PUSH1 0x0 DUP3 DUP3 MSTORE PUSH1 0x20 DUP3 ADD SWAP1 POP SWAP3 SWAP2 POP POP JUMP JUMPDEST PUSH1 0x0 PUSH2 0x35A DUP3 PUSH2 0x40B JUMP JUMPDEST SWAP2 POP PUSH2 0x365 DUP4 PUSH2 0x40B JUMP JUMPDEST SWAP3 POP DUP3 PUSH32 0xFFFFFFFFFFFFFFFFFFFFFFFFFFFFFFFFFFFFFFFFFFFFFFFFFFFFFFFFFFFFFFFF SUB DUP3 GT ISZERO PUSH2 0x39A JUMPI PUSH2 0x399 PUSH2 0x415 JUMP JUMPDEST JUMPDEST DUP3 DUP3 ADD SWAP1 POP SWAP3 SWAP2 POP POP JUMP JUMPDEST PUSH1 0x0 PUSH2 0x3B0 DUP3 PUSH2 0x40B JUMP JUMPDEST SWAP2 POP PUSH2 0x3BB DUP4 PUSH2 0x40B JUMP JUMPDEST SWAP3 POP DUP3 DUP3 LT ISZERO PUSH2 0x3CE JUMPI PUSH2 0x3CD PUSH2 0x415 JUMP JUMPDEST JUMPDEST DUP3 DUP3 SUB SWAP1 POP SWAP3 SWAP2 POP POP JUMP JUMPDEST PUSH1 0x0 PUSH2 0x3E4 DUP3 PUSH2 0x3EB JUMP JUMPDEST SWAP1 POP SWAP2 SWAP1 POP JUMP JUMPDEST PUSH1 0x0 PUSH20 0xFFFFFFFFFFFFFFFFFFFFFFFFFFFFFFFFFFFFFFFF DUP3 AND SWAP1 POP SWAP2 SWAP1 POP JUMP JUMPDEST PUSH1 0x0 DUP2 SWAP1 POP SWAP2 SWAP1 POP JUMP JUMPDEST PUSH32 0x4E487B7100000000000000000000000000000000000000000000000000000000 PUSH1 0x0 MSTORE PUSH1 0x11 PUSH1 0x4 MSTORE PUSH1 0x24 PUSH1 0x0 REVERT JUMPDEST PUSH2 0x44D DUP2 PUSH2 0x3D9 JUMP JUMPDEST DUP2 EQ PUSH2 0x458 JUMPI PUSH1 0x0 DUP1 REVERT JUMPDEST POP JUMP JUMPDEST PUSH2 0x464 DUP2 PUSH2 0x40B JUMP JUMPDEST DUP2 EQ PUSH2 0x46F JUMPI PUSH1 0x0 DUP1 REVERT JUMPDEST POP JUMP INVALID LOG2 PUSH5 0x6970667358 0x22 SLT KECCAK256 SWAP16 DUP14 EXTCODECOPY 0xD5 PUSH2 0xD092 0xB3 0xC5 0xCA DUP9 SWAP13 PUSH18 0x87FB4D360E15B51D99872E91663CF1FD6868 LOG0 PUSH5 0x736F6C6343 STOP ADDMOD STOP STOP CALLER "
				},
				"gasEstimates": {
					"creation": {
						"codeDepositCost": "238400",
						"executionCost": "281",
						"totalCost": "238681"
					},
					"external": {
						"balances(address)": "1492",
						"deposit()": "infinite",
						"withdraw(uint256)": "infinite"
					}
				},
				"methodIdentifiers": {
					"balances(address)": "27e235e3",
					"deposit()": "d0e30db0",
					"withdraw(uint256)": "2e1a7d4d"
				}
			},
			"storageLayout": {
				"storage": [
					{
						"astId": 5,
						"contract": "contracts/Simplestorage.sol:SimpleBank",
						"label": "balances",
						"offset": 0,
						"slot": "0",
						"type": "t_mapping(t_address,t_uint256)"
					}
				],
				"types": {
					"t_address": {
						"encoding": "inplace",
						"label": "address",
						"numberOfBytes": "20"
					},
					"t_mapping(t_address,t_uint256)": {
						"encoding": "mapping",
						"key": "t_address",
						"label": "mapping(address => uint256)",
						"numberOfBytes": "32",
						"value": "t_uint256"
					},
					"t_uint256": {
						"encoding": "inplace",
						"label": "uint256",
						"numberOfBytes": "32"
					}
				}
			},
			"userdoc": {
				"kind": "user",
				"methods": {},
				"version": 1
			}
		}
	}
}